{
	"Contracts/twitter.sol": {
		"Twitter": {
			"abi": [
				{
					"inputs": [],
					"stateMutability": "nonpayable",
					"type": "constructor"
				},
				{
					"anonymous": false,
					"inputs": [
						{
							"indexed": false,
							"internalType": "uint256",
							"name": "id",
							"type": "uint256"
						},
						{
							"indexed": false,
							"internalType": "string",
							"name": "content",
							"type": "string"
						},
						{
							"indexed": false,
							"internalType": "address",
							"name": "author",
							"type": "address"
						},
						{
							"indexed": false,
							"internalType": "uint256",
							"name": "timestamp",
							"type": "uint256"
						}
					],
					"name": "createdTweet",
					"type": "event"
				},
				{
					"anonymous": false,
					"inputs": [
						{
							"indexed": false,
							"internalType": "uint256",
							"name": "tweetId",
							"type": "uint256"
						},
						{
							"indexed": false,
							"internalType": "address",
							"name": "tweetAuthor",
							"type": "address"
						},
						{
							"indexed": false,
							"internalType": "uint256",
							"name": "tweetLikes",
							"type": "uint256"
						}
					],
					"name": "dislikedTweet",
					"type": "event"
				},
				{
					"anonymous": false,
					"inputs": [
						{
							"indexed": false,
							"internalType": "uint256",
							"name": "tweetId",
							"type": "uint256"
						},
						{
							"indexed": false,
							"internalType": "address",
							"name": "tweetAuthor",
							"type": "address"
						},
						{
							"indexed": false,
							"internalType": "uint256",
							"name": "tweetLikes",
							"type": "uint256"
						}
					],
					"name": "likedTweet",
					"type": "event"
				},
				{
					"inputs": [],
					"name": "MAX_TWEET_LENGTH",
					"outputs": [
						{
							"internalType": "uint16",
							"name": "",
							"type": "uint16"
						}
					],
					"stateMutability": "view",
					"type": "function"
				},
				{
					"inputs": [
						{
							"internalType": "uint16",
							"name": "inputLength",
							"type": "uint16"
						}
					],
					"name": "changeMaxTweet",
					"outputs": [],
					"stateMutability": "nonpayable",
					"type": "function"
				},
				{
					"inputs": [
						{
							"internalType": "string",
							"name": "_tweet",
							"type": "string"
						}
					],
					"name": "createTweet",
					"outputs": [],
					"stateMutability": "nonpayable",
					"type": "function"
				},
				{
					"inputs": [
						{
							"internalType": "address",
							"name": "_owner",
							"type": "address"
						},
						{
							"internalType": "uint16",
							"name": "_i",
							"type": "uint16"
						}
					],
					"name": "deleteTweet",
					"outputs": [],
					"stateMutability": "nonpayable",
					"type": "function"
				},
				{
					"inputs": [
						{
							"internalType": "address",
							"name": "author",
							"type": "address"
						},
						{
							"internalType": "uint256",
							"name": "id",
							"type": "uint256"
						}
					],
					"name": "dislikeTweet",
					"outputs": [],
					"stateMutability": "nonpayable",
					"type": "function"
				},
				{
					"inputs": [
						{
							"internalType": "address",
							"name": "_owner",
							"type": "address"
						}
					],
					"name": "getALLTweets",
					"outputs": [
						{
							"components": [
								{
									"internalType": "uint256",
									"name": "id",
									"type": "uint256"
								},
								{
									"internalType": "address",
									"name": "author",
									"type": "address"
								},
								{
									"internalType": "string",
									"name": "content",
									"type": "string"
								},
								{
									"internalType": "uint256",
									"name": "timestamp",
									"type": "uint256"
								},
								{
									"internalType": "uint256",
									"name": "likes",
									"type": "uint256"
								}
							],
							"internalType": "struct Twitter.Tweet[]",
							"name": "",
							"type": "tuple[]"
						}
					],
					"stateMutability": "view",
					"type": "function"
				},
				{
					"inputs": [
						{
							"internalType": "address",
							"name": "_owner",
							"type": "address"
						},
						{
							"internalType": "uint16",
							"name": "_i",
							"type": "uint16"
						}
					],
					"name": "getTweetAtIndex",
					"outputs": [
						{
							"components": [
								{
									"internalType": "uint256",
									"name": "id",
									"type": "uint256"
								},
								{
									"internalType": "address",
									"name": "author",
									"type": "address"
								},
								{
									"internalType": "string",
									"name": "content",
									"type": "string"
								},
								{
									"internalType": "uint256",
									"name": "timestamp",
									"type": "uint256"
								},
								{
									"internalType": "uint256",
									"name": "likes",
									"type": "uint256"
								}
							],
							"internalType": "struct Twitter.Tweet",
							"name": "",
							"type": "tuple"
						}
					],
					"stateMutability": "view",
					"type": "function"
				},
				{
					"inputs": [
						{
							"internalType": "address",
							"name": "author",
							"type": "address"
						},
						{
							"internalType": "uint256",
							"name": "id",
							"type": "uint256"
						}
					],
					"name": "likeTweet",
					"outputs": [],
					"stateMutability": "nonpayable",
					"type": "function"
				},
				{
					"inputs": [
						{
							"internalType": "address",
							"name": "",
							"type": "address"
						},
						{
							"internalType": "uint256",
							"name": "",
							"type": "uint256"
						}
					],
					"name": "tweets",
					"outputs": [
						{
							"internalType": "uint256",
							"name": "id",
							"type": "uint256"
						},
						{
							"internalType": "address",
							"name": "author",
							"type": "address"
						},
						{
							"internalType": "string",
							"name": "content",
							"type": "string"
						},
						{
							"internalType": "uint256",
							"name": "timestamp",
							"type": "uint256"
						},
						{
							"internalType": "uint256",
							"name": "likes",
							"type": "uint256"
						}
					],
					"stateMutability": "view",
					"type": "function"
				}
			],
			"devdoc": {
				"kind": "dev",
				"methods": {},
				"version": 1
			},
			"evm": {
				"assembly": "    /* \"Contracts/twitter.sol\":68:2490  contract Twitter {... */\n  mstore(0x40, 0x80)\n    /* \"Contracts/twitter.sol\":331:334  280 */\n  0x0118\n    /* \"Contracts/twitter.sol\":298:334  uint16 public MAX_TWEET_LENGTH = 280 */\n  0x01\n  exp(0x0100, 0x00)\n  dup2\n  sload\n  dup2\n  0xffff\n  mul\n  not\n  and\n  swap1\n  dup4\n  0xffff\n  and\n  mul\n  or\n  swap1\n  sstore\n  pop\n    /* \"Contracts/twitter.sol\":620:671  constructor() {... */\n  callvalue\n  dup1\n  iszero\n  tag_1\n  jumpi\n  0x00\n  dup1\n  revert\ntag_1:\n  pop\n    /* \"Contracts/twitter.sol\":653:663  msg.sender */\n  caller\n    /* \"Contracts/twitter.sol\":645:650  owner */\n  0x01\n  0x02\n    /* \"Contracts/twitter.sol\":645:663  owner = msg.sender */\n  0x0100\n  exp\n  dup2\n  sload\n  dup2\n  0xffffffffffffffffffffffffffffffffffffffff\n  mul\n  not\n  and\n  swap1\n  dup4\n  0xffffffffffffffffffffffffffffffffffffffff\n  and\n  mul\n  or\n  swap1\n  sstore\n  pop\n    /* \"Contracts/twitter.sol\":68:2490  contract Twitter {... */\n  dataSize(sub_0)\n  dup1\n  dataOffset(sub_0)\n  0x00\n  codecopy\n  0x00\n  return\nstop\n\nsub_0: assembly {\n        /* \"Contracts/twitter.sol\":68:2490  contract Twitter {... */\n      mstore(0x40, 0x80)\n      callvalue\n      dup1\n      iszero\n      tag_1\n      jumpi\n      0x00\n      dup1\n      revert\n    tag_1:\n      pop\n      jumpi(tag_2, lt(calldatasize, 0x04))\n      shr(0xe0, calldataload(0x00))\n      dup1\n      0x808b0cf1\n      gt\n      tag_12\n      jumpi\n      dup1\n      0x808b0cf1\n      eq\n      tag_7\n      jumpi\n      dup1\n      0xa4d96744\n      eq\n      tag_8\n      jumpi\n      dup1\n      0xae775e95\n      eq\n      tag_9\n      jumpi\n      dup1\n      0xb157c735\n      eq\n      tag_10\n      jumpi\n      dup1\n      0xdc2ef9c5\n      eq\n      tag_11\n      jumpi\n      jump(tag_2)\n    tag_12:\n      dup1\n      0x05a1b4a9\n      eq\n      tag_3\n      jumpi\n      dup1\n      0x63378216\n      eq\n      tag_4\n      jumpi\n      dup1\n      0x6eb10797\n      eq\n      tag_5\n      jumpi\n      dup1\n      0x7c9cd2bc\n      eq\n      tag_6\n      jumpi\n    tag_2:\n      0x00\n      dup1\n      revert\n        /* \"Contracts/twitter.sol\":250:291  mapping(address => Tweet[]) public tweets */\n    tag_3:\n      tag_13\n      0x04\n      dup1\n      calldatasize\n      sub\n      dup2\n      add\n      swap1\n      tag_14\n      swap2\n      swap1\n      tag_15\n      jump\t// in\n    tag_14:\n      tag_16\n      jump\t// in\n    tag_13:\n      mload(0x40)\n      tag_17\n      swap6\n      swap5\n      swap4\n      swap3\n      swap2\n      swap1\n      tag_18\n      jump\t// in\n    tag_17:\n      mload(0x40)\n      dup1\n      swap2\n      sub\n      swap1\n      return\n        /* \"Contracts/twitter.sol\":1931:2166  function likeTweet(address author, uint256 id) external {... */\n    tag_4:\n      tag_19\n      0x04\n      dup1\n      calldatasize\n      sub\n      dup2\n      add\n      swap1\n      tag_20\n      swap2\n      swap1\n      tag_15\n      jump\t// in\n    tag_20:\n      tag_21\n      jump\t// in\n    tag_19:\n      stop\n        /* \"Contracts/twitter.sol\":298:334  uint16 public MAX_TWEET_LENGTH = 280 */\n    tag_5:\n      tag_22\n      tag_23\n      jump\t// in\n    tag_22:\n      mload(0x40)\n      tag_24\n      swap2\n      swap1\n      tag_25\n      jump\t// in\n    tag_24:\n      mload(0x40)\n      dup1\n      swap2\n      sub\n      swap1\n      return\n        /* \"Contracts/twitter.sol\":907:1554  function createTweet(string memory _tweet) public {... */\n    tag_6:\n      tag_26\n      0x04\n      dup1\n      calldatasize\n      sub\n      dup2\n      add\n      swap1\n      tag_27\n      swap2\n      swap1\n      tag_28\n      jump\t// in\n    tag_27:\n      tag_29\n      jump\t// in\n    tag_26:\n      stop\n        /* \"Contracts/twitter.sol\":1701:1816  function getALLTweets(address _owner) public view returns (Tweet[] memory) {... */\n    tag_7:\n      tag_30\n      0x04\n      dup1\n      calldatasize\n      sub\n      dup2\n      add\n      swap1\n      tag_31\n      swap2\n      swap1\n      tag_32\n      jump\t// in\n    tag_31:\n      tag_33\n      jump\t// in\n    tag_30:\n      mload(0x40)\n      tag_34\n      swap2\n      swap1\n      tag_35\n      jump\t// in\n    tag_34:\n      mload(0x40)\n      dup1\n      swap2\n      sub\n      swap1\n      return\n        /* \"Contracts/twitter.sol\":1824:1923  function deleteTweet(address _owner, uint16 _i) public {... */\n    tag_8:\n      tag_36\n      0x04\n      dup1\n      calldatasize\n      sub\n      dup2\n      add\n      swap1\n      tag_37\n      swap2\n      swap1\n      tag_38\n      jump\t// in\n    tag_37:\n      tag_39\n      jump\t// in\n    tag_36:\n      stop\n        /* \"Contracts/twitter.sol\":2178:2487  function dislikeTweet(address author, uint256 id) external {... */\n    tag_9:\n      tag_40\n      0x04\n      dup1\n      calldatasize\n      sub\n      dup2\n      add\n      swap1\n      tag_41\n      swap2\n      swap1\n      tag_15\n      jump\t// in\n    tag_41:\n      tag_42\n      jump\t// in\n    tag_40:\n      stop\n        /* \"Contracts/twitter.sol\":1562:1693  function getTweetAtIndex(address _owner, uint16 _i) public view returns (Tweet memory) {... */\n    tag_10:\n      tag_43\n      0x04\n      dup1\n      calldatasize\n      sub\n      dup2\n      add\n      swap1\n      tag_44\n      swap2\n      swap1\n      tag_38\n      jump\t// in\n    tag_44:\n      tag_45\n      jump\t// in\n    tag_43:\n      mload(0x40)\n      tag_46\n      swap2\n      swap1\n      tag_47\n      jump\t// in\n    tag_46:\n      mload(0x40)\n      dup1\n      swap2\n      sub\n      swap1\n      return\n        /* \"Contracts/twitter.sol\":790:899  function changeMaxTweet(uint16 inputLength) public onlyOwner{... */\n    tag_11:\n      tag_48\n      0x04\n      dup1\n      calldatasize\n      sub\n      dup2\n      add\n      swap1\n      tag_49\n      swap2\n      swap1\n      tag_50\n      jump\t// in\n    tag_49:\n      tag_51\n      jump\t// in\n    tag_48:\n      stop\n        /* \"Contracts/twitter.sol\":250:291  mapping(address => Tweet[]) public tweets */\n    tag_16:\n      mstore(0x20, 0x00)\n      dup2\n      0x00\n      mstore\n      keccak256(0x00, 0x40)\n      dup2\n      dup2\n      sload\n      dup2\n      lt\n      tag_52\n      jumpi\n      0x00\n      dup1\n      revert\n    tag_52:\n      swap1\n      0x00\n      mstore\n      keccak256(0x00, 0x20)\n      swap1\n      0x05\n      mul\n      add\n      0x00\n      swap2\n      pop\n      swap2\n      pop\n      pop\n      dup1\n      0x00\n      add\n      sload\n      swap1\n      dup1\n      0x01\n      add\n      0x00\n      swap1\n      sload\n      swap1\n      0x0100\n      exp\n      swap1\n      div\n      0xffffffffffffffffffffffffffffffffffffffff\n      and\n      swap1\n      dup1\n      0x02\n      add\n      dup1\n      sload\n      tag_54\n      swap1\n      tag_55\n      jump\t// in\n    tag_54:\n      dup1\n      0x1f\n      add\n      0x20\n      dup1\n      swap2\n      div\n      mul\n      0x20\n      add\n      mload(0x40)\n      swap1\n      dup2\n      add\n      0x40\n      mstore\n      dup1\n      swap3\n      swap2\n      swap1\n      dup2\n      dup2\n      mstore\n      0x20\n      add\n      dup3\n      dup1\n      sload\n      tag_56\n      swap1\n      tag_55\n      jump\t// in\n    tag_56:\n      dup1\n      iszero\n      tag_57\n      jumpi\n      dup1\n      0x1f\n      lt\n      tag_58\n      jumpi\n      0x0100\n      dup1\n      dup4\n      sload\n      div\n      mul\n      dup4\n      mstore\n      swap2\n      0x20\n      add\n      swap2\n      jump(tag_57)\n    tag_58:\n      dup3\n      add\n      swap2\n      swap1\n      0x00\n      mstore\n      keccak256(0x00, 0x20)\n      swap1\n    tag_59:\n      dup2\n      sload\n      dup2\n      mstore\n      swap1\n      0x01\n      add\n      swap1\n      0x20\n      add\n      dup1\n      dup4\n      gt\n      tag_59\n      jumpi\n      dup3\n      swap1\n      sub\n      0x1f\n      and\n      dup3\n      add\n      swap2\n    tag_57:\n      pop\n      pop\n      pop\n      pop\n      pop\n      swap1\n      dup1\n      0x03\n      add\n      sload\n      swap1\n      dup1\n      0x04\n      add\n      sload\n      swap1\n      pop\n      dup6\n      jump\t// out\n        /* \"Contracts/twitter.sol\":1931:2166  function likeTweet(address author, uint256 id) external {... */\n    tag_21:\n        /* \"Contracts/twitter.sol\":2031:2033  id */\n      dup1\n        /* \"Contracts/twitter.sol\":2006:2012  tweets */\n      0x00\n        /* \"Contracts/twitter.sol\":2006:2020  tweets[author] */\n      dup1\n        /* \"Contracts/twitter.sol\":2013:2019  author */\n      dup5\n        /* \"Contracts/twitter.sol\":2006:2020  tweets[author] */\n      0xffffffffffffffffffffffffffffffffffffffff\n      and\n      0xffffffffffffffffffffffffffffffffffffffff\n      and\n      dup2\n      mstore\n      0x20\n      add\n      swap1\n      dup2\n      mstore\n      0x20\n      add\n      0x00\n      keccak256\n        /* \"Contracts/twitter.sol\":2021:2023  id */\n      dup3\n        /* \"Contracts/twitter.sol\":2006:2024  tweets[author][id] */\n      dup2\n      sload\n      dup2\n      lt\n      tag_61\n      jumpi\n      tag_62\n      tag_63\n      jump\t// in\n    tag_62:\n    tag_61:\n      swap1\n      0x00\n      mstore\n      keccak256(0x00, 0x20)\n      swap1\n      0x05\n      mul\n      add\n        /* \"Contracts/twitter.sol\":2006:2027  tweets[author][id].id */\n      0x00\n      add\n      sload\n        /* \"Contracts/twitter.sol\":2006:2033  tweets[author][id].id == id */\n      eq\n        /* \"Contracts/twitter.sol\":1998:2057  require(tweets[author][id].id == id, \"Tweet doesn't exist\") */\n      tag_65\n      jumpi\n      mload(0x40)\n      0x08c379a000000000000000000000000000000000000000000000000000000000\n      dup2\n      mstore\n      0x04\n      add\n      tag_66\n      swap1\n      tag_67\n      jump\t// in\n    tag_66:\n      mload(0x40)\n      dup1\n      swap2\n      sub\n      swap1\n      revert\n    tag_65:\n        /* \"Contracts/twitter.sol\":2068:2074  tweets */\n      0x00\n        /* \"Contracts/twitter.sol\":2068:2082  tweets[author] */\n      dup1\n        /* \"Contracts/twitter.sol\":2075:2081  author */\n      dup4\n        /* \"Contracts/twitter.sol\":2068:2082  tweets[author] */\n      0xffffffffffffffffffffffffffffffffffffffff\n      and\n      0xffffffffffffffffffffffffffffffffffffffff\n      and\n      dup2\n      mstore\n      0x20\n      add\n      swap1\n      dup2\n      mstore\n      0x20\n      add\n      0x00\n      keccak256\n        /* \"Contracts/twitter.sol\":2083:2085  id */\n      dup2\n        /* \"Contracts/twitter.sol\":2068:2086  tweets[author][id] */\n      dup2\n      sload\n      dup2\n      lt\n      tag_68\n      jumpi\n      tag_69\n      tag_63\n      jump\t// in\n    tag_69:\n    tag_68:\n      swap1\n      0x00\n      mstore\n      keccak256(0x00, 0x20)\n      swap1\n      0x05\n      mul\n      add\n        /* \"Contracts/twitter.sol\":2068:2092  tweets[author][id].likes */\n      0x04\n      add\n      0x00\n        /* \"Contracts/twitter.sol\":2068:2094  tweets[author][id].likes++ */\n      dup2\n      sload\n      dup1\n      swap3\n      swap2\n      swap1\n      tag_71\n      swap1\n      tag_72\n      jump\t// in\n    tag_71:\n      swap2\n      swap1\n      pop\n      sstore\n      pop\n        /* \"Contracts/twitter.sol\":2110:2158  likedTweet(id, author, tweets[author][id].likes) */\n      0x90a80b7cd7339f7831803030ed92180af565fecf85a310e09a0966eb013f377c\n        /* \"Contracts/twitter.sol\":2121:2123  id */\n      dup2\n        /* \"Contracts/twitter.sol\":2125:2131  author */\n      dup4\n        /* \"Contracts/twitter.sol\":2133:2139  tweets */\n      0x00\n        /* \"Contracts/twitter.sol\":2133:2147  tweets[author] */\n      dup1\n        /* \"Contracts/twitter.sol\":2140:2146  author */\n      dup7\n        /* \"Contracts/twitter.sol\":2133:2147  tweets[author] */\n      0xffffffffffffffffffffffffffffffffffffffff\n      and\n      0xffffffffffffffffffffffffffffffffffffffff\n      and\n      dup2\n      mstore\n      0x20\n      add\n      swap1\n      dup2\n      mstore\n      0x20\n      add\n      0x00\n      keccak256\n        /* \"Contracts/twitter.sol\":2148:2150  id */\n      dup5\n        /* \"Contracts/twitter.sol\":2133:2151  tweets[author][id] */\n      dup2\n      sload\n      dup2\n      lt\n      tag_73\n      jumpi\n      tag_74\n      tag_63\n      jump\t// in\n    tag_74:\n    tag_73:\n      swap1\n      0x00\n      mstore\n      keccak256(0x00, 0x20)\n      swap1\n      0x05\n      mul\n      add\n        /* \"Contracts/twitter.sol\":2133:2157  tweets[author][id].likes */\n      0x04\n      add\n      sload\n        /* \"Contracts/twitter.sol\":2110:2158  likedTweet(id, author, tweets[author][id].likes) */\n      mload(0x40)\n      tag_76\n      swap4\n      swap3\n      swap2\n      swap1\n      tag_77\n      jump\t// in\n    tag_76:\n      mload(0x40)\n      dup1\n      swap2\n      sub\n      swap1\n      log1\n        /* \"Contracts/twitter.sol\":1931:2166  function likeTweet(address author, uint256 id) external {... */\n      pop\n      pop\n      jump\t// out\n        /* \"Contracts/twitter.sol\":298:334  uint16 public MAX_TWEET_LENGTH = 280 */\n    tag_23:\n      0x01\n      0x00\n      swap1\n      sload\n      swap1\n      0x0100\n      exp\n      swap1\n      div\n      0xffff\n      and\n      dup2\n      jump\t// out\n        /* \"Contracts/twitter.sol\":907:1554  function createTweet(string memory _tweet) public {... */\n    tag_29:\n        /* \"Contracts/twitter.sol\":1105:1121  MAX_TWEET_LENGTH */\n      0x01\n      0x00\n      swap1\n      sload\n      swap1\n      0x0100\n      exp\n      swap1\n      div\n      0xffff\n      and\n        /* \"Contracts/twitter.sol\":1081:1121  bytes(_tweet).length <= MAX_TWEET_LENGTH */\n      0xffff\n      and\n        /* \"Contracts/twitter.sol\":1087:1093  _tweet */\n      dup2\n        /* \"Contracts/twitter.sol\":1081:1101  bytes(_tweet).length */\n      mload\n        /* \"Contracts/twitter.sol\":1081:1121  bytes(_tweet).length <= MAX_TWEET_LENGTH */\n      gt\n      iszero\n        /* \"Contracts/twitter.sol\":1073:1148  require(bytes(_tweet).length <= MAX_TWEET_LENGTH, \"Your Tweet is too long\") */\n      tag_79\n      jumpi\n      mload(0x40)\n      0x08c379a000000000000000000000000000000000000000000000000000000000\n      dup2\n      mstore\n      0x04\n      add\n      tag_80\n      swap1\n      tag_81\n      jump\t// in\n    tag_80:\n      mload(0x40)\n      dup1\n      swap2\n      sub\n      swap1\n      revert\n    tag_79:\n        /* \"Contracts/twitter.sol\":1159:1180  Tweet memory newTweet */\n      0x00\n        /* \"Contracts/twitter.sol\":1183:1404  Tweet({... */\n      mload(0x40)\n      dup1\n      0xa0\n      add\n      0x40\n      mstore\n      dup1\n        /* \"Contracts/twitter.sol\":1208:1214  tweets */\n      0x00\n        /* \"Contracts/twitter.sol\":1208:1226  tweets[msg.sender] */\n      dup1\n        /* \"Contracts/twitter.sol\":1215:1225  msg.sender */\n      caller\n        /* \"Contracts/twitter.sol\":1208:1226  tweets[msg.sender] */\n      0xffffffffffffffffffffffffffffffffffffffff\n      and\n      0xffffffffffffffffffffffffffffffffffffffff\n      and\n      dup2\n      mstore\n      0x20\n      add\n      swap1\n      dup2\n      mstore\n      0x20\n      add\n      0x00\n      keccak256\n        /* \"Contracts/twitter.sol\":1208:1233  tweets[msg.sender].length */\n      dup1\n      sload\n      swap1\n      pop\n        /* \"Contracts/twitter.sol\":1183:1404  Tweet({... */\n      dup2\n      mstore\n      0x20\n      add\n        /* \"Contracts/twitter.sol\":1256:1266  msg.sender */\n      caller\n        /* \"Contracts/twitter.sol\":1183:1404  Tweet({... */\n      0xffffffffffffffffffffffffffffffffffffffff\n      and\n      dup2\n      mstore\n      0x20\n      add\n        /* \"Contracts/twitter.sol\":1322:1328  _tweet */\n      dup4\n        /* \"Contracts/twitter.sol\":1183:1404  Tweet({... */\n      dup2\n      mstore\n      0x20\n      add\n        /* \"Contracts/twitter.sol\":1354:1369  block.timestamp */\n      timestamp\n        /* \"Contracts/twitter.sol\":1183:1404  Tweet({... */\n      dup2\n      mstore\n      0x20\n      add\n        /* \"Contracts/twitter.sol\":1391:1392  0 */\n      0x00\n        /* \"Contracts/twitter.sol\":1183:1404  Tweet({... */\n      dup2\n      mstore\n      pop\n        /* \"Contracts/twitter.sol\":1159:1404  Tweet memory newTweet = Tweet({... */\n      swap1\n      pop\n        /* \"Contracts/twitter.sol\":1417:1423  tweets */\n      0x00\n        /* \"Contracts/twitter.sol\":1417:1435  tweets[msg.sender] */\n      dup1\n        /* \"Contracts/twitter.sol\":1424:1434  msg.sender */\n      caller\n        /* \"Contracts/twitter.sol\":1417:1435  tweets[msg.sender] */\n      0xffffffffffffffffffffffffffffffffffffffff\n      and\n      0xffffffffffffffffffffffffffffffffffffffff\n      and\n      dup2\n      mstore\n      0x20\n      add\n      swap1\n      dup2\n      mstore\n      0x20\n      add\n      0x00\n      keccak256\n        /* \"Contracts/twitter.sol\":1441:1449  newTweet */\n      dup2\n        /* \"Contracts/twitter.sol\":1417:1450  tweets[msg.sender].push(newTweet) */\n      swap1\n      dup1\n      0x01\n      dup2\n      sload\n      add\n      dup1\n      dup3\n      sstore\n      dup1\n      swap2\n      pop\n      pop\n      0x01\n      swap1\n      sub\n      swap1\n      0x00\n      mstore\n      keccak256(0x00, 0x20)\n      swap1\n      0x05\n      mul\n      add\n      0x00\n      swap1\n      swap2\n      swap1\n      swap2\n      swap1\n      swap2\n      pop\n      0x00\n      dup3\n      add\n      mload\n      dup2\n      0x00\n      add\n      sstore\n      0x20\n      dup3\n      add\n      mload\n      dup2\n      0x01\n      add\n      exp(0x0100, 0x00)\n      dup2\n      sload\n      dup2\n      0xffffffffffffffffffffffffffffffffffffffff\n      mul\n      not\n      and\n      swap1\n      dup4\n      0xffffffffffffffffffffffffffffffffffffffff\n      and\n      mul\n      or\n      swap1\n      sstore\n      pop\n      0x40\n      dup3\n      add\n      mload\n      dup2\n      0x02\n      add\n      swap1\n      dup2\n      tag_83\n      swap2\n      swap1\n      tag_84\n      jump\t// in\n    tag_83:\n      pop\n      0x60\n      dup3\n      add\n      mload\n      dup2\n      0x03\n      add\n      sstore\n      0x80\n      dup3\n      add\n      mload\n      dup2\n      0x04\n      add\n      sstore\n      pop\n      pop\n        /* \"Contracts/twitter.sol\":1466:1546  createdTweet(newTweet.id, newTweet.content, newTweet.author, newTweet.timestamp) */\n      0x591aa46df5fdd1453cd21da8f5b81ca1dd3f6b4dd289c1761a4c45b679e9b56b\n        /* \"Contracts/twitter.sol\":1479:1487  newTweet */\n      dup2\n        /* \"Contracts/twitter.sol\":1479:1490  newTweet.id */\n      0x00\n      add\n      mload\n        /* \"Contracts/twitter.sol\":1492:1500  newTweet */\n      dup3\n        /* \"Contracts/twitter.sol\":1492:1508  newTweet.content */\n      0x40\n      add\n      mload\n        /* \"Contracts/twitter.sol\":1510:1518  newTweet */\n      dup4\n        /* \"Contracts/twitter.sol\":1510:1525  newTweet.author */\n      0x20\n      add\n      mload\n        /* \"Contracts/twitter.sol\":1527:1535  newTweet */\n      dup5\n        /* \"Contracts/twitter.sol\":1527:1545  newTweet.timestamp */\n      0x60\n      add\n      mload\n        /* \"Contracts/twitter.sol\":1466:1546  createdTweet(newTweet.id, newTweet.content, newTweet.author, newTweet.timestamp) */\n      mload(0x40)\n      tag_85\n      swap5\n      swap4\n      swap3\n      swap2\n      swap1\n      tag_86\n      jump\t// in\n    tag_85:\n      mload(0x40)\n      dup1\n      swap2\n      sub\n      swap1\n      log1\n        /* \"Contracts/twitter.sol\":957:1554  {... */\n      pop\n        /* \"Contracts/twitter.sol\":907:1554  function createTweet(string memory _tweet) public {... */\n      pop\n      jump\t// out\n        /* \"Contracts/twitter.sol\":1701:1816  function getALLTweets(address _owner) public view returns (Tweet[] memory) {... */\n    tag_33:\n        /* \"Contracts/twitter.sol\":1760:1774  Tweet[] memory */\n      0x60\n        /* \"Contracts/twitter.sol\":1794:1800  tweets */\n      0x00\n        /* \"Contracts/twitter.sol\":1794:1808  tweets[_owner] */\n      dup1\n        /* \"Contracts/twitter.sol\":1801:1807  _owner */\n      dup4\n        /* \"Contracts/twitter.sol\":1794:1808  tweets[_owner] */\n      0xffffffffffffffffffffffffffffffffffffffff\n      and\n      0xffffffffffffffffffffffffffffffffffffffff\n      and\n      dup2\n      mstore\n      0x20\n      add\n      swap1\n      dup2\n      mstore\n      0x20\n      add\n      0x00\n      keccak256\n        /* \"Contracts/twitter.sol\":1787:1808  return tweets[_owner] */\n      dup1\n      sload\n      dup1\n      0x20\n      mul\n      0x20\n      add\n      mload(0x40)\n      swap1\n      dup2\n      add\n      0x40\n      mstore\n      dup1\n      swap3\n      swap2\n      swap1\n      dup2\n      dup2\n      mstore\n      0x20\n      add\n      0x00\n      swap1\n    tag_88:\n      dup3\n      dup3\n      lt\n      iszero\n      tag_89\n      jumpi\n      dup4\n      dup3\n      swap1\n      0x00\n      mstore\n      keccak256(0x00, 0x20)\n      swap1\n      0x05\n      mul\n      add\n      mload(0x40)\n      dup1\n      0xa0\n      add\n      0x40\n      mstore\n      swap1\n      dup2\n      0x00\n      dup3\n      add\n      sload\n      dup2\n      mstore\n      0x20\n      add\n      0x01\n      dup3\n      add\n      0x00\n      swap1\n      sload\n      swap1\n      0x0100\n      exp\n      swap1\n      div\n      0xffffffffffffffffffffffffffffffffffffffff\n      and\n      0xffffffffffffffffffffffffffffffffffffffff\n      and\n      0xffffffffffffffffffffffffffffffffffffffff\n      and\n      dup2\n      mstore\n      0x20\n      add\n      0x02\n      dup3\n      add\n      dup1\n      sload\n      tag_91\n      swap1\n      tag_55\n      jump\t// in\n    tag_91:\n      dup1\n      0x1f\n      add\n      0x20\n      dup1\n      swap2\n      div\n      mul\n      0x20\n      add\n      mload(0x40)\n      swap1\n      dup2\n      add\n      0x40\n      mstore\n      dup1\n      swap3\n      swap2\n      swap1\n      dup2\n      dup2\n      mstore\n      0x20\n      add\n      dup3\n      dup1\n      sload\n      tag_92\n      swap1\n      tag_55\n      jump\t// in\n    tag_92:\n      dup1\n      iszero\n      tag_93\n      jumpi\n      dup1\n      0x1f\n      lt\n      tag_94\n      jumpi\n      0x0100\n      dup1\n      dup4\n      sload\n      div\n      mul\n      dup4\n      mstore\n      swap2\n      0x20\n      add\n      swap2\n      jump(tag_93)\n    tag_94:\n      dup3\n      add\n      swap2\n      swap1\n      0x00\n      mstore\n      keccak256(0x00, 0x20)\n      swap1\n    tag_95:\n      dup2\n      sload\n      dup2\n      mstore\n      swap1\n      0x01\n      add\n      swap1\n      0x20\n      add\n      dup1\n      dup4\n      gt\n      tag_95\n      jumpi\n      dup3\n      swap1\n      sub\n      0x1f\n      and\n      dup3\n      add\n      swap2\n    tag_93:\n      pop\n      pop\n      pop\n      pop\n      pop\n      dup2\n      mstore\n      0x20\n      add\n      0x03\n      dup3\n      add\n      sload\n      dup2\n      mstore\n      0x20\n      add\n      0x04\n      dup3\n      add\n      sload\n      dup2\n      mstore\n      pop\n      pop\n      dup2\n      mstore\n      0x20\n      add\n      swap1\n      0x01\n      add\n      swap1\n      jump(tag_88)\n    tag_89:\n      pop\n      pop\n      pop\n      pop\n      swap1\n      pop\n        /* \"Contracts/twitter.sol\":1701:1816  function getALLTweets(address _owner) public view returns (Tweet[] memory) {... */\n      swap2\n      swap1\n      pop\n      jump\t// out\n        /* \"Contracts/twitter.sol\":1824:1923  function deleteTweet(address _owner, uint16 _i) public {... */\n    tag_39:\n        /* \"Contracts/twitter.sol\":1897:1903  tweets */\n      0x00\n        /* \"Contracts/twitter.sol\":1897:1911  tweets[_owner] */\n      dup1\n        /* \"Contracts/twitter.sol\":1904:1910  _owner */\n      dup4\n        /* \"Contracts/twitter.sol\":1897:1911  tweets[_owner] */\n      0xffffffffffffffffffffffffffffffffffffffff\n      and\n      0xffffffffffffffffffffffffffffffffffffffff\n      and\n      dup2\n      mstore\n      0x20\n      add\n      swap1\n      dup2\n      mstore\n      0x20\n      add\n      0x00\n      keccak256\n        /* \"Contracts/twitter.sol\":1912:1914  _i */\n      dup2\n        /* \"Contracts/twitter.sol\":1897:1915  tweets[_owner][_i] */\n      0xffff\n      and\n      dup2\n      sload\n      dup2\n      lt\n      tag_97\n      jumpi\n      tag_98\n      tag_63\n      jump\t// in\n    tag_98:\n    tag_97:\n      swap1\n      0x00\n      mstore\n      keccak256(0x00, 0x20)\n      swap1\n      0x05\n      mul\n      add\n      0x00\n        /* \"Contracts/twitter.sol\":1890:1915  delete tweets[_owner][_i] */\n      dup1\n      dup3\n      add\n      0x00\n      swap1\n      sstore\n      0x01\n      dup3\n      add\n      exp(0x0100, 0x00)\n      dup2\n      sload\n      swap1\n      0xffffffffffffffffffffffffffffffffffffffff\n      mul\n      not\n      and\n      swap1\n      sstore\n      0x02\n      dup3\n      add\n      0x00\n      tag_100\n      swap2\n      swap1\n      tag_101\n      jump\t// in\n    tag_100:\n      0x03\n      dup3\n      add\n      0x00\n      swap1\n      sstore\n      0x04\n      dup3\n      add\n      0x00\n      swap1\n      sstore\n      pop\n      pop\n        /* \"Contracts/twitter.sol\":1824:1923  function deleteTweet(address _owner, uint16 _i) public {... */\n      pop\n      pop\n      jump\t// out\n        /* \"Contracts/twitter.sol\":2178:2487  function dislikeTweet(address author, uint256 id) external {... */\n    tag_42:\n        /* \"Contracts/twitter.sol\":2281:2283  id */\n      dup1\n        /* \"Contracts/twitter.sol\":2256:2262  tweets */\n      0x00\n        /* \"Contracts/twitter.sol\":2256:2270  tweets[author] */\n      dup1\n        /* \"Contracts/twitter.sol\":2263:2269  author */\n      dup5\n        /* \"Contracts/twitter.sol\":2256:2270  tweets[author] */\n      0xffffffffffffffffffffffffffffffffffffffff\n      and\n      0xffffffffffffffffffffffffffffffffffffffff\n      and\n      dup2\n      mstore\n      0x20\n      add\n      swap1\n      dup2\n      mstore\n      0x20\n      add\n      0x00\n      keccak256\n        /* \"Contracts/twitter.sol\":2271:2273  id */\n      dup3\n        /* \"Contracts/twitter.sol\":2256:2274  tweets[author][id] */\n      dup2\n      sload\n      dup2\n      lt\n      tag_103\n      jumpi\n      tag_104\n      tag_63\n      jump\t// in\n    tag_104:\n    tag_103:\n      swap1\n      0x00\n      mstore\n      keccak256(0x00, 0x20)\n      swap1\n      0x05\n      mul\n      add\n        /* \"Contracts/twitter.sol\":2256:2277  tweets[author][id].id */\n      0x00\n      add\n      sload\n        /* \"Contracts/twitter.sol\":2256:2283  tweets[author][id].id == id */\n      eq\n        /* \"Contracts/twitter.sol\":2248:2307  require(tweets[author][id].id == id, \"Tweet doesn't exist\") */\n      tag_106\n      jumpi\n      mload(0x40)\n      0x08c379a000000000000000000000000000000000000000000000000000000000\n      dup2\n      mstore\n      0x04\n      add\n      tag_107\n      swap1\n      tag_67\n      jump\t// in\n    tag_107:\n      mload(0x40)\n      dup1\n      swap2\n      sub\n      swap1\n      revert\n    tag_106:\n        /* \"Contracts/twitter.sol\":2353:2354  0 */\n      0x00\n        /* \"Contracts/twitter.sol\":2326:2332  tweets */\n      dup1\n        /* \"Contracts/twitter.sol\":2326:2340  tweets[author] */\n      0x00\n        /* \"Contracts/twitter.sol\":2333:2339  author */\n      dup5\n        /* \"Contracts/twitter.sol\":2326:2340  tweets[author] */\n      0xffffffffffffffffffffffffffffffffffffffff\n      and\n      0xffffffffffffffffffffffffffffffffffffffff\n      and\n      dup2\n      mstore\n      0x20\n      add\n      swap1\n      dup2\n      mstore\n      0x20\n      add\n      0x00\n      keccak256\n        /* \"Contracts/twitter.sol\":2341:2343  id */\n      dup3\n        /* \"Contracts/twitter.sol\":2326:2344  tweets[author][id] */\n      dup2\n      sload\n      dup2\n      lt\n      tag_108\n      jumpi\n      tag_109\n      tag_63\n      jump\t// in\n    tag_109:\n    tag_108:\n      swap1\n      0x00\n      mstore\n      keccak256(0x00, 0x20)\n      swap1\n      0x05\n      mul\n      add\n        /* \"Contracts/twitter.sol\":2326:2350  tweets[author][id].likes */\n      0x04\n      add\n      sload\n        /* \"Contracts/twitter.sol\":2326:2354  tweets[author][id].likes > 0 */\n      gt\n        /* \"Contracts/twitter.sol\":2318:2375  require(tweets[author][id].likes > 0, \"There is no like\") */\n      tag_111\n      jumpi\n      mload(0x40)\n      0x08c379a000000000000000000000000000000000000000000000000000000000\n      dup2\n      mstore\n      0x04\n      add\n      tag_112\n      swap1\n      tag_113\n      jump\t// in\n    tag_112:\n      mload(0x40)\n      dup1\n      swap2\n      sub\n      swap1\n      revert\n    tag_111:\n        /* \"Contracts/twitter.sol\":2386:2392  tweets */\n      0x00\n        /* \"Contracts/twitter.sol\":2386:2400  tweets[author] */\n      dup1\n        /* \"Contracts/twitter.sol\":2393:2399  author */\n      dup4\n        /* \"Contracts/twitter.sol\":2386:2400  tweets[author] */\n      0xffffffffffffffffffffffffffffffffffffffff\n      and\n      0xffffffffffffffffffffffffffffffffffffffff\n      and\n      dup2\n      mstore\n      0x20\n      add\n      swap1\n      dup2\n      mstore\n      0x20\n      add\n      0x00\n      keccak256\n        /* \"Contracts/twitter.sol\":2401:2403  id */\n      dup2\n        /* \"Contracts/twitter.sol\":2386:2404  tweets[author][id] */\n      dup2\n      sload\n      dup2\n      lt\n      tag_114\n      jumpi\n      tag_115\n      tag_63\n      jump\t// in\n    tag_115:\n    tag_114:\n      swap1\n      0x00\n      mstore\n      keccak256(0x00, 0x20)\n      swap1\n      0x05\n      mul\n      add\n        /* \"Contracts/twitter.sol\":2386:2410  tweets[author][id].likes */\n      0x04\n      add\n      0x00\n        /* \"Contracts/twitter.sol\":2386:2412  tweets[author][id].likes-- */\n      dup2\n      sload\n      dup1\n      swap3\n      swap2\n      swap1\n      tag_117\n      swap1\n      tag_118\n      jump\t// in\n    tag_117:\n      swap2\n      swap1\n      pop\n      sstore\n      pop\n        /* \"Contracts/twitter.sol\":2428:2479  dislikedTweet(id, author, tweets[author][id].likes) */\n      0xeed56ddeda69fe36292ba71d25b72392fa35fb5ec6cbdaf12a490e469db31d2b\n        /* \"Contracts/twitter.sol\":2442:2444  id */\n      dup2\n        /* \"Contracts/twitter.sol\":2446:2452  author */\n      dup4\n        /* \"Contracts/twitter.sol\":2454:2460  tweets */\n      0x00\n        /* \"Contracts/twitter.sol\":2454:2468  tweets[author] */\n      dup1\n        /* \"Contracts/twitter.sol\":2461:2467  author */\n      dup7\n        /* \"Contracts/twitter.sol\":2454:2468  tweets[author] */\n      0xffffffffffffffffffffffffffffffffffffffff\n      and\n      0xffffffffffffffffffffffffffffffffffffffff\n      and\n      dup2\n      mstore\n      0x20\n      add\n      swap1\n      dup2\n      mstore\n      0x20\n      add\n      0x00\n      keccak256\n        /* \"Contracts/twitter.sol\":2469:2471  id */\n      dup5\n        /* \"Contracts/twitter.sol\":2454:2472  tweets[author][id] */\n      dup2\n      sload\n      dup2\n      lt\n      tag_119\n      jumpi\n      tag_120\n      tag_63\n      jump\t// in\n    tag_120:\n    tag_119:\n      swap1\n      0x00\n      mstore\n      keccak256(0x00, 0x20)\n      swap1\n      0x05\n      mul\n      add\n        /* \"Contracts/twitter.sol\":2454:2478  tweets[author][id].likes */\n      0x04\n      add\n      sload\n        /* \"Contracts/twitter.sol\":2428:2479  dislikedTweet(id, author, tweets[author][id].likes) */\n      mload(0x40)\n      tag_122\n      swap4\n      swap3\n      swap2\n      swap1\n      tag_77\n      jump\t// in\n    tag_122:\n      mload(0x40)\n      dup1\n      swap2\n      sub\n      swap1\n      log1\n        /* \"Contracts/twitter.sol\":2178:2487  function dislikeTweet(address author, uint256 id) external {... */\n      pop\n      pop\n      jump\t// out\n        /* \"Contracts/twitter.sol\":1562:1693  function getTweetAtIndex(address _owner, uint16 _i) public view returns (Tweet memory) {... */\n    tag_45:\n        /* \"Contracts/twitter.sol\":1635:1647  Tweet memory */\n      tag_123\n      tag_124\n      jump\t// in\n    tag_123:\n        /* \"Contracts/twitter.sol\":1667:1673  tweets */\n      0x00\n        /* \"Contracts/twitter.sol\":1667:1681  tweets[_owner] */\n      dup1\n        /* \"Contracts/twitter.sol\":1674:1680  _owner */\n      dup5\n        /* \"Contracts/twitter.sol\":1667:1681  tweets[_owner] */\n      0xffffffffffffffffffffffffffffffffffffffff\n      and\n      0xffffffffffffffffffffffffffffffffffffffff\n      and\n      dup2\n      mstore\n      0x20\n      add\n      swap1\n      dup2\n      mstore\n      0x20\n      add\n      0x00\n      keccak256\n        /* \"Contracts/twitter.sol\":1682:1684  _i */\n      dup3\n        /* \"Contracts/twitter.sol\":1667:1685  tweets[_owner][_i] */\n      0xffff\n      and\n      dup2\n      sload\n      dup2\n      lt\n      tag_126\n      jumpi\n      tag_127\n      tag_63\n      jump\t// in\n    tag_127:\n    tag_126:\n      swap1\n      0x00\n      mstore\n      keccak256(0x00, 0x20)\n      swap1\n      0x05\n      mul\n      add\n        /* \"Contracts/twitter.sol\":1660:1685  return tweets[_owner][_i] */\n      mload(0x40)\n      dup1\n      0xa0\n      add\n      0x40\n      mstore\n      swap1\n      dup2\n      0x00\n      dup3\n      add\n      sload\n      dup2\n      mstore\n      0x20\n      add\n      0x01\n      dup3\n      add\n      0x00\n      swap1\n      sload\n      swap1\n      0x0100\n      exp\n      swap1\n      div\n      0xffffffffffffffffffffffffffffffffffffffff\n      and\n      0xffffffffffffffffffffffffffffffffffffffff\n      and\n      0xffffffffffffffffffffffffffffffffffffffff\n      and\n      dup2\n      mstore\n      0x20\n      add\n      0x02\n      dup3\n      add\n      dup1\n      sload\n      tag_129\n      swap1\n      tag_55\n      jump\t// in\n    tag_129:\n      dup1\n      0x1f\n      add\n      0x20\n      dup1\n      swap2\n      div\n      mul\n      0x20\n      add\n      mload(0x40)\n      swap1\n      dup2\n      add\n      0x40\n      mstore\n      dup1\n      swap3\n      swap2\n      swap1\n      dup2\n      dup2\n      mstore\n      0x20\n      add\n      dup3\n      dup1\n      sload\n      tag_130\n      swap1\n      tag_55\n      jump\t// in\n    tag_130:\n      dup1\n      iszero\n      tag_131\n      jumpi\n      dup1\n      0x1f\n      lt\n      tag_132\n      jumpi\n      0x0100\n      dup1\n      dup4\n      sload\n      div\n      mul\n      dup4\n      mstore\n      swap2\n      0x20\n      add\n      swap2\n      jump(tag_131)\n    tag_132:\n      dup3\n      add\n      swap2\n      swap1\n      0x00\n      mstore\n      keccak256(0x00, 0x20)\n      swap1\n    tag_133:\n      dup2\n      sload\n      dup2\n      mstore\n      swap1\n      0x01\n      add\n      swap1\n      0x20\n      add\n      dup1\n      dup4\n      gt\n      tag_133\n      jumpi\n      dup3\n      swap1\n      sub\n      0x1f\n      and\n      dup3\n      add\n      swap2\n    tag_131:\n      pop\n      pop\n      pop\n      pop\n      pop\n      dup2\n      mstore\n      0x20\n      add\n      0x03\n      dup3\n      add\n      sload\n      dup2\n      mstore\n      0x20\n      add\n      0x04\n      dup3\n      add\n      sload\n      dup2\n      mstore\n      pop\n      pop\n      swap1\n      pop\n        /* \"Contracts/twitter.sol\":1562:1693  function getTweetAtIndex(address _owner, uint16 _i) public view returns (Tweet memory) {... */\n      swap3\n      swap2\n      pop\n      pop\n      jump\t// out\n        /* \"Contracts/twitter.sol\":790:899  function changeMaxTweet(uint16 inputLength) public onlyOwner{... */\n    tag_51:\n        /* \"Contracts/twitter.sol\":726:736  msg.sender */\n      caller\n        /* \"Contracts/twitter.sol\":719:736  owner==msg.sender */\n      0xffffffffffffffffffffffffffffffffffffffff\n      and\n        /* \"Contracts/twitter.sol\":719:724  owner */\n      0x01\n      0x02\n      swap1\n      sload\n      swap1\n      0x0100\n      exp\n      swap1\n      div\n      0xffffffffffffffffffffffffffffffffffffffff\n      and\n        /* \"Contracts/twitter.sol\":719:736  owner==msg.sender */\n      0xffffffffffffffffffffffffffffffffffffffff\n      and\n      eq\n        /* \"Contracts/twitter.sol\":711:762  require(owner==msg.sender, \"You are not the owner\") */\n      tag_135\n      jumpi\n      mload(0x40)\n      0x08c379a000000000000000000000000000000000000000000000000000000000\n      dup2\n      mstore\n      0x04\n      add\n      tag_136\n      swap1\n      tag_137\n      jump\t// in\n    tag_136:\n      mload(0x40)\n      dup1\n      swap2\n      sub\n      swap1\n      revert\n    tag_135:\n        /* \"Contracts/twitter.sol\":880:891  inputLength */\n      dup1\n        /* \"Contracts/twitter.sol\":861:877  MAX_TWEET_LENGTH */\n      0x01\n      0x00\n        /* \"Contracts/twitter.sol\":861:891  MAX_TWEET_LENGTH = inputLength */\n      0x0100\n      exp\n      dup2\n      sload\n      dup2\n      0xffff\n      mul\n      not\n      and\n      swap1\n      dup4\n      0xffff\n      and\n      mul\n      or\n      swap1\n      sstore\n      pop\n        /* \"Contracts/twitter.sol\":790:899  function changeMaxTweet(uint16 inputLength) public onlyOwner{... */\n      pop\n      jump\t// out\n    tag_101:\n      pop\n      dup1\n      sload\n      tag_139\n      swap1\n      tag_55\n      jump\t// in\n    tag_139:\n      0x00\n      dup3\n      sstore\n      dup1\n      0x1f\n      lt\n      tag_141\n      jumpi\n      pop\n      jump(tag_140)\n    tag_141:\n      0x1f\n      add\n      0x20\n      swap1\n      div\n      swap1\n      0x00\n      mstore\n      keccak256(0x00, 0x20)\n      swap1\n      dup2\n      add\n      swap1\n      tag_142\n      swap2\n      swap1\n      tag_143\n      jump\t// in\n    tag_142:\n    tag_140:\n      pop\n      jump\t// out\n    tag_124:\n      mload(0x40)\n      dup1\n      0xa0\n      add\n      0x40\n      mstore\n      dup1\n      0x00\n      dup2\n      mstore\n      0x20\n      add\n      and(0xffffffffffffffffffffffffffffffffffffffff, 0x00)\n      dup2\n      mstore\n      0x20\n      add\n      0x60\n      dup2\n      mstore\n      0x20\n      add\n      0x00\n      dup2\n      mstore\n      0x20\n      add\n      0x00\n      dup2\n      mstore\n      pop\n      swap1\n      jump\t// out\n    tag_143:\n    tag_144:\n      dup1\n      dup3\n      gt\n      iszero\n      tag_145\n      jumpi\n      0x00\n      dup2\n      0x00\n      swap1\n      sstore\n      pop\n      0x01\n      add\n      jump(tag_144)\n    tag_145:\n      pop\n      swap1\n      jump\t// out\n        /* \"#utility.yul\":7:82   */\n    tag_146:\n        /* \"#utility.yul\":40:46   */\n      0x00\n        /* \"#utility.yul\":73:75   */\n      0x40\n        /* \"#utility.yul\":67:76   */\n      mload\n        /* \"#utility.yul\":57:76   */\n      swap1\n      pop\n        /* \"#utility.yul\":7:82   */\n      swap1\n      jump\t// out\n        /* \"#utility.yul\":88:205   */\n    tag_147:\n        /* \"#utility.yul\":197:198   */\n      0x00\n        /* \"#utility.yul\":194:195   */\n      dup1\n        /* \"#utility.yul\":187:199   */\n      revert\n        /* \"#utility.yul\":211:328   */\n    tag_148:\n        /* \"#utility.yul\":320:321   */\n      0x00\n        /* \"#utility.yul\":317:318   */\n      dup1\n        /* \"#utility.yul\":310:322   */\n      revert\n        /* \"#utility.yul\":334:460   */\n    tag_149:\n        /* \"#utility.yul\":371:378   */\n      0x00\n        /* \"#utility.yul\":411:453   */\n      0xffffffffffffffffffffffffffffffffffffffff\n        /* \"#utility.yul\":404:409   */\n      dup3\n        /* \"#utility.yul\":400:454   */\n      and\n        /* \"#utility.yul\":389:454   */\n      swap1\n      pop\n        /* \"#utility.yul\":334:460   */\n      swap2\n      swap1\n      pop\n      jump\t// out\n        /* \"#utility.yul\":466:562   */\n    tag_150:\n        /* \"#utility.yul\":503:510   */\n      0x00\n        /* \"#utility.yul\":532:556   */\n      tag_219\n        /* \"#utility.yul\":550:555   */\n      dup3\n        /* \"#utility.yul\":532:556   */\n      tag_149\n      jump\t// in\n    tag_219:\n        /* \"#utility.yul\":521:556   */\n      swap1\n      pop\n        /* \"#utility.yul\":466:562   */\n      swap2\n      swap1\n      pop\n      jump\t// out\n        /* \"#utility.yul\":568:690   */\n    tag_151:\n        /* \"#utility.yul\":641:665   */\n      tag_221\n        /* \"#utility.yul\":659:664   */\n      dup2\n        /* \"#utility.yul\":641:665   */\n      tag_150\n      jump\t// in\n    tag_221:\n        /* \"#utility.yul\":634:639   */\n      dup2\n        /* \"#utility.yul\":631:666   */\n      eq\n        /* \"#utility.yul\":621:684   */\n      tag_222\n      jumpi\n        /* \"#utility.yul\":680:681   */\n      0x00\n        /* \"#utility.yul\":677:678   */\n      dup1\n        /* \"#utility.yul\":670:682   */\n      revert\n        /* \"#utility.yul\":621:684   */\n    tag_222:\n        /* \"#utility.yul\":568:690   */\n      pop\n      jump\t// out\n        /* \"#utility.yul\":696:835   */\n    tag_152:\n        /* \"#utility.yul\":742:747   */\n      0x00\n        /* \"#utility.yul\":780:786   */\n      dup2\n        /* \"#utility.yul\":767:787   */\n      calldataload\n        /* \"#utility.yul\":758:787   */\n      swap1\n      pop\n        /* \"#utility.yul\":796:829   */\n      tag_224\n        /* \"#utility.yul\":823:828   */\n      dup2\n        /* \"#utility.yul\":796:829   */\n      tag_151\n      jump\t// in\n    tag_224:\n        /* \"#utility.yul\":696:835   */\n      swap3\n      swap2\n      pop\n      pop\n      jump\t// out\n        /* \"#utility.yul\":841:918   */\n    tag_153:\n        /* \"#utility.yul\":878:885   */\n      0x00\n        /* \"#utility.yul\":907:912   */\n      dup2\n        /* \"#utility.yul\":896:912   */\n      swap1\n      pop\n        /* \"#utility.yul\":841:918   */\n      swap2\n      swap1\n      pop\n      jump\t// out\n        /* \"#utility.yul\":924:1046   */\n    tag_154:\n        /* \"#utility.yul\":997:1021   */\n      tag_227\n        /* \"#utility.yul\":1015:1020   */\n      dup2\n        /* \"#utility.yul\":997:1021   */\n      tag_153\n      jump\t// in\n    tag_227:\n        /* \"#utility.yul\":990:995   */\n      dup2\n        /* \"#utility.yul\":987:1022   */\n      eq\n        /* \"#utility.yul\":977:1040   */\n      tag_228\n      jumpi\n        /* \"#utility.yul\":1036:1037   */\n      0x00\n        /* \"#utility.yul\":1033:1034   */\n      dup1\n        /* \"#utility.yul\":1026:1038   */\n      revert\n        /* \"#utility.yul\":977:1040   */\n    tag_228:\n        /* \"#utility.yul\":924:1046   */\n      pop\n      jump\t// out\n        /* \"#utility.yul\":1052:1191   */\n    tag_155:\n        /* \"#utility.yul\":1098:1103   */\n      0x00\n        /* \"#utility.yul\":1136:1142   */\n      dup2\n        /* \"#utility.yul\":1123:1143   */\n      calldataload\n        /* \"#utility.yul\":1114:1143   */\n      swap1\n      pop\n        /* \"#utility.yul\":1152:1185   */\n      tag_230\n        /* \"#utility.yul\":1179:1184   */\n      dup2\n        /* \"#utility.yul\":1152:1185   */\n      tag_154\n      jump\t// in\n    tag_230:\n        /* \"#utility.yul\":1052:1191   */\n      swap3\n      swap2\n      pop\n      pop\n      jump\t// out\n        /* \"#utility.yul\":1197:1671   */\n    tag_15:\n        /* \"#utility.yul\":1265:1271   */\n      0x00\n        /* \"#utility.yul\":1273:1279   */\n      dup1\n        /* \"#utility.yul\":1322:1324   */\n      0x40\n        /* \"#utility.yul\":1310:1319   */\n      dup4\n        /* \"#utility.yul\":1301:1308   */\n      dup6\n        /* \"#utility.yul\":1297:1320   */\n      sub\n        /* \"#utility.yul\":1293:1325   */\n      slt\n        /* \"#utility.yul\":1290:1409   */\n      iszero\n      tag_232\n      jumpi\n        /* \"#utility.yul\":1328:1407   */\n      tag_233\n      tag_147\n      jump\t// in\n    tag_233:\n        /* \"#utility.yul\":1290:1409   */\n    tag_232:\n        /* \"#utility.yul\":1448:1449   */\n      0x00\n        /* \"#utility.yul\":1473:1526   */\n      tag_234\n        /* \"#utility.yul\":1518:1525   */\n      dup6\n        /* \"#utility.yul\":1509:1515   */\n      dup3\n        /* \"#utility.yul\":1498:1507   */\n      dup7\n        /* \"#utility.yul\":1494:1516   */\n      add\n        /* \"#utility.yul\":1473:1526   */\n      tag_152\n      jump\t// in\n    tag_234:\n        /* \"#utility.yul\":1463:1526   */\n      swap3\n      pop\n        /* \"#utility.yul\":1419:1536   */\n      pop\n        /* \"#utility.yul\":1575:1577   */\n      0x20\n        /* \"#utility.yul\":1601:1654   */\n      tag_235\n        /* \"#utility.yul\":1646:1653   */\n      dup6\n        /* \"#utility.yul\":1637:1643   */\n      dup3\n        /* \"#utility.yul\":1626:1635   */\n      dup7\n        /* \"#utility.yul\":1622:1644   */\n      add\n        /* \"#utility.yul\":1601:1654   */\n      tag_155\n      jump\t// in\n    tag_235:\n        /* \"#utility.yul\":1591:1654   */\n      swap2\n      pop\n        /* \"#utility.yul\":1546:1664   */\n      pop\n        /* \"#utility.yul\":1197:1671   */\n      swap3\n      pop\n      swap3\n      swap1\n      pop\n      jump\t// out\n        /* \"#utility.yul\":1677:1795   */\n    tag_156:\n        /* \"#utility.yul\":1764:1788   */\n      tag_237\n        /* \"#utility.yul\":1782:1787   */\n      dup2\n        /* \"#utility.yul\":1764:1788   */\n      tag_153\n      jump\t// in\n    tag_237:\n        /* \"#utility.yul\":1759:1762   */\n      dup3\n        /* \"#utility.yul\":1752:1789   */\n      mstore\n        /* \"#utility.yul\":1677:1795   */\n      pop\n      pop\n      jump\t// out\n        /* \"#utility.yul\":1801:1919   */\n    tag_157:\n        /* \"#utility.yul\":1888:1912   */\n      tag_239\n        /* \"#utility.yul\":1906:1911   */\n      dup2\n        /* \"#utility.yul\":1888:1912   */\n      tag_150\n      jump\t// in\n    tag_239:\n        /* \"#utility.yul\":1883:1886   */\n      dup3\n        /* \"#utility.yul\":1876:1913   */\n      mstore\n        /* \"#utility.yul\":1801:1919   */\n      pop\n      pop\n      jump\t// out\n        /* \"#utility.yul\":1925:2024   */\n    tag_158:\n        /* \"#utility.yul\":1977:1983   */\n      0x00\n        /* \"#utility.yul\":2011:2016   */\n      dup2\n        /* \"#utility.yul\":2005:2017   */\n      mload\n        /* \"#utility.yul\":1995:2017   */\n      swap1\n      pop\n        /* \"#utility.yul\":1925:2024   */\n      swap2\n      swap1\n      pop\n      jump\t// out\n        /* \"#utility.yul\":2030:2199   */\n    tag_159:\n        /* \"#utility.yul\":2114:2125   */\n      0x00\n        /* \"#utility.yul\":2148:2154   */\n      dup3\n        /* \"#utility.yul\":2143:2146   */\n      dup3\n        /* \"#utility.yul\":2136:2155   */\n      mstore\n        /* \"#utility.yul\":2188:2192   */\n      0x20\n        /* \"#utility.yul\":2183:2186   */\n      dup3\n        /* \"#utility.yul\":2179:2193   */\n      add\n        /* \"#utility.yul\":2164:2193   */\n      swap1\n      pop\n        /* \"#utility.yul\":2030:2199   */\n      swap3\n      swap2\n      pop\n      pop\n      jump\t// out\n        /* \"#utility.yul\":2205:2451   */\n    tag_160:\n        /* \"#utility.yul\":2286:2287   */\n      0x00\n        /* \"#utility.yul\":2296:2409   */\n    tag_243:\n        /* \"#utility.yul\":2310:2316   */\n      dup4\n        /* \"#utility.yul\":2307:2308   */\n      dup2\n        /* \"#utility.yul\":2304:2317   */\n      lt\n        /* \"#utility.yul\":2296:2409   */\n      iszero\n      tag_245\n      jumpi\n        /* \"#utility.yul\":2395:2396   */\n      dup1\n        /* \"#utility.yul\":2390:2393   */\n      dup3\n        /* \"#utility.yul\":2386:2397   */\n      add\n        /* \"#utility.yul\":2380:2398   */\n      mload\n        /* \"#utility.yul\":2376:2377   */\n      dup2\n        /* \"#utility.yul\":2371:2374   */\n      dup5\n        /* \"#utility.yul\":2367:2378   */\n      add\n        /* \"#utility.yul\":2360:2399   */\n      mstore\n        /* \"#utility.yul\":2332:2334   */\n      0x20\n        /* \"#utility.yul\":2329:2330   */\n      dup2\n        /* \"#utility.yul\":2325:2335   */\n      add\n        /* \"#utility.yul\":2320:2335   */\n      swap1\n      pop\n        /* \"#utility.yul\":2296:2409   */\n      jump(tag_243)\n    tag_245:\n        /* \"#utility.yul\":2443:2444   */\n      0x00\n        /* \"#utility.yul\":2434:2440   */\n      dup5\n        /* \"#utility.yul\":2429:2432   */\n      dup5\n        /* \"#utility.yul\":2425:2441   */\n      add\n        /* \"#utility.yul\":2418:2445   */\n      mstore\n        /* \"#utility.yul\":2267:2451   */\n      pop\n        /* \"#utility.yul\":2205:2451   */\n      pop\n      pop\n      pop\n      jump\t// out\n        /* \"#utility.yul\":2457:2559   */\n    tag_161:\n        /* \"#utility.yul\":2498:2504   */\n      0x00\n        /* \"#utility.yul\":2549:2551   */\n      0x1f\n        /* \"#utility.yul\":2545:2552   */\n      not\n        /* \"#utility.yul\":2540:2542   */\n      0x1f\n        /* \"#utility.yul\":2533:2538   */\n      dup4\n        /* \"#utility.yul\":2529:2543   */\n      add\n        /* \"#utility.yul\":2525:2553   */\n      and\n        /* \"#utility.yul\":2515:2553   */\n      swap1\n      pop\n        /* \"#utility.yul\":2457:2559   */\n      swap2\n      swap1\n      pop\n      jump\t// out\n        /* \"#utility.yul\":2565:2942   */\n    tag_162:\n        /* \"#utility.yul\":2653:2656   */\n      0x00\n        /* \"#utility.yul\":2681:2720   */\n      tag_248\n        /* \"#utility.yul\":2714:2719   */\n      dup3\n        /* \"#utility.yul\":2681:2720   */\n      tag_158\n      jump\t// in\n    tag_248:\n        /* \"#utility.yul\":2736:2807   */\n      tag_249\n        /* \"#utility.yul\":2800:2806   */\n      dup2\n        /* \"#utility.yul\":2795:2798   */\n      dup6\n        /* \"#utility.yul\":2736:2807   */\n      tag_159\n      jump\t// in\n    tag_249:\n        /* \"#utility.yul\":2729:2807   */\n      swap4\n      pop\n        /* \"#utility.yul\":2816:2881   */\n      tag_250\n        /* \"#utility.yul\":2874:2880   */\n      dup2\n        /* \"#utility.yul\":2869:2872   */\n      dup6\n        /* \"#utility.yul\":2862:2866   */\n      0x20\n        /* \"#utility.yul\":2855:2860   */\n      dup7\n        /* \"#utility.yul\":2851:2867   */\n      add\n        /* \"#utility.yul\":2816:2881   */\n      tag_160\n      jump\t// in\n    tag_250:\n        /* \"#utility.yul\":2906:2935   */\n      tag_251\n        /* \"#utility.yul\":2928:2934   */\n      dup2\n        /* \"#utility.yul\":2906:2935   */\n      tag_161\n      jump\t// in\n    tag_251:\n        /* \"#utility.yul\":2901:2904   */\n      dup5\n        /* \"#utility.yul\":2897:2936   */\n      add\n        /* \"#utility.yul\":2890:2936   */\n      swap2\n      pop\n        /* \"#utility.yul\":2657:2942   */\n      pop\n        /* \"#utility.yul\":2565:2942   */\n      swap3\n      swap2\n      pop\n      pop\n      jump\t// out\n        /* \"#utility.yul\":2948:3703   */\n    tag_18:\n        /* \"#utility.yul\":3173:3177   */\n      0x00\n        /* \"#utility.yul\":3211:3214   */\n      0xa0\n        /* \"#utility.yul\":3200:3209   */\n      dup3\n        /* \"#utility.yul\":3196:3215   */\n      add\n        /* \"#utility.yul\":3188:3215   */\n      swap1\n      pop\n        /* \"#utility.yul\":3225:3296   */\n      tag_253\n        /* \"#utility.yul\":3293:3294   */\n      0x00\n        /* \"#utility.yul\":3282:3291   */\n      dup4\n        /* \"#utility.yul\":3278:3295   */\n      add\n        /* \"#utility.yul\":3269:3275   */\n      dup9\n        /* \"#utility.yul\":3225:3296   */\n      tag_156\n      jump\t// in\n    tag_253:\n        /* \"#utility.yul\":3306:3378   */\n      tag_254\n        /* \"#utility.yul\":3374:3376   */\n      0x20\n        /* \"#utility.yul\":3363:3372   */\n      dup4\n        /* \"#utility.yul\":3359:3377   */\n      add\n        /* \"#utility.yul\":3350:3356   */\n      dup8\n        /* \"#utility.yul\":3306:3378   */\n      tag_157\n      jump\t// in\n    tag_254:\n        /* \"#utility.yul\":3425:3434   */\n      dup2\n        /* \"#utility.yul\":3419:3423   */\n      dup2\n        /* \"#utility.yul\":3415:3435   */\n      sub\n        /* \"#utility.yul\":3410:3412   */\n      0x40\n        /* \"#utility.yul\":3399:3408   */\n      dup4\n        /* \"#utility.yul\":3395:3413   */\n      add\n        /* \"#utility.yul\":3388:3436   */\n      mstore\n        /* \"#utility.yul\":3453:3531   */\n      tag_255\n        /* \"#utility.yul\":3526:3530   */\n      dup2\n        /* \"#utility.yul\":3517:3523   */\n      dup7\n        /* \"#utility.yul\":3453:3531   */\n      tag_162\n      jump\t// in\n    tag_255:\n        /* \"#utility.yul\":3445:3531   */\n      swap1\n      pop\n        /* \"#utility.yul\":3541:3613   */\n      tag_256\n        /* \"#utility.yul\":3609:3611   */\n      0x60\n        /* \"#utility.yul\":3598:3607   */\n      dup4\n        /* \"#utility.yul\":3594:3612   */\n      add\n        /* \"#utility.yul\":3585:3591   */\n      dup6\n        /* \"#utility.yul\":3541:3613   */\n      tag_156\n      jump\t// in\n    tag_256:\n        /* \"#utility.yul\":3623:3696   */\n      tag_257\n        /* \"#utility.yul\":3691:3694   */\n      0x80\n        /* \"#utility.yul\":3680:3689   */\n      dup4\n        /* \"#utility.yul\":3676:3695   */\n      add\n        /* \"#utility.yul\":3667:3673   */\n      dup5\n        /* \"#utility.yul\":3623:3696   */\n      tag_156\n      jump\t// in\n    tag_257:\n        /* \"#utility.yul\":2948:3703   */\n      swap7\n      swap6\n      pop\n      pop\n      pop\n      pop\n      pop\n      pop\n      jump\t// out\n        /* \"#utility.yul\":3709:3798   */\n    tag_163:\n        /* \"#utility.yul\":3745:3752   */\n      0x00\n        /* \"#utility.yul\":3785:3791   */\n      0xffff\n        /* \"#utility.yul\":3778:3783   */\n      dup3\n        /* \"#utility.yul\":3774:3792   */\n      and\n        /* \"#utility.yul\":3763:3792   */\n      swap1\n      pop\n        /* \"#utility.yul\":3709:3798   */\n      swap2\n      swap1\n      pop\n      jump\t// out\n        /* \"#utility.yul\":3804:3919   */\n    tag_164:\n        /* \"#utility.yul\":3889:3912   */\n      tag_260\n        /* \"#utility.yul\":3906:3911   */\n      dup2\n        /* \"#utility.yul\":3889:3912   */\n      tag_163\n      jump\t// in\n    tag_260:\n        /* \"#utility.yul\":3884:3887   */\n      dup3\n        /* \"#utility.yul\":3877:3913   */\n      mstore\n        /* \"#utility.yul\":3804:3919   */\n      pop\n      pop\n      jump\t// out\n        /* \"#utility.yul\":3925:4143   */\n    tag_25:\n        /* \"#utility.yul\":4016:4020   */\n      0x00\n        /* \"#utility.yul\":4054:4056   */\n      0x20\n        /* \"#utility.yul\":4043:4052   */\n      dup3\n        /* \"#utility.yul\":4039:4057   */\n      add\n        /* \"#utility.yul\":4031:4057   */\n      swap1\n      pop\n        /* \"#utility.yul\":4067:4136   */\n      tag_262\n        /* \"#utility.yul\":4133:4134   */\n      0x00\n        /* \"#utility.yul\":4122:4131   */\n      dup4\n        /* \"#utility.yul\":4118:4135   */\n      add\n        /* \"#utility.yul\":4109:4115   */\n      dup5\n        /* \"#utility.yul\":4067:4136   */\n      tag_164\n      jump\t// in\n    tag_262:\n        /* \"#utility.yul\":3925:4143   */\n      swap3\n      swap2\n      pop\n      pop\n      jump\t// out\n        /* \"#utility.yul\":4149:4266   */\n    tag_165:\n        /* \"#utility.yul\":4258:4259   */\n      0x00\n        /* \"#utility.yul\":4255:4256   */\n      dup1\n        /* \"#utility.yul\":4248:4260   */\n      revert\n        /* \"#utility.yul\":4272:4389   */\n    tag_166:\n        /* \"#utility.yul\":4381:4382   */\n      0x00\n        /* \"#utility.yul\":4378:4379   */\n      dup1\n        /* \"#utility.yul\":4371:4383   */\n      revert\n        /* \"#utility.yul\":4395:4575   */\n    tag_167:\n        /* \"#utility.yul\":4443:4520   */\n      0x4e487b7100000000000000000000000000000000000000000000000000000000\n        /* \"#utility.yul\":4440:4441   */\n      0x00\n        /* \"#utility.yul\":4433:4521   */\n      mstore\n        /* \"#utility.yul\":4540:4544   */\n      0x41\n        /* \"#utility.yul\":4537:4538   */\n      0x04\n        /* \"#utility.yul\":4530:4545   */\n      mstore\n        /* \"#utility.yul\":4564:4568   */\n      0x24\n        /* \"#utility.yul\":4561:4562   */\n      0x00\n        /* \"#utility.yul\":4554:4569   */\n      revert\n        /* \"#utility.yul\":4581:4862   */\n    tag_168:\n        /* \"#utility.yul\":4664:4691   */\n      tag_267\n        /* \"#utility.yul\":4686:4690   */\n      dup3\n        /* \"#utility.yul\":4664:4691   */\n      tag_161\n      jump\t// in\n    tag_267:\n        /* \"#utility.yul\":4656:4662   */\n      dup2\n        /* \"#utility.yul\":4652:4692   */\n      add\n        /* \"#utility.yul\":4794:4800   */\n      dup2\n        /* \"#utility.yul\":4782:4792   */\n      dup2\n        /* \"#utility.yul\":4779:4801   */\n      lt\n        /* \"#utility.yul\":4758:4776   */\n      0xffffffffffffffff\n        /* \"#utility.yul\":4746:4756   */\n      dup3\n        /* \"#utility.yul\":4743:4777   */\n      gt\n        /* \"#utility.yul\":4740:4802   */\n      or\n        /* \"#utility.yul\":4737:4825   */\n      iszero\n      tag_268\n      jumpi\n        /* \"#utility.yul\":4805:4823   */\n      tag_269\n      tag_167\n      jump\t// in\n    tag_269:\n        /* \"#utility.yul\":4737:4825   */\n    tag_268:\n        /* \"#utility.yul\":4845:4855   */\n      dup1\n        /* \"#utility.yul\":4841:4843   */\n      0x40\n        /* \"#utility.yul\":4834:4856   */\n      mstore\n        /* \"#utility.yul\":4624:4862   */\n      pop\n        /* \"#utility.yul\":4581:4862   */\n      pop\n      pop\n      jump\t// out\n        /* \"#utility.yul\":4868:4997   */\n    tag_169:\n        /* \"#utility.yul\":4902:4908   */\n      0x00\n        /* \"#utility.yul\":4929:4949   */\n      tag_271\n      tag_146\n      jump\t// in\n    tag_271:\n        /* \"#utility.yul\":4919:4949   */\n      swap1\n      pop\n        /* \"#utility.yul\":4958:4991   */\n      tag_272\n        /* \"#utility.yul\":4986:4990   */\n      dup3\n        /* \"#utility.yul\":4978:4984   */\n      dup3\n        /* \"#utility.yul\":4958:4991   */\n      tag_168\n      jump\t// in\n    tag_272:\n        /* \"#utility.yul\":4868:4997   */\n      swap2\n      swap1\n      pop\n      jump\t// out\n        /* \"#utility.yul\":5003:5311   */\n    tag_170:\n        /* \"#utility.yul\":5065:5069   */\n      0x00\n        /* \"#utility.yul\":5155:5173   */\n      0xffffffffffffffff\n        /* \"#utility.yul\":5147:5153   */\n      dup3\n        /* \"#utility.yul\":5144:5174   */\n      gt\n        /* \"#utility.yul\":5141:5197   */\n      iszero\n      tag_274\n      jumpi\n        /* \"#utility.yul\":5177:5195   */\n      tag_275\n      tag_167\n      jump\t// in\n    tag_275:\n        /* \"#utility.yul\":5141:5197   */\n    tag_274:\n        /* \"#utility.yul\":5215:5244   */\n      tag_276\n        /* \"#utility.yul\":5237:5243   */\n      dup3\n        /* \"#utility.yul\":5215:5244   */\n      tag_161\n      jump\t// in\n    tag_276:\n        /* \"#utility.yul\":5207:5244   */\n      swap1\n      pop\n        /* \"#utility.yul\":5299:5303   */\n      0x20\n        /* \"#utility.yul\":5293:5297   */\n      dup2\n        /* \"#utility.yul\":5289:5304   */\n      add\n        /* \"#utility.yul\":5281:5304   */\n      swap1\n      pop\n        /* \"#utility.yul\":5003:5311   */\n      swap2\n      swap1\n      pop\n      jump\t// out\n        /* \"#utility.yul\":5317:5463   */\n    tag_171:\n        /* \"#utility.yul\":5414:5420   */\n      dup3\n        /* \"#utility.yul\":5409:5412   */\n      dup2\n        /* \"#utility.yul\":5404:5407   */\n      dup4\n        /* \"#utility.yul\":5391:5421   */\n      calldatacopy\n        /* \"#utility.yul\":5455:5456   */\n      0x00\n        /* \"#utility.yul\":5446:5452   */\n      dup4\n        /* \"#utility.yul\":5441:5444   */\n      dup4\n        /* \"#utility.yul\":5437:5453   */\n      add\n        /* \"#utility.yul\":5430:5457   */\n      mstore\n        /* \"#utility.yul\":5317:5463   */\n      pop\n      pop\n      pop\n      jump\t// out\n        /* \"#utility.yul\":5469:5894   */\n    tag_172:\n        /* \"#utility.yul\":5547:5552   */\n      0x00\n        /* \"#utility.yul\":5572:5638   */\n      tag_279\n        /* \"#utility.yul\":5588:5637   */\n      tag_280\n        /* \"#utility.yul\":5630:5636   */\n      dup5\n        /* \"#utility.yul\":5588:5637   */\n      tag_170\n      jump\t// in\n    tag_280:\n        /* \"#utility.yul\":5572:5638   */\n      tag_169\n      jump\t// in\n    tag_279:\n        /* \"#utility.yul\":5563:5638   */\n      swap1\n      pop\n        /* \"#utility.yul\":5661:5667   */\n      dup3\n        /* \"#utility.yul\":5654:5659   */\n      dup2\n        /* \"#utility.yul\":5647:5668   */\n      mstore\n        /* \"#utility.yul\":5699:5703   */\n      0x20\n        /* \"#utility.yul\":5692:5697   */\n      dup2\n        /* \"#utility.yul\":5688:5704   */\n      add\n        /* \"#utility.yul\":5737:5740   */\n      dup5\n        /* \"#utility.yul\":5728:5734   */\n      dup5\n        /* \"#utility.yul\":5723:5726   */\n      dup5\n        /* \"#utility.yul\":5719:5735   */\n      add\n        /* \"#utility.yul\":5716:5741   */\n      gt\n        /* \"#utility.yul\":5713:5825   */\n      iszero\n      tag_281\n      jumpi\n        /* \"#utility.yul\":5744:5823   */\n      tag_282\n      tag_166\n      jump\t// in\n    tag_282:\n        /* \"#utility.yul\":5713:5825   */\n    tag_281:\n        /* \"#utility.yul\":5834:5888   */\n      tag_283\n        /* \"#utility.yul\":5881:5887   */\n      dup5\n        /* \"#utility.yul\":5876:5879   */\n      dup3\n        /* \"#utility.yul\":5871:5874   */\n      dup6\n        /* \"#utility.yul\":5834:5888   */\n      tag_171\n      jump\t// in\n    tag_283:\n        /* \"#utility.yul\":5553:5894   */\n      pop\n        /* \"#utility.yul\":5469:5894   */\n      swap4\n      swap3\n      pop\n      pop\n      pop\n      jump\t// out\n        /* \"#utility.yul\":5914:6254   */\n    tag_173:\n        /* \"#utility.yul\":5970:5975   */\n      0x00\n        /* \"#utility.yul\":6019:6022   */\n      dup3\n        /* \"#utility.yul\":6012:6016   */\n      0x1f\n        /* \"#utility.yul\":6004:6010   */\n      dup4\n        /* \"#utility.yul\":6000:6017   */\n      add\n        /* \"#utility.yul\":5996:6023   */\n      slt\n        /* \"#utility.yul\":5986:6108   */\n      tag_285\n      jumpi\n        /* \"#utility.yul\":6027:6106   */\n      tag_286\n      tag_165\n      jump\t// in\n    tag_286:\n        /* \"#utility.yul\":5986:6108   */\n    tag_285:\n        /* \"#utility.yul\":6144:6150   */\n      dup2\n        /* \"#utility.yul\":6131:6151   */\n      calldataload\n        /* \"#utility.yul\":6169:6248   */\n      tag_287\n        /* \"#utility.yul\":6244:6247   */\n      dup5\n        /* \"#utility.yul\":6236:6242   */\n      dup3\n        /* \"#utility.yul\":6229:6233   */\n      0x20\n        /* \"#utility.yul\":6221:6227   */\n      dup7\n        /* \"#utility.yul\":6217:6234   */\n      add\n        /* \"#utility.yul\":6169:6248   */\n      tag_172\n      jump\t// in\n    tag_287:\n        /* \"#utility.yul\":6160:6248   */\n      swap2\n      pop\n        /* \"#utility.yul\":5976:6254   */\n      pop\n        /* \"#utility.yul\":5914:6254   */\n      swap3\n      swap2\n      pop\n      pop\n      jump\t// out\n        /* \"#utility.yul\":6260:6769   */\n    tag_28:\n        /* \"#utility.yul\":6329:6335   */\n      0x00\n        /* \"#utility.yul\":6378:6380   */\n      0x20\n        /* \"#utility.yul\":6366:6375   */\n      dup3\n        /* \"#utility.yul\":6357:6364   */\n      dup5\n        /* \"#utility.yul\":6353:6376   */\n      sub\n        /* \"#utility.yul\":6349:6381   */\n      slt\n        /* \"#utility.yul\":6346:6465   */\n      iszero\n      tag_289\n      jumpi\n        /* \"#utility.yul\":6384:6463   */\n      tag_290\n      tag_147\n      jump\t// in\n    tag_290:\n        /* \"#utility.yul\":6346:6465   */\n    tag_289:\n        /* \"#utility.yul\":6532:6533   */\n      0x00\n        /* \"#utility.yul\":6521:6530   */\n      dup3\n        /* \"#utility.yul\":6517:6534   */\n      add\n        /* \"#utility.yul\":6504:6535   */\n      calldataload\n        /* \"#utility.yul\":6562:6580   */\n      0xffffffffffffffff\n        /* \"#utility.yul\":6554:6560   */\n      dup2\n        /* \"#utility.yul\":6551:6581   */\n      gt\n        /* \"#utility.yul\":6548:6665   */\n      iszero\n      tag_291\n      jumpi\n        /* \"#utility.yul\":6584:6663   */\n      tag_292\n      tag_148\n      jump\t// in\n    tag_292:\n        /* \"#utility.yul\":6548:6665   */\n    tag_291:\n        /* \"#utility.yul\":6689:6752   */\n      tag_293\n        /* \"#utility.yul\":6744:6751   */\n      dup5\n        /* \"#utility.yul\":6735:6741   */\n      dup3\n        /* \"#utility.yul\":6724:6733   */\n      dup6\n        /* \"#utility.yul\":6720:6742   */\n      add\n        /* \"#utility.yul\":6689:6752   */\n      tag_173\n      jump\t// in\n    tag_293:\n        /* \"#utility.yul\":6679:6752   */\n      swap2\n      pop\n        /* \"#utility.yul\":6475:6762   */\n      pop\n        /* \"#utility.yul\":6260:6769   */\n      swap3\n      swap2\n      pop\n      pop\n      jump\t// out\n        /* \"#utility.yul\":6775:7104   */\n    tag_32:\n        /* \"#utility.yul\":6834:6840   */\n      0x00\n        /* \"#utility.yul\":6883:6885   */\n      0x20\n        /* \"#utility.yul\":6871:6880   */\n      dup3\n        /* \"#utility.yul\":6862:6869   */\n      dup5\n        /* \"#utility.yul\":6858:6881   */\n      sub\n        /* \"#utility.yul\":6854:6886   */\n      slt\n        /* \"#utility.yul\":6851:6970   */\n      iszero\n      tag_295\n      jumpi\n        /* \"#utility.yul\":6889:6968   */\n      tag_296\n      tag_147\n      jump\t// in\n    tag_296:\n        /* \"#utility.yul\":6851:6970   */\n    tag_295:\n        /* \"#utility.yul\":7009:7010   */\n      0x00\n        /* \"#utility.yul\":7034:7087   */\n      tag_297\n        /* \"#utility.yul\":7079:7086   */\n      dup5\n        /* \"#utility.yul\":7070:7076   */\n      dup3\n        /* \"#utility.yul\":7059:7068   */\n      dup6\n        /* \"#utility.yul\":7055:7077   */\n      add\n        /* \"#utility.yul\":7034:7087   */\n      tag_152\n      jump\t// in\n    tag_297:\n        /* \"#utility.yul\":7024:7087   */\n      swap2\n      pop\n        /* \"#utility.yul\":6980:7097   */\n      pop\n        /* \"#utility.yul\":6775:7104   */\n      swap3\n      swap2\n      pop\n      pop\n      jump\t// out\n        /* \"#utility.yul\":7110:7245   */\n    tag_174:\n        /* \"#utility.yul\":7198:7204   */\n      0x00\n        /* \"#utility.yul\":7232:7237   */\n      dup2\n        /* \"#utility.yul\":7226:7238   */\n      mload\n        /* \"#utility.yul\":7216:7238   */\n      swap1\n      pop\n        /* \"#utility.yul\":7110:7245   */\n      swap2\n      swap1\n      pop\n      jump\t// out\n        /* \"#utility.yul\":7251:7456   */\n    tag_175:\n        /* \"#utility.yul\":7371:7382   */\n      0x00\n        /* \"#utility.yul\":7405:7411   */\n      dup3\n        /* \"#utility.yul\":7400:7403   */\n      dup3\n        /* \"#utility.yul\":7393:7412   */\n      mstore\n        /* \"#utility.yul\":7445:7449   */\n      0x20\n        /* \"#utility.yul\":7440:7443   */\n      dup3\n        /* \"#utility.yul\":7436:7450   */\n      add\n        /* \"#utility.yul\":7421:7450   */\n      swap1\n      pop\n        /* \"#utility.yul\":7251:7456   */\n      swap3\n      swap2\n      pop\n      pop\n      jump\t// out\n        /* \"#utility.yul\":7462:7615   */\n    tag_176:\n        /* \"#utility.yul\":7550:7554   */\n      0x00\n        /* \"#utility.yul\":7573:7576   */\n      dup2\n        /* \"#utility.yul\":7565:7576   */\n      swap1\n      pop\n        /* \"#utility.yul\":7603:7607   */\n      0x20\n        /* \"#utility.yul\":7598:7601   */\n      dup3\n        /* \"#utility.yul\":7594:7608   */\n      add\n        /* \"#utility.yul\":7586:7608   */\n      swap1\n      pop\n        /* \"#utility.yul\":7462:7615   */\n      swap2\n      swap1\n      pop\n      jump\t// out\n        /* \"#utility.yul\":7621:7729   */\n    tag_177:\n        /* \"#utility.yul\":7698:7722   */\n      tag_302\n        /* \"#utility.yul\":7716:7721   */\n      dup2\n        /* \"#utility.yul\":7698:7722   */\n      tag_153\n      jump\t// in\n    tag_302:\n        /* \"#utility.yul\":7693:7696   */\n      dup3\n        /* \"#utility.yul\":7686:7723   */\n      mstore\n        /* \"#utility.yul\":7621:7729   */\n      pop\n      pop\n      jump\t// out\n        /* \"#utility.yul\":7735:7843   */\n    tag_178:\n        /* \"#utility.yul\":7812:7836   */\n      tag_304\n        /* \"#utility.yul\":7830:7835   */\n      dup2\n        /* \"#utility.yul\":7812:7836   */\n      tag_150\n      jump\t// in\n    tag_304:\n        /* \"#utility.yul\":7807:7810   */\n      dup3\n        /* \"#utility.yul\":7800:7837   */\n      mstore\n        /* \"#utility.yul\":7735:7843   */\n      pop\n      pop\n      jump\t// out\n        /* \"#utility.yul\":7849:8008   */\n    tag_179:\n        /* \"#utility.yul\":7923:7934   */\n      0x00\n        /* \"#utility.yul\":7957:7963   */\n      dup3\n        /* \"#utility.yul\":7952:7955   */\n      dup3\n        /* \"#utility.yul\":7945:7964   */\n      mstore\n        /* \"#utility.yul\":7997:8001   */\n      0x20\n        /* \"#utility.yul\":7992:7995   */\n      dup3\n        /* \"#utility.yul\":7988:8002   */\n      add\n        /* \"#utility.yul\":7973:8002   */\n      swap1\n      pop\n        /* \"#utility.yul\":7849:8008   */\n      swap3\n      swap2\n      pop\n      pop\n      jump\t// out\n        /* \"#utility.yul\":8014:8371   */\n    tag_180:\n        /* \"#utility.yul\":8092:8095   */\n      0x00\n        /* \"#utility.yul\":8120:8159   */\n      tag_307\n        /* \"#utility.yul\":8153:8158   */\n      dup3\n        /* \"#utility.yul\":8120:8159   */\n      tag_158\n      jump\t// in\n    tag_307:\n        /* \"#utility.yul\":8175:8236   */\n      tag_308\n        /* \"#utility.yul\":8229:8235   */\n      dup2\n        /* \"#utility.yul\":8224:8227   */\n      dup6\n        /* \"#utility.yul\":8175:8236   */\n      tag_179\n      jump\t// in\n    tag_308:\n        /* \"#utility.yul\":8168:8236   */\n      swap4\n      pop\n        /* \"#utility.yul\":8245:8310   */\n      tag_309\n        /* \"#utility.yul\":8303:8309   */\n      dup2\n        /* \"#utility.yul\":8298:8301   */\n      dup6\n        /* \"#utility.yul\":8291:8295   */\n      0x20\n        /* \"#utility.yul\":8284:8289   */\n      dup7\n        /* \"#utility.yul\":8280:8296   */\n      add\n        /* \"#utility.yul\":8245:8310   */\n      tag_160\n      jump\t// in\n    tag_309:\n        /* \"#utility.yul\":8335:8364   */\n      tag_310\n        /* \"#utility.yul\":8357:8363   */\n      dup2\n        /* \"#utility.yul\":8335:8364   */\n      tag_161\n      jump\t// in\n    tag_310:\n        /* \"#utility.yul\":8330:8333   */\n      dup5\n        /* \"#utility.yul\":8326:8365   */\n      add\n        /* \"#utility.yul\":8319:8365   */\n      swap2\n      pop\n        /* \"#utility.yul\":8096:8371   */\n      pop\n        /* \"#utility.yul\":8014:8371   */\n      swap3\n      swap2\n      pop\n      pop\n      jump\t// out\n        /* \"#utility.yul\":8429:9548   */\n    tag_181:\n        /* \"#utility.yul\":8530:8533   */\n      0x00\n        /* \"#utility.yul\":8566:8570   */\n      0xa0\n        /* \"#utility.yul\":8561:8564   */\n      dup4\n        /* \"#utility.yul\":8557:8571   */\n      add\n        /* \"#utility.yul\":8651:8655   */\n      0x00\n        /* \"#utility.yul\":8644:8649   */\n      dup4\n        /* \"#utility.yul\":8640:8656   */\n      add\n        /* \"#utility.yul\":8634:8657   */\n      mload\n        /* \"#utility.yul\":8670:8733   */\n      tag_312\n        /* \"#utility.yul\":8727:8731   */\n      0x00\n        /* \"#utility.yul\":8722:8725   */\n      dup7\n        /* \"#utility.yul\":8718:8732   */\n      add\n        /* \"#utility.yul\":8704:8716   */\n      dup3\n        /* \"#utility.yul\":8670:8733   */\n      tag_177\n      jump\t// in\n    tag_312:\n        /* \"#utility.yul\":8581:8743   */\n      pop\n        /* \"#utility.yul\":8827:8831   */\n      0x20\n        /* \"#utility.yul\":8820:8825   */\n      dup4\n        /* \"#utility.yul\":8816:8832   */\n      add\n        /* \"#utility.yul\":8810:8833   */\n      mload\n        /* \"#utility.yul\":8846:8909   */\n      tag_313\n        /* \"#utility.yul\":8903:8907   */\n      0x20\n        /* \"#utility.yul\":8898:8901   */\n      dup7\n        /* \"#utility.yul\":8894:8908   */\n      add\n        /* \"#utility.yul\":8880:8892   */\n      dup3\n        /* \"#utility.yul\":8846:8909   */\n      tag_178\n      jump\t// in\n    tag_313:\n        /* \"#utility.yul\":8753:8919   */\n      pop\n        /* \"#utility.yul\":9004:9008   */\n      0x40\n        /* \"#utility.yul\":8997:9002   */\n      dup4\n        /* \"#utility.yul\":8993:9009   */\n      add\n        /* \"#utility.yul\":8987:9010   */\n      mload\n        /* \"#utility.yul\":9057:9060   */\n      dup5\n        /* \"#utility.yul\":9051:9055   */\n      dup3\n        /* \"#utility.yul\":9047:9061   */\n      sub\n        /* \"#utility.yul\":9040:9044   */\n      0x40\n        /* \"#utility.yul\":9035:9038   */\n      dup7\n        /* \"#utility.yul\":9031:9045   */\n      add\n        /* \"#utility.yul\":9024:9062   */\n      mstore\n        /* \"#utility.yul\":9083:9156   */\n      tag_314\n        /* \"#utility.yul\":9151:9155   */\n      dup3\n        /* \"#utility.yul\":9137:9149   */\n      dup3\n        /* \"#utility.yul\":9083:9156   */\n      tag_180\n      jump\t// in\n    tag_314:\n        /* \"#utility.yul\":9075:9156   */\n      swap2\n      pop\n        /* \"#utility.yul\":8929:9167   */\n      pop\n        /* \"#utility.yul\":9254:9258   */\n      0x60\n        /* \"#utility.yul\":9247:9252   */\n      dup4\n        /* \"#utility.yul\":9243:9259   */\n      add\n        /* \"#utility.yul\":9237:9260   */\n      mload\n        /* \"#utility.yul\":9273:9336   */\n      tag_315\n        /* \"#utility.yul\":9330:9334   */\n      0x60\n        /* \"#utility.yul\":9325:9328   */\n      dup7\n        /* \"#utility.yul\":9321:9335   */\n      add\n        /* \"#utility.yul\":9307:9319   */\n      dup3\n        /* \"#utility.yul\":9273:9336   */\n      tag_177\n      jump\t// in\n    tag_315:\n        /* \"#utility.yul\":9177:9346   */\n      pop\n        /* \"#utility.yul\":9429:9433   */\n      0x80\n        /* \"#utility.yul\":9422:9427   */\n      dup4\n        /* \"#utility.yul\":9418:9434   */\n      add\n        /* \"#utility.yul\":9412:9435   */\n      mload\n        /* \"#utility.yul\":9448:9511   */\n      tag_316\n        /* \"#utility.yul\":9505:9509   */\n      0x80\n        /* \"#utility.yul\":9500:9503   */\n      dup7\n        /* \"#utility.yul\":9496:9510   */\n      add\n        /* \"#utility.yul\":9482:9494   */\n      dup3\n        /* \"#utility.yul\":9448:9511   */\n      tag_177\n      jump\t// in\n    tag_316:\n        /* \"#utility.yul\":9356:9521   */\n      pop\n        /* \"#utility.yul\":9538:9542   */\n      dup1\n        /* \"#utility.yul\":9531:9542   */\n      swap2\n      pop\n        /* \"#utility.yul\":8535:9548   */\n      pop\n        /* \"#utility.yul\":8429:9548   */\n      swap3\n      swap2\n      pop\n      pop\n      jump\t// out\n        /* \"#utility.yul\":9554:9794   */\n    tag_182:\n        /* \"#utility.yul\":9665:9675   */\n      0x00\n        /* \"#utility.yul\":9700:9788   */\n      tag_318\n        /* \"#utility.yul\":9784:9787   */\n      dup4\n        /* \"#utility.yul\":9776:9782   */\n      dup4\n        /* \"#utility.yul\":9700:9788   */\n      tag_181\n      jump\t// in\n    tag_318:\n        /* \"#utility.yul\":9686:9788   */\n      swap1\n      pop\n        /* \"#utility.yul\":9554:9794   */\n      swap3\n      swap2\n      pop\n      pop\n      jump\t// out\n        /* \"#utility.yul\":9800:9934   */\n    tag_183:\n        /* \"#utility.yul\":9891:9895   */\n      0x00\n        /* \"#utility.yul\":9923:9927   */\n      0x20\n        /* \"#utility.yul\":9918:9921   */\n      dup3\n        /* \"#utility.yul\":9914:9928   */\n      add\n        /* \"#utility.yul\":9906:9928   */\n      swap1\n      pop\n        /* \"#utility.yul\":9800:9934   */\n      swap2\n      swap1\n      pop\n      jump\t// out\n        /* \"#utility.yul\":9996:11075   */\n    tag_184:\n        /* \"#utility.yul\":10157:10160   */\n      0x00\n        /* \"#utility.yul\":10186:10261   */\n      tag_321\n        /* \"#utility.yul\":10255:10260   */\n      dup3\n        /* \"#utility.yul\":10186:10261   */\n      tag_174\n      jump\t// in\n    tag_321:\n        /* \"#utility.yul\":10277:10384   */\n      tag_322\n        /* \"#utility.yul\":10377:10383   */\n      dup2\n        /* \"#utility.yul\":10372:10375   */\n      dup6\n        /* \"#utility.yul\":10277:10384   */\n      tag_175\n      jump\t// in\n    tag_322:\n        /* \"#utility.yul\":10270:10384   */\n      swap4\n      pop\n        /* \"#utility.yul\":10410:10413   */\n      dup4\n        /* \"#utility.yul\":10455:10459   */\n      0x20\n        /* \"#utility.yul\":10447:10453   */\n      dup3\n        /* \"#utility.yul\":10443:10460   */\n      mul\n        /* \"#utility.yul\":10438:10441   */\n      dup6\n        /* \"#utility.yul\":10434:10461   */\n      add\n        /* \"#utility.yul\":10485:10562   */\n      tag_323\n        /* \"#utility.yul\":10556:10561   */\n      dup6\n        /* \"#utility.yul\":10485:10562   */\n      tag_176\n      jump\t// in\n    tag_323:\n        /* \"#utility.yul\":10585:10592   */\n      dup1\n        /* \"#utility.yul\":10616:10617   */\n      0x00\n        /* \"#utility.yul\":10601:11030   */\n    tag_324:\n        /* \"#utility.yul\":10626:10632   */\n      dup6\n        /* \"#utility.yul\":10623:10624   */\n      dup2\n        /* \"#utility.yul\":10620:10633   */\n      lt\n        /* \"#utility.yul\":10601:11030   */\n      iszero\n      tag_326\n      jumpi\n        /* \"#utility.yul\":10697:10706   */\n      dup5\n        /* \"#utility.yul\":10691:10695   */\n      dup5\n        /* \"#utility.yul\":10687:10707   */\n      sub\n        /* \"#utility.yul\":10682:10685   */\n      dup10\n        /* \"#utility.yul\":10675:10708   */\n      mstore\n        /* \"#utility.yul\":10748:10754   */\n      dup2\n        /* \"#utility.yul\":10742:10755   */\n      mload\n        /* \"#utility.yul\":10776:10882   */\n      tag_327\n        /* \"#utility.yul\":10877:10881   */\n      dup6\n        /* \"#utility.yul\":10862:10875   */\n      dup3\n        /* \"#utility.yul\":10776:10882   */\n      tag_182\n      jump\t// in\n    tag_327:\n        /* \"#utility.yul\":10768:10882   */\n      swap5\n      pop\n        /* \"#utility.yul\":10905:10986   */\n      tag_328\n        /* \"#utility.yul\":10979:10985   */\n      dup4\n        /* \"#utility.yul\":10905:10986   */\n      tag_183\n      jump\t// in\n    tag_328:\n        /* \"#utility.yul\":10895:10986   */\n      swap3\n      pop\n        /* \"#utility.yul\":11015:11019   */\n      0x20\n        /* \"#utility.yul\":11010:11013   */\n      dup11\n        /* \"#utility.yul\":11006:11020   */\n      add\n        /* \"#utility.yul\":10999:11020   */\n      swap10\n      pop\n        /* \"#utility.yul\":10661:11030   */\n      pop\n        /* \"#utility.yul\":10648:10649   */\n      0x01\n        /* \"#utility.yul\":10645:10646   */\n      dup2\n        /* \"#utility.yul\":10641:10650   */\n      add\n        /* \"#utility.yul\":10636:10650   */\n      swap1\n      pop\n        /* \"#utility.yul\":10601:11030   */\n      jump(tag_324)\n    tag_326:\n        /* \"#utility.yul\":10605:10619   */\n      pop\n        /* \"#utility.yul\":11046:11050   */\n      dup3\n        /* \"#utility.yul\":11039:11050   */\n      swap8\n      pop\n        /* \"#utility.yul\":11066:11069   */\n      dup8\n        /* \"#utility.yul\":11059:11069   */\n      swap6\n      pop\n        /* \"#utility.yul\":10162:11075   */\n      pop\n      pop\n      pop\n      pop\n      pop\n        /* \"#utility.yul\":9996:11075   */\n      swap3\n      swap2\n      pop\n      pop\n      jump\t// out\n        /* \"#utility.yul\":11081:11538   */\n    tag_35:\n        /* \"#utility.yul\":11266:11270   */\n      0x00\n        /* \"#utility.yul\":11304:11306   */\n      0x20\n        /* \"#utility.yul\":11293:11302   */\n      dup3\n        /* \"#utility.yul\":11289:11307   */\n      add\n        /* \"#utility.yul\":11281:11307   */\n      swap1\n      pop\n        /* \"#utility.yul\":11353:11362   */\n      dup2\n        /* \"#utility.yul\":11347:11351   */\n      dup2\n        /* \"#utility.yul\":11343:11363   */\n      sub\n        /* \"#utility.yul\":11339:11340   */\n      0x00\n        /* \"#utility.yul\":11328:11337   */\n      dup4\n        /* \"#utility.yul\":11324:11341   */\n      add\n        /* \"#utility.yul\":11317:11364   */\n      mstore\n        /* \"#utility.yul\":11381:11531   */\n      tag_330\n        /* \"#utility.yul\":11526:11530   */\n      dup2\n        /* \"#utility.yul\":11517:11523   */\n      dup5\n        /* \"#utility.yul\":11381:11531   */\n      tag_184\n      jump\t// in\n    tag_330:\n        /* \"#utility.yul\":11373:11531   */\n      swap1\n      pop\n        /* \"#utility.yul\":11081:11538   */\n      swap3\n      swap2\n      pop\n      pop\n      jump\t// out\n        /* \"#utility.yul\":11544:11664   */\n    tag_185:\n        /* \"#utility.yul\":11616:11639   */\n      tag_332\n        /* \"#utility.yul\":11633:11638   */\n      dup2\n        /* \"#utility.yul\":11616:11639   */\n      tag_163\n      jump\t// in\n    tag_332:\n        /* \"#utility.yul\":11609:11614   */\n      dup2\n        /* \"#utility.yul\":11606:11640   */\n      eq\n        /* \"#utility.yul\":11596:11658   */\n      tag_333\n      jumpi\n        /* \"#utility.yul\":11654:11655   */\n      0x00\n        /* \"#utility.yul\":11651:11652   */\n      dup1\n        /* \"#utility.yul\":11644:11656   */\n      revert\n        /* \"#utility.yul\":11596:11658   */\n    tag_333:\n        /* \"#utility.yul\":11544:11664   */\n      pop\n      jump\t// out\n        /* \"#utility.yul\":11670:11807   */\n    tag_186:\n        /* \"#utility.yul\":11715:11720   */\n      0x00\n        /* \"#utility.yul\":11753:11759   */\n      dup2\n        /* \"#utility.yul\":11740:11760   */\n      calldataload\n        /* \"#utility.yul\":11731:11760   */\n      swap1\n      pop\n        /* \"#utility.yul\":11769:11801   */\n      tag_335\n        /* \"#utility.yul\":11795:11800   */\n      dup2\n        /* \"#utility.yul\":11769:11801   */\n      tag_185\n      jump\t// in\n    tag_335:\n        /* \"#utility.yul\":11670:11807   */\n      swap3\n      swap2\n      pop\n      pop\n      jump\t// out\n        /* \"#utility.yul\":11813:12285   */\n    tag_38:\n        /* \"#utility.yul\":11880:11886   */\n      0x00\n        /* \"#utility.yul\":11888:11894   */\n      dup1\n        /* \"#utility.yul\":11937:11939   */\n      0x40\n        /* \"#utility.yul\":11925:11934   */\n      dup4\n        /* \"#utility.yul\":11916:11923   */\n      dup6\n        /* \"#utility.yul\":11912:11935   */\n      sub\n        /* \"#utility.yul\":11908:11940   */\n      slt\n        /* \"#utility.yul\":11905:12024   */\n      iszero\n      tag_337\n      jumpi\n        /* \"#utility.yul\":11943:12022   */\n      tag_338\n      tag_147\n      jump\t// in\n    tag_338:\n        /* \"#utility.yul\":11905:12024   */\n    tag_337:\n        /* \"#utility.yul\":12063:12064   */\n      0x00\n        /* \"#utility.yul\":12088:12141   */\n      tag_339\n        /* \"#utility.yul\":12133:12140   */\n      dup6\n        /* \"#utility.yul\":12124:12130   */\n      dup3\n        /* \"#utility.yul\":12113:12122   */\n      dup7\n        /* \"#utility.yul\":12109:12131   */\n      add\n        /* \"#utility.yul\":12088:12141   */\n      tag_152\n      jump\t// in\n    tag_339:\n        /* \"#utility.yul\":12078:12141   */\n      swap3\n      pop\n        /* \"#utility.yul\":12034:12151   */\n      pop\n        /* \"#utility.yul\":12190:12192   */\n      0x20\n        /* \"#utility.yul\":12216:12268   */\n      tag_340\n        /* \"#utility.yul\":12260:12267   */\n      dup6\n        /* \"#utility.yul\":12251:12257   */\n      dup3\n        /* \"#utility.yul\":12240:12249   */\n      dup7\n        /* \"#utility.yul\":12236:12258   */\n      add\n        /* \"#utility.yul\":12216:12268   */\n      tag_186\n      jump\t// in\n    tag_340:\n        /* \"#utility.yul\":12206:12268   */\n      swap2\n      pop\n        /* \"#utility.yul\":12161:12278   */\n      pop\n        /* \"#utility.yul\":11813:12285   */\n      swap3\n      pop\n      swap3\n      swap1\n      pop\n      jump\t// out\n        /* \"#utility.yul\":12343:13472   */\n    tag_187:\n        /* \"#utility.yul\":12454:12457   */\n      0x00\n        /* \"#utility.yul\":12490:12494   */\n      0xa0\n        /* \"#utility.yul\":12485:12488   */\n      dup4\n        /* \"#utility.yul\":12481:12495   */\n      add\n        /* \"#utility.yul\":12575:12579   */\n      0x00\n        /* \"#utility.yul\":12568:12573   */\n      dup4\n        /* \"#utility.yul\":12564:12580   */\n      add\n        /* \"#utility.yul\":12558:12581   */\n      mload\n        /* \"#utility.yul\":12594:12657   */\n      tag_342\n        /* \"#utility.yul\":12651:12655   */\n      0x00\n        /* \"#utility.yul\":12646:12649   */\n      dup7\n        /* \"#utility.yul\":12642:12656   */\n      add\n        /* \"#utility.yul\":12628:12640   */\n      dup3\n        /* \"#utility.yul\":12594:12657   */\n      tag_177\n      jump\t// in\n    tag_342:\n        /* \"#utility.yul\":12505:12667   */\n      pop\n        /* \"#utility.yul\":12751:12755   */\n      0x20\n        /* \"#utility.yul\":12744:12749   */\n      dup4\n        /* \"#utility.yul\":12740:12756   */\n      add\n        /* \"#utility.yul\":12734:12757   */\n      mload\n        /* \"#utility.yul\":12770:12833   */\n      tag_343\n        /* \"#utility.yul\":12827:12831   */\n      0x20\n        /* \"#utility.yul\":12822:12825   */\n      dup7\n        /* \"#utility.yul\":12818:12832   */\n      add\n        /* \"#utility.yul\":12804:12816   */\n      dup3\n        /* \"#utility.yul\":12770:12833   */\n      tag_178\n      jump\t// in\n    tag_343:\n        /* \"#utility.yul\":12677:12843   */\n      pop\n        /* \"#utility.yul\":12928:12932   */\n      0x40\n        /* \"#utility.yul\":12921:12926   */\n      dup4\n        /* \"#utility.yul\":12917:12933   */\n      add\n        /* \"#utility.yul\":12911:12934   */\n      mload\n        /* \"#utility.yul\":12981:12984   */\n      dup5\n        /* \"#utility.yul\":12975:12979   */\n      dup3\n        /* \"#utility.yul\":12971:12985   */\n      sub\n        /* \"#utility.yul\":12964:12968   */\n      0x40\n        /* \"#utility.yul\":12959:12962   */\n      dup7\n        /* \"#utility.yul\":12955:12969   */\n      add\n        /* \"#utility.yul\":12948:12986   */\n      mstore\n        /* \"#utility.yul\":13007:13080   */\n      tag_344\n        /* \"#utility.yul\":13075:13079   */\n      dup3\n        /* \"#utility.yul\":13061:13073   */\n      dup3\n        /* \"#utility.yul\":13007:13080   */\n      tag_180\n      jump\t// in\n    tag_344:\n        /* \"#utility.yul\":12999:13080   */\n      swap2\n      pop\n        /* \"#utility.yul\":12853:13091   */\n      pop\n        /* \"#utility.yul\":13178:13182   */\n      0x60\n        /* \"#utility.yul\":13171:13176   */\n      dup4\n        /* \"#utility.yul\":13167:13183   */\n      add\n        /* \"#utility.yul\":13161:13184   */\n      mload\n        /* \"#utility.yul\":13197:13260   */\n      tag_345\n        /* \"#utility.yul\":13254:13258   */\n      0x60\n        /* \"#utility.yul\":13249:13252   */\n      dup7\n        /* \"#utility.yul\":13245:13259   */\n      add\n        /* \"#utility.yul\":13231:13243   */\n      dup3\n        /* \"#utility.yul\":13197:13260   */\n      tag_177\n      jump\t// in\n    tag_345:\n        /* \"#utility.yul\":13101:13270   */\n      pop\n        /* \"#utility.yul\":13353:13357   */\n      0x80\n        /* \"#utility.yul\":13346:13351   */\n      dup4\n        /* \"#utility.yul\":13342:13358   */\n      add\n        /* \"#utility.yul\":13336:13359   */\n      mload\n        /* \"#utility.yul\":13372:13435   */\n      tag_346\n        /* \"#utility.yul\":13429:13433   */\n      0x80\n        /* \"#utility.yul\":13424:13427   */\n      dup7\n        /* \"#utility.yul\":13420:13434   */\n      add\n        /* \"#utility.yul\":13406:13418   */\n      dup3\n        /* \"#utility.yul\":13372:13435   */\n      tag_177\n      jump\t// in\n    tag_346:\n        /* \"#utility.yul\":13280:13445   */\n      pop\n        /* \"#utility.yul\":13462:13466   */\n      dup1\n        /* \"#utility.yul\":13455:13466   */\n      swap2\n      pop\n        /* \"#utility.yul\":12459:13472   */\n      pop\n        /* \"#utility.yul\":12343:13472   */\n      swap3\n      swap2\n      pop\n      pop\n      jump\t// out\n        /* \"#utility.yul\":13478:13835   */\n    tag_47:\n        /* \"#utility.yul\":13613:13617   */\n      0x00\n        /* \"#utility.yul\":13651:13653   */\n      0x20\n        /* \"#utility.yul\":13640:13649   */\n      dup3\n        /* \"#utility.yul\":13636:13654   */\n      add\n        /* \"#utility.yul\":13628:13654   */\n      swap1\n      pop\n        /* \"#utility.yul\":13700:13709   */\n      dup2\n        /* \"#utility.yul\":13694:13698   */\n      dup2\n        /* \"#utility.yul\":13690:13710   */\n      sub\n        /* \"#utility.yul\":13686:13687   */\n      0x00\n        /* \"#utility.yul\":13675:13684   */\n      dup4\n        /* \"#utility.yul\":13671:13688   */\n      add\n        /* \"#utility.yul\":13664:13711   */\n      mstore\n        /* \"#utility.yul\":13728:13828   */\n      tag_348\n        /* \"#utility.yul\":13823:13827   */\n      dup2\n        /* \"#utility.yul\":13814:13820   */\n      dup5\n        /* \"#utility.yul\":13728:13828   */\n      tag_187\n      jump\t// in\n    tag_348:\n        /* \"#utility.yul\":13720:13828   */\n      swap1\n      pop\n        /* \"#utility.yul\":13478:13835   */\n      swap3\n      swap2\n      pop\n      pop\n      jump\t// out\n        /* \"#utility.yul\":13841:14168   */\n    tag_50:\n        /* \"#utility.yul\":13899:13905   */\n      0x00\n        /* \"#utility.yul\":13948:13950   */\n      0x20\n        /* \"#utility.yul\":13936:13945   */\n      dup3\n        /* \"#utility.yul\":13927:13934   */\n      dup5\n        /* \"#utility.yul\":13923:13946   */\n      sub\n        /* \"#utility.yul\":13919:13951   */\n      slt\n        /* \"#utility.yul\":13916:14035   */\n      iszero\n      tag_350\n      jumpi\n        /* \"#utility.yul\":13954:14033   */\n      tag_351\n      tag_147\n      jump\t// in\n    tag_351:\n        /* \"#utility.yul\":13916:14035   */\n    tag_350:\n        /* \"#utility.yul\":14074:14075   */\n      0x00\n        /* \"#utility.yul\":14099:14151   */\n      tag_352\n        /* \"#utility.yul\":14143:14150   */\n      dup5\n        /* \"#utility.yul\":14134:14140   */\n      dup3\n        /* \"#utility.yul\":14123:14132   */\n      dup6\n        /* \"#utility.yul\":14119:14141   */\n      add\n        /* \"#utility.yul\":14099:14151   */\n      tag_186\n      jump\t// in\n    tag_352:\n        /* \"#utility.yul\":14089:14151   */\n      swap2\n      pop\n        /* \"#utility.yul\":14045:14161   */\n      pop\n        /* \"#utility.yul\":13841:14168   */\n      swap3\n      swap2\n      pop\n      pop\n      jump\t// out\n        /* \"#utility.yul\":14174:14354   */\n    tag_188:\n        /* \"#utility.yul\":14222:14299   */\n      0x4e487b7100000000000000000000000000000000000000000000000000000000\n        /* \"#utility.yul\":14219:14220   */\n      0x00\n        /* \"#utility.yul\":14212:14300   */\n      mstore\n        /* \"#utility.yul\":14319:14323   */\n      0x22\n        /* \"#utility.yul\":14316:14317   */\n      0x04\n        /* \"#utility.yul\":14309:14324   */\n      mstore\n        /* \"#utility.yul\":14343:14347   */\n      0x24\n        /* \"#utility.yul\":14340:14341   */\n      0x00\n        /* \"#utility.yul\":14333:14348   */\n      revert\n        /* \"#utility.yul\":14360:14680   */\n    tag_55:\n        /* \"#utility.yul\":14404:14410   */\n      0x00\n        /* \"#utility.yul\":14441:14442   */\n      0x02\n        /* \"#utility.yul\":14435:14439   */\n      dup3\n        /* \"#utility.yul\":14431:14443   */\n      div\n        /* \"#utility.yul\":14421:14443   */\n      swap1\n      pop\n        /* \"#utility.yul\":14488:14489   */\n      0x01\n        /* \"#utility.yul\":14482:14486   */\n      dup3\n        /* \"#utility.yul\":14478:14490   */\n      and\n        /* \"#utility.yul\":14509:14527   */\n      dup1\n        /* \"#utility.yul\":14499:14580   */\n      tag_355\n      jumpi\n        /* \"#utility.yul\":14565:14569   */\n      0x7f\n        /* \"#utility.yul\":14557:14563   */\n      dup3\n        /* \"#utility.yul\":14553:14570   */\n      and\n        /* \"#utility.yul\":14543:14570   */\n      swap2\n      pop\n        /* \"#utility.yul\":14499:14580   */\n    tag_355:\n        /* \"#utility.yul\":14627:14629   */\n      0x20\n        /* \"#utility.yul\":14619:14625   */\n      dup3\n        /* \"#utility.yul\":14616:14630   */\n      lt\n        /* \"#utility.yul\":14596:14614   */\n      dup2\n        /* \"#utility.yul\":14593:14631   */\n      sub\n        /* \"#utility.yul\":14590:14674   */\n      tag_356\n      jumpi\n        /* \"#utility.yul\":14646:14664   */\n      tag_357\n      tag_188\n      jump\t// in\n    tag_357:\n        /* \"#utility.yul\":14590:14674   */\n    tag_356:\n        /* \"#utility.yul\":14411:14680   */\n      pop\n        /* \"#utility.yul\":14360:14680   */\n      swap2\n      swap1\n      pop\n      jump\t// out\n        /* \"#utility.yul\":14686:14866   */\n    tag_63:\n        /* \"#utility.yul\":14734:14811   */\n      0x4e487b7100000000000000000000000000000000000000000000000000000000\n        /* \"#utility.yul\":14731:14732   */\n      0x00\n        /* \"#utility.yul\":14724:14812   */\n      mstore\n        /* \"#utility.yul\":14831:14835   */\n      0x32\n        /* \"#utility.yul\":14828:14829   */\n      0x04\n        /* \"#utility.yul\":14821:14836   */\n      mstore\n        /* \"#utility.yul\":14855:14859   */\n      0x24\n        /* \"#utility.yul\":14852:14853   */\n      0x00\n        /* \"#utility.yul\":14845:14860   */\n      revert\n        /* \"#utility.yul\":14872:15041   */\n    tag_189:\n        /* \"#utility.yul\":15012:15033   */\n      0x547765657420646f65736e277420657869737400000000000000000000000000\n        /* \"#utility.yul\":15008:15009   */\n      0x00\n        /* \"#utility.yul\":15000:15006   */\n      dup3\n        /* \"#utility.yul\":14996:15010   */\n      add\n        /* \"#utility.yul\":14989:15034   */\n      mstore\n        /* \"#utility.yul\":14872:15041   */\n      pop\n      jump\t// out\n        /* \"#utility.yul\":15047:15413   */\n    tag_190:\n        /* \"#utility.yul\":15189:15192   */\n      0x00\n        /* \"#utility.yul\":15210:15277   */\n      tag_361\n        /* \"#utility.yul\":15274:15276   */\n      0x13\n        /* \"#utility.yul\":15269:15272   */\n      dup4\n        /* \"#utility.yul\":15210:15277   */\n      tag_159\n      jump\t// in\n    tag_361:\n        /* \"#utility.yul\":15203:15277   */\n      swap2\n      pop\n        /* \"#utility.yul\":15286:15379   */\n      tag_362\n        /* \"#utility.yul\":15375:15378   */\n      dup3\n        /* \"#utility.yul\":15286:15379   */\n      tag_189\n      jump\t// in\n    tag_362:\n        /* \"#utility.yul\":15404:15406   */\n      0x20\n        /* \"#utility.yul\":15399:15402   */\n      dup3\n        /* \"#utility.yul\":15395:15407   */\n      add\n        /* \"#utility.yul\":15388:15407   */\n      swap1\n      pop\n        /* \"#utility.yul\":15047:15413   */\n      swap2\n      swap1\n      pop\n      jump\t// out\n        /* \"#utility.yul\":15419:15838   */\n    tag_67:\n        /* \"#utility.yul\":15585:15589   */\n      0x00\n        /* \"#utility.yul\":15623:15625   */\n      0x20\n        /* \"#utility.yul\":15612:15621   */\n      dup3\n        /* \"#utility.yul\":15608:15626   */\n      add\n        /* \"#utility.yul\":15600:15626   */\n      swap1\n      pop\n        /* \"#utility.yul\":15672:15681   */\n      dup2\n        /* \"#utility.yul\":15666:15670   */\n      dup2\n        /* \"#utility.yul\":15662:15682   */\n      sub\n        /* \"#utility.yul\":15658:15659   */\n      0x00\n        /* \"#utility.yul\":15647:15656   */\n      dup4\n        /* \"#utility.yul\":15643:15660   */\n      add\n        /* \"#utility.yul\":15636:15683   */\n      mstore\n        /* \"#utility.yul\":15700:15831   */\n      tag_364\n        /* \"#utility.yul\":15826:15830   */\n      dup2\n        /* \"#utility.yul\":15700:15831   */\n      tag_190\n      jump\t// in\n    tag_364:\n        /* \"#utility.yul\":15692:15831   */\n      swap1\n      pop\n        /* \"#utility.yul\":15419:15838   */\n      swap2\n      swap1\n      pop\n      jump\t// out\n        /* \"#utility.yul\":15844:16024   */\n    tag_191:\n        /* \"#utility.yul\":15892:15969   */\n      0x4e487b7100000000000000000000000000000000000000000000000000000000\n        /* \"#utility.yul\":15889:15890   */\n      0x00\n        /* \"#utility.yul\":15882:15970   */\n      mstore\n        /* \"#utility.yul\":15989:15993   */\n      0x11\n        /* \"#utility.yul\":15986:15987   */\n      0x04\n        /* \"#utility.yul\":15979:15994   */\n      mstore\n        /* \"#utility.yul\":16013:16017   */\n      0x24\n        /* \"#utility.yul\":16010:16011   */\n      0x00\n        /* \"#utility.yul\":16003:16018   */\n      revert\n        /* \"#utility.yul\":16030:16263   */\n    tag_72:\n        /* \"#utility.yul\":16069:16072   */\n      0x00\n        /* \"#utility.yul\":16092:16116   */\n      tag_367\n        /* \"#utility.yul\":16110:16115   */\n      dup3\n        /* \"#utility.yul\":16092:16116   */\n      tag_153\n      jump\t// in\n    tag_367:\n        /* \"#utility.yul\":16083:16116   */\n      swap2\n      pop\n        /* \"#utility.yul\":16138:16204   */\n      0xffffffffffffffffffffffffffffffffffffffffffffffffffffffffffffffff\n        /* \"#utility.yul\":16131:16136   */\n      dup3\n        /* \"#utility.yul\":16128:16205   */\n      sub\n        /* \"#utility.yul\":16125:16228   */\n      tag_368\n      jumpi\n        /* \"#utility.yul\":16208:16226   */\n      tag_369\n      tag_191\n      jump\t// in\n    tag_369:\n        /* \"#utility.yul\":16125:16228   */\n    tag_368:\n        /* \"#utility.yul\":16255:16256   */\n      0x01\n        /* \"#utility.yul\":16248:16253   */\n      dup3\n        /* \"#utility.yul\":16244:16257   */\n      add\n        /* \"#utility.yul\":16237:16257   */\n      swap1\n      pop\n        /* \"#utility.yul\":16030:16263   */\n      swap2\n      swap1\n      pop\n      jump\t// out\n        /* \"#utility.yul\":16269:16711   */\n    tag_77:\n        /* \"#utility.yul\":16418:16422   */\n      0x00\n        /* \"#utility.yul\":16456:16458   */\n      0x60\n        /* \"#utility.yul\":16445:16454   */\n      dup3\n        /* \"#utility.yul\":16441:16459   */\n      add\n        /* \"#utility.yul\":16433:16459   */\n      swap1\n      pop\n        /* \"#utility.yul\":16469:16540   */\n      tag_371\n        /* \"#utility.yul\":16537:16538   */\n      0x00\n        /* \"#utility.yul\":16526:16535   */\n      dup4\n        /* \"#utility.yul\":16522:16539   */\n      add\n        /* \"#utility.yul\":16513:16519   */\n      dup7\n        /* \"#utility.yul\":16469:16540   */\n      tag_156\n      jump\t// in\n    tag_371:\n        /* \"#utility.yul\":16550:16622   */\n      tag_372\n        /* \"#utility.yul\":16618:16620   */\n      0x20\n        /* \"#utility.yul\":16607:16616   */\n      dup4\n        /* \"#utility.yul\":16603:16621   */\n      add\n        /* \"#utility.yul\":16594:16600   */\n      dup6\n        /* \"#utility.yul\":16550:16622   */\n      tag_157\n      jump\t// in\n    tag_372:\n        /* \"#utility.yul\":16632:16704   */\n      tag_373\n        /* \"#utility.yul\":16700:16702   */\n      0x40\n        /* \"#utility.yul\":16689:16698   */\n      dup4\n        /* \"#utility.yul\":16685:16703   */\n      add\n        /* \"#utility.yul\":16676:16682   */\n      dup5\n        /* \"#utility.yul\":16632:16704   */\n      tag_156\n      jump\t// in\n    tag_373:\n        /* \"#utility.yul\":16269:16711   */\n      swap5\n      swap4\n      pop\n      pop\n      pop\n      pop\n      jump\t// out\n        /* \"#utility.yul\":16717:16889   */\n    tag_192:\n        /* \"#utility.yul\":16857:16881   */\n      0x596f757220547765657420697320746f6f206c6f6e6700000000000000000000\n        /* \"#utility.yul\":16853:16854   */\n      0x00\n        /* \"#utility.yul\":16845:16851   */\n      dup3\n        /* \"#utility.yul\":16841:16855   */\n      add\n        /* \"#utility.yul\":16834:16882   */\n      mstore\n        /* \"#utility.yul\":16717:16889   */\n      pop\n      jump\t// out\n        /* \"#utility.yul\":16895:17261   */\n    tag_193:\n        /* \"#utility.yul\":17037:17040   */\n      0x00\n        /* \"#utility.yul\":17058:17125   */\n      tag_376\n        /* \"#utility.yul\":17122:17124   */\n      0x16\n        /* \"#utility.yul\":17117:17120   */\n      dup4\n        /* \"#utility.yul\":17058:17125   */\n      tag_159\n      jump\t// in\n    tag_376:\n        /* \"#utility.yul\":17051:17125   */\n      swap2\n      pop\n        /* \"#utility.yul\":17134:17227   */\n      tag_377\n        /* \"#utility.yul\":17223:17226   */\n      dup3\n        /* \"#utility.yul\":17134:17227   */\n      tag_192\n      jump\t// in\n    tag_377:\n        /* \"#utility.yul\":17252:17254   */\n      0x20\n        /* \"#utility.yul\":17247:17250   */\n      dup3\n        /* \"#utility.yul\":17243:17255   */\n      add\n        /* \"#utility.yul\":17236:17255   */\n      swap1\n      pop\n        /* \"#utility.yul\":16895:17261   */\n      swap2\n      swap1\n      pop\n      jump\t// out\n        /* \"#utility.yul\":17267:17686   */\n    tag_81:\n        /* \"#utility.yul\":17433:17437   */\n      0x00\n        /* \"#utility.yul\":17471:17473   */\n      0x20\n        /* \"#utility.yul\":17460:17469   */\n      dup3\n        /* \"#utility.yul\":17456:17474   */\n      add\n        /* \"#utility.yul\":17448:17474   */\n      swap1\n      pop\n        /* \"#utility.yul\":17520:17529   */\n      dup2\n        /* \"#utility.yul\":17514:17518   */\n      dup2\n        /* \"#utility.yul\":17510:17530   */\n      sub\n        /* \"#utility.yul\":17506:17507   */\n      0x00\n        /* \"#utility.yul\":17495:17504   */\n      dup4\n        /* \"#utility.yul\":17491:17508   */\n      add\n        /* \"#utility.yul\":17484:17531   */\n      mstore\n        /* \"#utility.yul\":17548:17679   */\n      tag_379\n        /* \"#utility.yul\":17674:17678   */\n      dup2\n        /* \"#utility.yul\":17548:17679   */\n      tag_193\n      jump\t// in\n    tag_379:\n        /* \"#utility.yul\":17540:17679   */\n      swap1\n      pop\n        /* \"#utility.yul\":17267:17686   */\n      swap2\n      swap1\n      pop\n      jump\t// out\n        /* \"#utility.yul\":17692:17833   */\n    tag_194:\n        /* \"#utility.yul\":17741:17745   */\n      0x00\n        /* \"#utility.yul\":17764:17767   */\n      dup2\n        /* \"#utility.yul\":17756:17767   */\n      swap1\n      pop\n        /* \"#utility.yul\":17787:17790   */\n      dup2\n        /* \"#utility.yul\":17784:17785   */\n      0x00\n        /* \"#utility.yul\":17777:17791   */\n      mstore\n        /* \"#utility.yul\":17821:17825   */\n      0x20\n        /* \"#utility.yul\":17818:17819   */\n      0x00\n        /* \"#utility.yul\":17808:17826   */\n      keccak256\n        /* \"#utility.yul\":17800:17826   */\n      swap1\n      pop\n        /* \"#utility.yul\":17692:17833   */\n      swap2\n      swap1\n      pop\n      jump\t// out\n        /* \"#utility.yul\":17839:17932   */\n    tag_195:\n        /* \"#utility.yul\":17876:17882   */\n      0x00\n        /* \"#utility.yul\":17923:17925   */\n      0x20\n        /* \"#utility.yul\":17918:17920   */\n      0x1f\n        /* \"#utility.yul\":17911:17916   */\n      dup4\n        /* \"#utility.yul\":17907:17921   */\n      add\n        /* \"#utility.yul\":17903:17926   */\n      div\n        /* \"#utility.yul\":17893:17926   */\n      swap1\n      pop\n        /* \"#utility.yul\":17839:17932   */\n      swap2\n      swap1\n      pop\n      jump\t// out\n        /* \"#utility.yul\":17938:18045   */\n    tag_196:\n        /* \"#utility.yul\":17982:17990   */\n      0x00\n        /* \"#utility.yul\":18032:18037   */\n      dup3\n        /* \"#utility.yul\":18026:18030   */\n      dup3\n        /* \"#utility.yul\":18022:18038   */\n      shl\n        /* \"#utility.yul\":18001:18038   */\n      swap1\n      pop\n        /* \"#utility.yul\":17938:18045   */\n      swap3\n      swap2\n      pop\n      pop\n      jump\t// out\n        /* \"#utility.yul\":18051:18444   */\n    tag_197:\n        /* \"#utility.yul\":18120:18126   */\n      0x00\n        /* \"#utility.yul\":18170:18171   */\n      0x08\n        /* \"#utility.yul\":18158:18168   */\n      dup4\n        /* \"#utility.yul\":18154:18172   */\n      mul\n        /* \"#utility.yul\":18193:18290   */\n      tag_384\n        /* \"#utility.yul\":18223:18289   */\n      0xffffffffffffffffffffffffffffffffffffffffffffffffffffffffffffffff\n        /* \"#utility.yul\":18212:18221   */\n      dup3\n        /* \"#utility.yul\":18193:18290   */\n      tag_196\n      jump\t// in\n    tag_384:\n        /* \"#utility.yul\":18311:18350   */\n      tag_385\n        /* \"#utility.yul\":18341:18349   */\n      dup7\n        /* \"#utility.yul\":18330:18339   */\n      dup4\n        /* \"#utility.yul\":18311:18350   */\n      tag_196\n      jump\t// in\n    tag_385:\n        /* \"#utility.yul\":18299:18350   */\n      swap6\n      pop\n        /* \"#utility.yul\":18383:18387   */\n      dup1\n        /* \"#utility.yul\":18379:18388   */\n      not\n        /* \"#utility.yul\":18372:18377   */\n      dup5\n        /* \"#utility.yul\":18368:18389   */\n      and\n        /* \"#utility.yul\":18359:18389   */\n      swap4\n      pop\n        /* \"#utility.yul\":18432:18436   */\n      dup1\n        /* \"#utility.yul\":18422:18430   */\n      dup7\n        /* \"#utility.yul\":18418:18437   */\n      and\n        /* \"#utility.yul\":18411:18416   */\n      dup5\n        /* \"#utility.yul\":18408:18438   */\n      or\n        /* \"#utility.yul\":18398:18438   */\n      swap3\n      pop\n        /* \"#utility.yul\":18127:18444   */\n      pop\n      pop\n        /* \"#utility.yul\":18051:18444   */\n      swap4\n      swap3\n      pop\n      pop\n      pop\n      jump\t// out\n        /* \"#utility.yul\":18450:18510   */\n    tag_198:\n        /* \"#utility.yul\":18478:18481   */\n      0x00\n        /* \"#utility.yul\":18499:18504   */\n      dup2\n        /* \"#utility.yul\":18492:18504   */\n      swap1\n      pop\n        /* \"#utility.yul\":18450:18510   */\n      swap2\n      swap1\n      pop\n      jump\t// out\n        /* \"#utility.yul\":18516:18658   */\n    tag_199:\n        /* \"#utility.yul\":18566:18575   */\n      0x00\n        /* \"#utility.yul\":18599:18652   */\n      tag_388\n        /* \"#utility.yul\":18617:18651   */\n      tag_389\n        /* \"#utility.yul\":18626:18650   */\n      tag_390\n        /* \"#utility.yul\":18644:18649   */\n      dup5\n        /* \"#utility.yul\":18626:18650   */\n      tag_153\n      jump\t// in\n    tag_390:\n        /* \"#utility.yul\":18617:18651   */\n      tag_198\n      jump\t// in\n    tag_389:\n        /* \"#utility.yul\":18599:18652   */\n      tag_153\n      jump\t// in\n    tag_388:\n        /* \"#utility.yul\":18586:18652   */\n      swap1\n      pop\n        /* \"#utility.yul\":18516:18658   */\n      swap2\n      swap1\n      pop\n      jump\t// out\n        /* \"#utility.yul\":18664:18739   */\n    tag_200:\n        /* \"#utility.yul\":18707:18710   */\n      0x00\n        /* \"#utility.yul\":18728:18733   */\n      dup2\n        /* \"#utility.yul\":18721:18733   */\n      swap1\n      pop\n        /* \"#utility.yul\":18664:18739   */\n      swap2\n      swap1\n      pop\n      jump\t// out\n        /* \"#utility.yul\":18745:19014   */\n    tag_201:\n        /* \"#utility.yul\":18855:18894   */\n      tag_393\n        /* \"#utility.yul\":18886:18893   */\n      dup4\n        /* \"#utility.yul\":18855:18894   */\n      tag_199\n      jump\t// in\n    tag_393:\n        /* \"#utility.yul\":18916:19007   */\n      tag_394\n        /* \"#utility.yul\":18965:19006   */\n      tag_395\n        /* \"#utility.yul\":18989:19005   */\n      dup3\n        /* \"#utility.yul\":18965:19006   */\n      tag_200\n      jump\t// in\n    tag_395:\n        /* \"#utility.yul\":18957:18963   */\n      dup5\n        /* \"#utility.yul\":18950:18954   */\n      dup5\n        /* \"#utility.yul\":18944:18955   */\n      sload\n        /* \"#utility.yul\":18916:19007   */\n      tag_197\n      jump\t// in\n    tag_394:\n        /* \"#utility.yul\":18910:18914   */\n      dup3\n        /* \"#utility.yul\":18903:19008   */\n      sstore\n        /* \"#utility.yul\":18821:19014   */\n      pop\n        /* \"#utility.yul\":18745:19014   */\n      pop\n      pop\n      pop\n      jump\t// out\n        /* \"#utility.yul\":19020:19093   */\n    tag_202:\n        /* \"#utility.yul\":19065:19068   */\n      0x00\n        /* \"#utility.yul\":19020:19093   */\n      swap1\n      jump\t// out\n        /* \"#utility.yul\":19099:19288   */\n    tag_203:\n        /* \"#utility.yul\":19176:19208   */\n      tag_398\n      tag_202\n      jump\t// in\n    tag_398:\n        /* \"#utility.yul\":19217:19282   */\n      tag_399\n        /* \"#utility.yul\":19275:19281   */\n      dup2\n        /* \"#utility.yul\":19267:19273   */\n      dup5\n        /* \"#utility.yul\":19261:19265   */\n      dup5\n        /* \"#utility.yul\":19217:19282   */\n      tag_201\n      jump\t// in\n    tag_399:\n        /* \"#utility.yul\":19152:19288   */\n      pop\n        /* \"#utility.yul\":19099:19288   */\n      pop\n      pop\n      jump\t// out\n        /* \"#utility.yul\":19294:19480   */\n    tag_204:\n        /* \"#utility.yul\":19354:19474   */\n    tag_401:\n        /* \"#utility.yul\":19371:19374   */\n      dup2\n        /* \"#utility.yul\":19364:19369   */\n      dup2\n        /* \"#utility.yul\":19361:19375   */\n      lt\n        /* \"#utility.yul\":19354:19474   */\n      iszero\n      tag_403\n      jumpi\n        /* \"#utility.yul\":19425:19464   */\n      tag_404\n        /* \"#utility.yul\":19462:19463   */\n      0x00\n        /* \"#utility.yul\":19455:19460   */\n      dup3\n        /* \"#utility.yul\":19425:19464   */\n      tag_203\n      jump\t// in\n    tag_404:\n        /* \"#utility.yul\":19398:19399   */\n      0x01\n        /* \"#utility.yul\":19391:19396   */\n      dup2\n        /* \"#utility.yul\":19387:19400   */\n      add\n        /* \"#utility.yul\":19378:19400   */\n      swap1\n      pop\n        /* \"#utility.yul\":19354:19474   */\n      jump(tag_401)\n    tag_403:\n        /* \"#utility.yul\":19294:19480   */\n      pop\n      pop\n      jump\t// out\n        /* \"#utility.yul\":19486:20029   */\n    tag_205:\n        /* \"#utility.yul\":19587:19589   */\n      0x1f\n        /* \"#utility.yul\":19582:19585   */\n      dup3\n        /* \"#utility.yul\":19579:19590   */\n      gt\n        /* \"#utility.yul\":19576:20022   */\n      iszero\n      tag_406\n      jumpi\n        /* \"#utility.yul\":19621:19659   */\n      tag_407\n        /* \"#utility.yul\":19653:19658   */\n      dup2\n        /* \"#utility.yul\":19621:19659   */\n      tag_194\n      jump\t// in\n    tag_407:\n        /* \"#utility.yul\":19705:19734   */\n      tag_408\n        /* \"#utility.yul\":19723:19733   */\n      dup5\n        /* \"#utility.yul\":19705:19734   */\n      tag_195\n      jump\t// in\n    tag_408:\n        /* \"#utility.yul\":19695:19703   */\n      dup2\n        /* \"#utility.yul\":19691:19735   */\n      add\n        /* \"#utility.yul\":19888:19890   */\n      0x20\n        /* \"#utility.yul\":19876:19886   */\n      dup6\n        /* \"#utility.yul\":19873:19891   */\n      lt\n        /* \"#utility.yul\":19870:19919   */\n      iszero\n      tag_409\n      jumpi\n        /* \"#utility.yul\":19909:19917   */\n      dup2\n        /* \"#utility.yul\":19894:19917   */\n      swap1\n      pop\n        /* \"#utility.yul\":19870:19919   */\n    tag_409:\n        /* \"#utility.yul\":19932:20012   */\n      tag_410\n        /* \"#utility.yul\":19988:20010   */\n      tag_411\n        /* \"#utility.yul\":20006:20009   */\n      dup6\n        /* \"#utility.yul\":19988:20010   */\n      tag_195\n      jump\t// in\n    tag_411:\n        /* \"#utility.yul\":19978:19986   */\n      dup4\n        /* \"#utility.yul\":19974:20011   */\n      add\n        /* \"#utility.yul\":19961:19972   */\n      dup3\n        /* \"#utility.yul\":19932:20012   */\n      tag_204\n      jump\t// in\n    tag_410:\n        /* \"#utility.yul\":19591:20022   */\n      pop\n      pop\n        /* \"#utility.yul\":19576:20022   */\n    tag_406:\n        /* \"#utility.yul\":19486:20029   */\n      pop\n      pop\n      pop\n      jump\t// out\n        /* \"#utility.yul\":20035:20152   */\n    tag_206:\n        /* \"#utility.yul\":20089:20097   */\n      0x00\n        /* \"#utility.yul\":20139:20144   */\n      dup3\n        /* \"#utility.yul\":20133:20137   */\n      dup3\n        /* \"#utility.yul\":20129:20145   */\n      shr\n        /* \"#utility.yul\":20108:20145   */\n      swap1\n      pop\n        /* \"#utility.yul\":20035:20152   */\n      swap3\n      swap2\n      pop\n      pop\n      jump\t// out\n        /* \"#utility.yul\":20158:20327   */\n    tag_207:\n        /* \"#utility.yul\":20202:20208   */\n      0x00\n        /* \"#utility.yul\":20235:20286   */\n      tag_414\n        /* \"#utility.yul\":20283:20284   */\n      0x00\n        /* \"#utility.yul\":20279:20285   */\n      not\n        /* \"#utility.yul\":20271:20276   */\n      dup5\n        /* \"#utility.yul\":20268:20269   */\n      0x08\n        /* \"#utility.yul\":20264:20277   */\n      mul\n        /* \"#utility.yul\":20235:20286   */\n      tag_206\n      jump\t// in\n    tag_414:\n        /* \"#utility.yul\":20231:20287   */\n      not\n        /* \"#utility.yul\":20316:20320   */\n      dup1\n        /* \"#utility.yul\":20310:20314   */\n      dup4\n        /* \"#utility.yul\":20306:20321   */\n      and\n        /* \"#utility.yul\":20296:20321   */\n      swap2\n      pop\n        /* \"#utility.yul\":20209:20327   */\n      pop\n        /* \"#utility.yul\":20158:20327   */\n      swap3\n      swap2\n      pop\n      pop\n      jump\t// out\n        /* \"#utility.yul\":20332:20627   */\n    tag_208:\n        /* \"#utility.yul\":20408:20412   */\n      0x00\n        /* \"#utility.yul\":20554:20583   */\n      tag_416\n        /* \"#utility.yul\":20579:20582   */\n      dup4\n        /* \"#utility.yul\":20573:20577   */\n      dup4\n        /* \"#utility.yul\":20554:20583   */\n      tag_207\n      jump\t// in\n    tag_416:\n        /* \"#utility.yul\":20546:20583   */\n      swap2\n      pop\n        /* \"#utility.yul\":20616:20619   */\n      dup3\n        /* \"#utility.yul\":20613:20614   */\n      0x02\n        /* \"#utility.yul\":20609:20620   */\n      mul\n        /* \"#utility.yul\":20603:20607   */\n      dup3\n        /* \"#utility.yul\":20600:20621   */\n      or\n        /* \"#utility.yul\":20592:20621   */\n      swap1\n      pop\n        /* \"#utility.yul\":20332:20627   */\n      swap3\n      swap2\n      pop\n      pop\n      jump\t// out\n        /* \"#utility.yul\":20632:22027   */\n    tag_84:\n        /* \"#utility.yul\":20749:20786   */\n      tag_418\n        /* \"#utility.yul\":20782:20785   */\n      dup3\n        /* \"#utility.yul\":20749:20786   */\n      tag_158\n      jump\t// in\n    tag_418:\n        /* \"#utility.yul\":20851:20869   */\n      0xffffffffffffffff\n        /* \"#utility.yul\":20843:20849   */\n      dup2\n        /* \"#utility.yul\":20840:20870   */\n      gt\n        /* \"#utility.yul\":20837:20893   */\n      iszero\n      tag_419\n      jumpi\n        /* \"#utility.yul\":20873:20891   */\n      tag_420\n      tag_167\n      jump\t// in\n    tag_420:\n        /* \"#utility.yul\":20837:20893   */\n    tag_419:\n        /* \"#utility.yul\":20917:20955   */\n      tag_421\n        /* \"#utility.yul\":20949:20953   */\n      dup3\n        /* \"#utility.yul\":20943:20954   */\n      sload\n        /* \"#utility.yul\":20917:20955   */\n      tag_55\n      jump\t// in\n    tag_421:\n        /* \"#utility.yul\":21002:21069   */\n      tag_422\n        /* \"#utility.yul\":21062:21068   */\n      dup3\n        /* \"#utility.yul\":21054:21060   */\n      dup3\n        /* \"#utility.yul\":21048:21052   */\n      dup6\n        /* \"#utility.yul\":21002:21069   */\n      tag_205\n      jump\t// in\n    tag_422:\n        /* \"#utility.yul\":21096:21097   */\n      0x00\n        /* \"#utility.yul\":21120:21124   */\n      0x20\n        /* \"#utility.yul\":21107:21124   */\n      swap1\n      pop\n        /* \"#utility.yul\":21152:21154   */\n      0x1f\n        /* \"#utility.yul\":21144:21150   */\n      dup4\n        /* \"#utility.yul\":21141:21155   */\n      gt\n        /* \"#utility.yul\":21169:21170   */\n      0x01\n        /* \"#utility.yul\":21164:21782   */\n      dup2\n      eq\n      tag_424\n      jumpi\n        /* \"#utility.yul\":21826:21827   */\n      0x00\n        /* \"#utility.yul\":21843:21849   */\n      dup5\n        /* \"#utility.yul\":21840:21917   */\n      iszero\n      tag_425\n      jumpi\n        /* \"#utility.yul\":21892:21901   */\n      dup3\n        /* \"#utility.yul\":21887:21890   */\n      dup8\n        /* \"#utility.yul\":21883:21902   */\n      add\n        /* \"#utility.yul\":21877:21903   */\n      mload\n        /* \"#utility.yul\":21868:21903   */\n      swap1\n      pop\n        /* \"#utility.yul\":21840:21917   */\n    tag_425:\n        /* \"#utility.yul\":21943:22010   */\n      tag_426\n        /* \"#utility.yul\":22003:22009   */\n      dup6\n        /* \"#utility.yul\":21996:22001   */\n      dup3\n        /* \"#utility.yul\":21943:22010   */\n      tag_208\n      jump\t// in\n    tag_426:\n        /* \"#utility.yul\":21937:21941   */\n      dup7\n        /* \"#utility.yul\":21930:22011   */\n      sstore\n        /* \"#utility.yul\":21799:22021   */\n      pop\n        /* \"#utility.yul\":21134:22021   */\n      jump(tag_423)\n        /* \"#utility.yul\":21164:21782   */\n    tag_424:\n        /* \"#utility.yul\":21216:21220   */\n      0x1f\n        /* \"#utility.yul\":21212:21221   */\n      not\n        /* \"#utility.yul\":21204:21210   */\n      dup5\n        /* \"#utility.yul\":21200:21222   */\n      and\n        /* \"#utility.yul\":21250:21287   */\n      tag_427\n        /* \"#utility.yul\":21282:21286   */\n      dup7\n        /* \"#utility.yul\":21250:21287   */\n      tag_194\n      jump\t// in\n    tag_427:\n        /* \"#utility.yul\":21309:21310   */\n      0x00\n        /* \"#utility.yul\":21323:21531   */\n    tag_428:\n        /* \"#utility.yul\":21337:21344   */\n      dup3\n        /* \"#utility.yul\":21334:21335   */\n      dup2\n        /* \"#utility.yul\":21331:21345   */\n      lt\n        /* \"#utility.yul\":21323:21531   */\n      iszero\n      tag_430\n      jumpi\n        /* \"#utility.yul\":21416:21425   */\n      dup5\n        /* \"#utility.yul\":21411:21414   */\n      dup10\n        /* \"#utility.yul\":21407:21426   */\n      add\n        /* \"#utility.yul\":21401:21427   */\n      mload\n        /* \"#utility.yul\":21393:21399   */\n      dup3\n        /* \"#utility.yul\":21386:21428   */\n      sstore\n        /* \"#utility.yul\":21467:21468   */\n      0x01\n        /* \"#utility.yul\":21459:21465   */\n      dup3\n        /* \"#utility.yul\":21455:21469   */\n      add\n        /* \"#utility.yul\":21445:21469   */\n      swap2\n      pop\n        /* \"#utility.yul\":21514:21516   */\n      0x20\n        /* \"#utility.yul\":21503:21512   */\n      dup6\n        /* \"#utility.yul\":21499:21517   */\n      add\n        /* \"#utility.yul\":21486:21517   */\n      swap5\n      pop\n        /* \"#utility.yul\":21360:21364   */\n      0x20\n        /* \"#utility.yul\":21357:21358   */\n      dup2\n        /* \"#utility.yul\":21353:21365   */\n      add\n        /* \"#utility.yul\":21348:21365   */\n      swap1\n      pop\n        /* \"#utility.yul\":21323:21531   */\n      jump(tag_428)\n    tag_430:\n        /* \"#utility.yul\":21559:21565   */\n      dup7\n        /* \"#utility.yul\":21550:21557   */\n      dup4\n        /* \"#utility.yul\":21547:21566   */\n      lt\n        /* \"#utility.yul\":21544:21723   */\n      iszero\n      tag_431\n      jumpi\n        /* \"#utility.yul\":21617:21626   */\n      dup5\n        /* \"#utility.yul\":21612:21615   */\n      dup10\n        /* \"#utility.yul\":21608:21627   */\n      add\n        /* \"#utility.yul\":21602:21628   */\n      mload\n        /* \"#utility.yul\":21660:21708   */\n      tag_432\n        /* \"#utility.yul\":21702:21706   */\n      0x1f\n        /* \"#utility.yul\":21694:21700   */\n      dup10\n        /* \"#utility.yul\":21690:21707   */\n      and\n        /* \"#utility.yul\":21679:21688   */\n      dup3\n        /* \"#utility.yul\":21660:21708   */\n      tag_207\n      jump\t// in\n    tag_432:\n        /* \"#utility.yul\":21652:21658   */\n      dup4\n        /* \"#utility.yul\":21645:21709   */\n      sstore\n        /* \"#utility.yul\":21567:21723   */\n      pop\n        /* \"#utility.yul\":21544:21723   */\n    tag_431:\n        /* \"#utility.yul\":21769:21770   */\n      0x01\n        /* \"#utility.yul\":21765:21766   */\n      0x02\n        /* \"#utility.yul\":21757:21763   */\n      dup9\n        /* \"#utility.yul\":21753:21767   */\n      mul\n        /* \"#utility.yul\":21749:21771   */\n      add\n        /* \"#utility.yul\":21743:21747   */\n      dup9\n        /* \"#utility.yul\":21736:21772   */\n      sstore\n        /* \"#utility.yul\":21171:21782   */\n      pop\n      pop\n      pop\n        /* \"#utility.yul\":21134:22021   */\n    tag_423:\n      pop\n        /* \"#utility.yul\":20724:22027   */\n      pop\n      pop\n      pop\n        /* \"#utility.yul\":20632:22027   */\n      pop\n      pop\n      jump\t// out\n        /* \"#utility.yul\":22033:22677   */\n    tag_86:\n        /* \"#utility.yul\":22230:22234   */\n      0x00\n        /* \"#utility.yul\":22268:22271   */\n      0x80\n        /* \"#utility.yul\":22257:22266   */\n      dup3\n        /* \"#utility.yul\":22253:22272   */\n      add\n        /* \"#utility.yul\":22245:22272   */\n      swap1\n      pop\n        /* \"#utility.yul\":22282:22353   */\n      tag_434\n        /* \"#utility.yul\":22350:22351   */\n      0x00\n        /* \"#utility.yul\":22339:22348   */\n      dup4\n        /* \"#utility.yul\":22335:22352   */\n      add\n        /* \"#utility.yul\":22326:22332   */\n      dup8\n        /* \"#utility.yul\":22282:22353   */\n      tag_156\n      jump\t// in\n    tag_434:\n        /* \"#utility.yul\":22400:22409   */\n      dup2\n        /* \"#utility.yul\":22394:22398   */\n      dup2\n        /* \"#utility.yul\":22390:22410   */\n      sub\n        /* \"#utility.yul\":22385:22387   */\n      0x20\n        /* \"#utility.yul\":22374:22383   */\n      dup4\n        /* \"#utility.yul\":22370:22388   */\n      add\n        /* \"#utility.yul\":22363:22411   */\n      mstore\n        /* \"#utility.yul\":22428:22506   */\n      tag_435\n        /* \"#utility.yul\":22501:22505   */\n      dup2\n        /* \"#utility.yul\":22492:22498   */\n      dup7\n        /* \"#utility.yul\":22428:22506   */\n      tag_162\n      jump\t// in\n    tag_435:\n        /* \"#utility.yul\":22420:22506   */\n      swap1\n      pop\n        /* \"#utility.yul\":22516:22588   */\n      tag_436\n        /* \"#utility.yul\":22584:22586   */\n      0x40\n        /* \"#utility.yul\":22573:22582   */\n      dup4\n        /* \"#utility.yul\":22569:22587   */\n      add\n        /* \"#utility.yul\":22560:22566   */\n      dup6\n        /* \"#utility.yul\":22516:22588   */\n      tag_157\n      jump\t// in\n    tag_436:\n        /* \"#utility.yul\":22598:22670   */\n      tag_437\n        /* \"#utility.yul\":22666:22668   */\n      0x60\n        /* \"#utility.yul\":22655:22664   */\n      dup4\n        /* \"#utility.yul\":22651:22669   */\n      add\n        /* \"#utility.yul\":22642:22648   */\n      dup5\n        /* \"#utility.yul\":22598:22670   */\n      tag_156\n      jump\t// in\n    tag_437:\n        /* \"#utility.yul\":22033:22677   */\n      swap6\n      swap5\n      pop\n      pop\n      pop\n      pop\n      pop\n      jump\t// out\n        /* \"#utility.yul\":22683:22849   */\n    tag_209:\n        /* \"#utility.yul\":22823:22841   */\n      0x5468657265206973206e6f206c696b6500000000000000000000000000000000\n        /* \"#utility.yul\":22819:22820   */\n      0x00\n        /* \"#utility.yul\":22811:22817   */\n      dup3\n        /* \"#utility.yul\":22807:22821   */\n      add\n        /* \"#utility.yul\":22800:22842   */\n      mstore\n        /* \"#utility.yul\":22683:22849   */\n      pop\n      jump\t// out\n        /* \"#utility.yul\":22855:23221   */\n    tag_210:\n        /* \"#utility.yul\":22997:23000   */\n      0x00\n        /* \"#utility.yul\":23018:23085   */\n      tag_440\n        /* \"#utility.yul\":23082:23084   */\n      0x10\n        /* \"#utility.yul\":23077:23080   */\n      dup4\n        /* \"#utility.yul\":23018:23085   */\n      tag_159\n      jump\t// in\n    tag_440:\n        /* \"#utility.yul\":23011:23085   */\n      swap2\n      pop\n        /* \"#utility.yul\":23094:23187   */\n      tag_441\n        /* \"#utility.yul\":23183:23186   */\n      dup3\n        /* \"#utility.yul\":23094:23187   */\n      tag_209\n      jump\t// in\n    tag_441:\n        /* \"#utility.yul\":23212:23214   */\n      0x20\n        /* \"#utility.yul\":23207:23210   */\n      dup3\n        /* \"#utility.yul\":23203:23215   */\n      add\n        /* \"#utility.yul\":23196:23215   */\n      swap1\n      pop\n        /* \"#utility.yul\":22855:23221   */\n      swap2\n      swap1\n      pop\n      jump\t// out\n        /* \"#utility.yul\":23227:23646   */\n    tag_113:\n        /* \"#utility.yul\":23393:23397   */\n      0x00\n        /* \"#utility.yul\":23431:23433   */\n      0x20\n        /* \"#utility.yul\":23420:23429   */\n      dup3\n        /* \"#utility.yul\":23416:23434   */\n      add\n        /* \"#utility.yul\":23408:23434   */\n      swap1\n      pop\n        /* \"#utility.yul\":23480:23489   */\n      dup2\n        /* \"#utility.yul\":23474:23478   */\n      dup2\n        /* \"#utility.yul\":23470:23490   */\n      sub\n        /* \"#utility.yul\":23466:23467   */\n      0x00\n        /* \"#utility.yul\":23455:23464   */\n      dup4\n        /* \"#utility.yul\":23451:23468   */\n      add\n        /* \"#utility.yul\":23444:23491   */\n      mstore\n        /* \"#utility.yul\":23508:23639   */\n      tag_443\n        /* \"#utility.yul\":23634:23638   */\n      dup2\n        /* \"#utility.yul\":23508:23639   */\n      tag_210\n      jump\t// in\n    tag_443:\n        /* \"#utility.yul\":23500:23639   */\n      swap1\n      pop\n        /* \"#utility.yul\":23227:23646   */\n      swap2\n      swap1\n      pop\n      jump\t// out\n        /* \"#utility.yul\":23652:23823   */\n    tag_118:\n        /* \"#utility.yul\":23691:23694   */\n      0x00\n        /* \"#utility.yul\":23714:23738   */\n      tag_445\n        /* \"#utility.yul\":23732:23737   */\n      dup3\n        /* \"#utility.yul\":23714:23738   */\n      tag_153\n      jump\t// in\n    tag_445:\n        /* \"#utility.yul\":23705:23738   */\n      swap2\n      pop\n        /* \"#utility.yul\":23760:23764   */\n      0x00\n        /* \"#utility.yul\":23753:23758   */\n      dup3\n        /* \"#utility.yul\":23750:23765   */\n      sub\n        /* \"#utility.yul\":23747:23788   */\n      tag_446\n      jumpi\n        /* \"#utility.yul\":23768:23786   */\n      tag_447\n      tag_191\n      jump\t// in\n    tag_447:\n        /* \"#utility.yul\":23747:23788   */\n    tag_446:\n        /* \"#utility.yul\":23815:23816   */\n      0x01\n        /* \"#utility.yul\":23808:23813   */\n      dup3\n        /* \"#utility.yul\":23804:23817   */\n      sub\n        /* \"#utility.yul\":23797:23817   */\n      swap1\n      pop\n        /* \"#utility.yul\":23652:23823   */\n      swap2\n      swap1\n      pop\n      jump\t// out\n        /* \"#utility.yul\":23829:24000   */\n    tag_211:\n        /* \"#utility.yul\":23969:23992   */\n      0x596f7520617265206e6f7420746865206f776e65720000000000000000000000\n        /* \"#utility.yul\":23965:23966   */\n      0x00\n        /* \"#utility.yul\":23957:23963   */\n      dup3\n        /* \"#utility.yul\":23953:23967   */\n      add\n        /* \"#utility.yul\":23946:23993   */\n      mstore\n        /* \"#utility.yul\":23829:24000   */\n      pop\n      jump\t// out\n        /* \"#utility.yul\":24006:24372   */\n    tag_212:\n        /* \"#utility.yul\":24148:24151   */\n      0x00\n        /* \"#utility.yul\":24169:24236   */\n      tag_450\n        /* \"#utility.yul\":24233:24235   */\n      0x15\n        /* \"#utility.yul\":24228:24231   */\n      dup4\n        /* \"#utility.yul\":24169:24236   */\n      tag_159\n      jump\t// in\n    tag_450:\n        /* \"#utility.yul\":24162:24236   */\n      swap2\n      pop\n        /* \"#utility.yul\":24245:24338   */\n      tag_451\n        /* \"#utility.yul\":24334:24337   */\n      dup3\n        /* \"#utility.yul\":24245:24338   */\n      tag_211\n      jump\t// in\n    tag_451:\n        /* \"#utility.yul\":24363:24365   */\n      0x20\n        /* \"#utility.yul\":24358:24361   */\n      dup3\n        /* \"#utility.yul\":24354:24366   */\n      add\n        /* \"#utility.yul\":24347:24366   */\n      swap1\n      pop\n        /* \"#utility.yul\":24006:24372   */\n      swap2\n      swap1\n      pop\n      jump\t// out\n        /* \"#utility.yul\":24378:24797   */\n    tag_137:\n        /* \"#utility.yul\":24544:24548   */\n      0x00\n        /* \"#utility.yul\":24582:24584   */\n      0x20\n        /* \"#utility.yul\":24571:24580   */\n      dup3\n        /* \"#utility.yul\":24567:24585   */\n      add\n        /* \"#utility.yul\":24559:24585   */\n      swap1\n      pop\n        /* \"#utility.yul\":24631:24640   */\n      dup2\n        /* \"#utility.yul\":24625:24629   */\n      dup2\n        /* \"#utility.yul\":24621:24641   */\n      sub\n        /* \"#utility.yul\":24617:24618   */\n      0x00\n        /* \"#utility.yul\":24606:24615   */\n      dup4\n        /* \"#utility.yul\":24602:24619   */\n      add\n        /* \"#utility.yul\":24595:24642   */\n      mstore\n        /* \"#utility.yul\":24659:24790   */\n      tag_453\n        /* \"#utility.yul\":24785:24789   */\n      dup2\n        /* \"#utility.yul\":24659:24790   */\n      tag_212\n      jump\t// in\n    tag_453:\n        /* \"#utility.yul\":24651:24790   */\n      swap1\n      pop\n        /* \"#utility.yul\":24378:24797   */\n      swap2\n      swap1\n      pop\n      jump\t// out\n\n    auxdata: 0xa2646970667358221220f9e56ce621096a5418ce3dabea2db44fa52306fc51f80a9d23e4e588de693c6464736f6c63430008160033\n}\n",
				"bytecode": {
					"linkReferences": {},
					"object": "608060405261011860015f6101000a81548161ffff021916908361ffff16021790555034801561002d575f80fd5b5033600160026101000a81548173ffffffffffffffffffffffffffffffffffffffff021916908373ffffffffffffffffffffffffffffffffffffffff160217905550611a4a8061007c5f395ff3fe608060405234801561000f575f80fd5b5060043610610091575f3560e01c8063808b0cf111610064578063808b0cf11461011f578063a4d967441461014f578063ae775e951461016b578063b157c73514610187578063dc2ef9c5146101b757610091565b806305a1b4a91461009557806363378216146100c95780636eb10797146100e55780637c9cd2bc14610103575b5f80fd5b6100af60048036038101906100aa9190610e79565b6101d3565b6040516100c0959493929190610f5f565b60405180910390f35b6100e360048036038101906100de9190610e79565b6102c3565b005b6100ed61046f565b6040516100fa9190610fd3565b60405180910390f35b61011d60048036038101906101189190611118565b610482565b005b6101396004803603810190610134919061115f565b610685565b604051610146919061131e565b60405180910390f35b61016960048036038101906101649190611368565b61081f565b005b61018560048036038101906101809190610e79565b6108cd565b005b6101a1600480360381019061019c9190611368565b610b18565b6040516101ae9190611419565b60405180910390f35b6101d160048036038101906101cc9190611439565b610c93565b005b5f602052815f5260405f2081815481106101eb575f80fd5b905f5260205f2090600502015f9150915050805f015490806001015f9054906101000a900473ffffffffffffffffffffffffffffffffffffffff169080600201805461023690611491565b80601f016020809104026020016040519081016040528092919081815260200182805461026290611491565b80156102ad5780601f10610284576101008083540402835291602001916102ad565b820191905f5260205f20905b81548152906001019060200180831161029057829003601f168201915b5050505050908060030154908060040154905085565b805f808473ffffffffffffffffffffffffffffffffffffffff1673ffffffffffffffffffffffffffffffffffffffff1681526020019081526020015f208281548110610312576103116114c1565b5b905f5260205f2090600502015f015414610361576040517f08c379a000000000000000000000000000000000000000000000000000000000815260040161035890611538565b60405180910390fd5b5f808373ffffffffffffffffffffffffffffffffffffffff1673ffffffffffffffffffffffffffffffffffffffff1681526020019081526020015f2081815481106103af576103ae6114c1565b5b905f5260205f2090600502016004015f8154809291906103ce90611583565b91905055507f90a80b7cd7339f7831803030ed92180af565fecf85a310e09a0966eb013f377c81835f808673ffffffffffffffffffffffffffffffffffffffff1673ffffffffffffffffffffffffffffffffffffffff1681526020019081526020015f208481548110610444576104436114c1565b5b905f5260205f20906005020160040154604051610463939291906115ca565b60405180910390a15050565b60015f9054906101000a900461ffff1681565b60015f9054906101000a900461ffff1661ffff16815111156104d9576040517f08c379a00000000000000000000000000000000000000000000000000000000081526004016104d090611649565b60405180910390fd5b5f6040518060a001604052805f803373ffffffffffffffffffffffffffffffffffffffff1673ffffffffffffffffffffffffffffffffffffffff1681526020019081526020015f208054905081526020013373ffffffffffffffffffffffffffffffffffffffff1681526020018381526020014281526020015f81525090505f803373ffffffffffffffffffffffffffffffffffffffff1673ffffffffffffffffffffffffffffffffffffffff1681526020019081526020015f2081908060018154018082558091505060019003905f5260205f2090600502015f909190919091505f820151815f01556020820151816001015f6101000a81548173ffffffffffffffffffffffffffffffffffffffff021916908373ffffffffffffffffffffffffffffffffffffffff160217905550604082015181600201908161061e9190611804565b50606082015181600301556080820151816004015550507f591aa46df5fdd1453cd21da8f5b81ca1dd3f6b4dd289c1761a4c45b679e9b56b815f015182604001518360200151846060015160405161067994939291906118d3565b60405180910390a15050565b60605f808373ffffffffffffffffffffffffffffffffffffffff1673ffffffffffffffffffffffffffffffffffffffff1681526020019081526020015f20805480602002602001604051908101604052809291908181526020015f905b82821015610814578382905f5260205f2090600502016040518060a00160405290815f8201548152602001600182015f9054906101000a900473ffffffffffffffffffffffffffffffffffffffff1673ffffffffffffffffffffffffffffffffffffffff1673ffffffffffffffffffffffffffffffffffffffff16815260200160028201805461077190611491565b80601f016020809104026020016040519081016040528092919081815260200182805461079d90611491565b80156107e85780601f106107bf576101008083540402835291602001916107e8565b820191905f5260205f20905b8154815290600101906020018083116107cb57829003601f168201915b5050505050815260200160038201548152602001600482015481525050815260200190600101906106e2565b505050509050919050565b5f808373ffffffffffffffffffffffffffffffffffffffff1673ffffffffffffffffffffffffffffffffffffffff1681526020019081526020015f208161ffff1681548110610871576108706114c1565b5b905f5260205f2090600502015f8082015f9055600182015f6101000a81549073ffffffffffffffffffffffffffffffffffffffff0219169055600282015f6108b99190610d42565b600382015f9055600482015f905550505050565b805f808473ffffffffffffffffffffffffffffffffffffffff1673ffffffffffffffffffffffffffffffffffffffff1681526020019081526020015f20828154811061091c5761091b6114c1565b5b905f5260205f2090600502015f01541461096b576040517f08c379a000000000000000000000000000000000000000000000000000000000815260040161096290611538565b60405180910390fd5b5f805f8473ffffffffffffffffffffffffffffffffffffffff1673ffffffffffffffffffffffffffffffffffffffff1681526020019081526020015f2082815481106109ba576109b96114c1565b5b905f5260205f2090600502016004015411610a0a576040517f08c379a0000000000000000000000000000000000000000000000000000000008152600401610a0190611967565b60405180910390fd5b5f808373ffffffffffffffffffffffffffffffffffffffff1673ffffffffffffffffffffffffffffffffffffffff1681526020019081526020015f208181548110610a5857610a576114c1565b5b905f5260205f2090600502016004015f815480929190610a7790611985565b91905055507feed56ddeda69fe36292ba71d25b72392fa35fb5ec6cbdaf12a490e469db31d2b81835f808673ffffffffffffffffffffffffffffffffffffffff1673ffffffffffffffffffffffffffffffffffffffff1681526020019081526020015f208481548110610aed57610aec6114c1565b5b905f5260205f20906005020160040154604051610b0c939291906115ca565b60405180910390a15050565b610b20610d7f565b5f808473ffffffffffffffffffffffffffffffffffffffff1673ffffffffffffffffffffffffffffffffffffffff1681526020019081526020015f208261ffff1681548110610b7257610b716114c1565b5b905f5260205f2090600502016040518060a00160405290815f8201548152602001600182015f9054906101000a900473ffffffffffffffffffffffffffffffffffffffff1673ffffffffffffffffffffffffffffffffffffffff1673ffffffffffffffffffffffffffffffffffffffff168152602001600282018054610bf790611491565b80601f0160208091040260200160405190810160405280929190818152602001828054610c2390611491565b8015610c6e5780601f10610c4557610100808354040283529160200191610c6e565b820191905f5260205f20905b815481529060010190602001808311610c5157829003601f168201915b5050505050815260200160038201548152602001600482015481525050905092915050565b3373ffffffffffffffffffffffffffffffffffffffff16600160029054906101000a900473ffffffffffffffffffffffffffffffffffffffff1673ffffffffffffffffffffffffffffffffffffffff1614610d23576040517f08c379a0000000000000000000000000000000000000000000000000000000008152600401610d1a906119f6565b60405180910390fd5b8060015f6101000a81548161ffff021916908361ffff16021790555050565b508054610d4e90611491565b5f825580601f10610d5f5750610d7c565b601f0160209004905f5260205f2090810190610d7b9190610dc0565b5b50565b6040518060a001604052805f81526020015f73ffffffffffffffffffffffffffffffffffffffff168152602001606081526020015f81526020015f81525090565b5b80821115610dd7575f815f905550600101610dc1565b5090565b5f604051905090565b5f80fd5b5f80fd5b5f73ffffffffffffffffffffffffffffffffffffffff82169050919050565b5f610e1582610dec565b9050919050565b610e2581610e0b565b8114610e2f575f80fd5b50565b5f81359050610e4081610e1c565b92915050565b5f819050919050565b610e5881610e46565b8114610e62575f80fd5b50565b5f81359050610e7381610e4f565b92915050565b5f8060408385031215610e8f57610e8e610de4565b5b5f610e9c85828601610e32565b9250506020610ead85828601610e65565b9150509250929050565b610ec081610e46565b82525050565b610ecf81610e0b565b82525050565b5f81519050919050565b5f82825260208201905092915050565b5f5b83811015610f0c578082015181840152602081019050610ef1565b5f8484015250505050565b5f601f19601f8301169050919050565b5f610f3182610ed5565b610f3b8185610edf565b9350610f4b818560208601610eef565b610f5481610f17565b840191505092915050565b5f60a082019050610f725f830188610eb7565b610f7f6020830187610ec6565b8181036040830152610f918186610f27565b9050610fa06060830185610eb7565b610fad6080830184610eb7565b9695505050505050565b5f61ffff82169050919050565b610fcd81610fb7565b82525050565b5f602082019050610fe65f830184610fc4565b92915050565b5f80fd5b5f80fd5b7f4e487b71000000000000000000000000000000000000000000000000000000005f52604160045260245ffd5b61102a82610f17565b810181811067ffffffffffffffff8211171561104957611048610ff4565b5b80604052505050565b5f61105b610ddb565b90506110678282611021565b919050565b5f67ffffffffffffffff82111561108657611085610ff4565b5b61108f82610f17565b9050602081019050919050565b828183375f83830152505050565b5f6110bc6110b78461106c565b611052565b9050828152602081018484840111156110d8576110d7610ff0565b5b6110e384828561109c565b509392505050565b5f82601f8301126110ff576110fe610fec565b5b813561110f8482602086016110aa565b91505092915050565b5f6020828403121561112d5761112c610de4565b5b5f82013567ffffffffffffffff81111561114a57611149610de8565b5b611156848285016110eb565b91505092915050565b5f6020828403121561117457611173610de4565b5b5f61118184828501610e32565b91505092915050565b5f81519050919050565b5f82825260208201905092915050565b5f819050602082019050919050565b6111bc81610e46565b82525050565b6111cb81610e0b565b82525050565b5f82825260208201905092915050565b5f6111eb82610ed5565b6111f581856111d1565b9350611205818560208601610eef565b61120e81610f17565b840191505092915050565b5f60a083015f83015161122e5f8601826111b3565b50602083015161124160208601826111c2565b506040830151848203604086015261125982826111e1565b915050606083015161126e60608601826111b3565b50608083015161128160808601826111b3565b508091505092915050565b5f6112978383611219565b905092915050565b5f602082019050919050565b5f6112b58261118a565b6112bf8185611194565b9350836020820285016112d1856111a4565b805f5b8581101561130c57848403895281516112ed858261128c565b94506112f88361129f565b925060208a019950506001810190506112d4565b50829750879550505050505092915050565b5f6020820190508181035f83015261133681846112ab565b905092915050565b61134781610fb7565b8114611351575f80fd5b50565b5f813590506113628161133e565b92915050565b5f806040838503121561137e5761137d610de4565b5b5f61138b85828601610e32565b925050602061139c85828601611354565b9150509250929050565b5f60a083015f8301516113bb5f8601826111b3565b5060208301516113ce60208601826111c2565b50604083015184820360408601526113e682826111e1565b91505060608301516113fb60608601826111b3565b50608083015161140e60808601826111b3565b508091505092915050565b5f6020820190508181035f83015261143181846113a6565b905092915050565b5f6020828403121561144e5761144d610de4565b5b5f61145b84828501611354565b91505092915050565b7f4e487b71000000000000000000000000000000000000000000000000000000005f52602260045260245ffd5b5f60028204905060018216806114a857607f821691505b6020821081036114bb576114ba611464565b5b50919050565b7f4e487b71000000000000000000000000000000000000000000000000000000005f52603260045260245ffd5b7f547765657420646f65736e2774206578697374000000000000000000000000005f82015250565b5f611522601383610edf565b915061152d826114ee565b602082019050919050565b5f6020820190508181035f83015261154f81611516565b9050919050565b7f4e487b71000000000000000000000000000000000000000000000000000000005f52601160045260245ffd5b5f61158d82610e46565b91507fffffffffffffffffffffffffffffffffffffffffffffffffffffffffffffffff82036115bf576115be611556565b5b600182019050919050565b5f6060820190506115dd5f830186610eb7565b6115ea6020830185610ec6565b6115f76040830184610eb7565b949350505050565b7f596f757220547765657420697320746f6f206c6f6e67000000000000000000005f82015250565b5f611633601683610edf565b915061163e826115ff565b602082019050919050565b5f6020820190508181035f83015261166081611627565b9050919050565b5f819050815f5260205f209050919050565b5f6020601f8301049050919050565b5f82821b905092915050565b5f600883026116c37fffffffffffffffffffffffffffffffffffffffffffffffffffffffffffffffff82611688565b6116cd8683611688565b95508019841693508086168417925050509392505050565b5f819050919050565b5f6117086117036116fe84610e46565b6116e5565b610e46565b9050919050565b5f819050919050565b611721836116ee565b61173561172d8261170f565b848454611694565b825550505050565b5f90565b61174961173d565b611754818484611718565b505050565b5b818110156117775761176c5f82611741565b60018101905061175a565b5050565b601f8211156117bc5761178d81611667565b61179684611679565b810160208510156117a5578190505b6117b96117b185611679565b830182611759565b50505b505050565b5f82821c905092915050565b5f6117dc5f19846008026117c1565b1980831691505092915050565b5f6117f483836117cd565b9150826002028217905092915050565b61180d82610ed5565b67ffffffffffffffff81111561182657611825610ff4565b5b6118308254611491565b61183b82828561177b565b5f60209050601f83116001811461186c575f841561185a578287015190505b61186485826117e9565b8655506118cb565b601f19841661187a86611667565b5f5b828110156118a15784890151825560018201915060208501945060208101905061187c565b868310156118be57848901516118ba601f8916826117cd565b8355505b6001600288020188555050505b505050505050565b5f6080820190506118e65f830187610eb7565b81810360208301526118f88186610f27565b90506119076040830185610ec6565b6119146060830184610eb7565b95945050505050565b7f5468657265206973206e6f206c696b65000000000000000000000000000000005f82015250565b5f611951601083610edf565b915061195c8261191d565b602082019050919050565b5f6020820190508181035f83015261197e81611945565b9050919050565b5f61198f82610e46565b91505f82036119a1576119a0611556565b5b600182039050919050565b7f596f7520617265206e6f7420746865206f776e657200000000000000000000005f82015250565b5f6119e0601583610edf565b91506119eb826119ac565b602082019050919050565b5f6020820190508181035f830152611a0d816119d4565b905091905056fea2646970667358221220f9e56ce621096a5418ce3dabea2db44fa52306fc51f80a9d23e4e588de693c6464736f6c63430008160033",
					"opcodes": "PUSH1 0x80 PUSH1 0x40 MSTORE PUSH2 0x118 PUSH1 0x1 PUSH0 PUSH2 0x100 EXP DUP2 SLOAD DUP2 PUSH2 0xFFFF MUL NOT AND SWAP1 DUP4 PUSH2 0xFFFF AND MUL OR SWAP1 SSTORE POP CALLVALUE DUP1 ISZERO PUSH2 0x2D JUMPI PUSH0 DUP1 REVERT JUMPDEST POP CALLER PUSH1 0x1 PUSH1 0x2 PUSH2 0x100 EXP DUP2 SLOAD DUP2 PUSH20 0xFFFFFFFFFFFFFFFFFFFFFFFFFFFFFFFFFFFFFFFF MUL NOT AND SWAP1 DUP4 PUSH20 0xFFFFFFFFFFFFFFFFFFFFFFFFFFFFFFFFFFFFFFFF AND MUL OR SWAP1 SSTORE POP PUSH2 0x1A4A DUP1 PUSH2 0x7C PUSH0 CODECOPY PUSH0 RETURN INVALID PUSH1 0x80 PUSH1 0x40 MSTORE CALLVALUE DUP1 ISZERO PUSH2 0xF JUMPI PUSH0 DUP1 REVERT JUMPDEST POP PUSH1 0x4 CALLDATASIZE LT PUSH2 0x91 JUMPI PUSH0 CALLDATALOAD PUSH1 0xE0 SHR DUP1 PUSH4 0x808B0CF1 GT PUSH2 0x64 JUMPI DUP1 PUSH4 0x808B0CF1 EQ PUSH2 0x11F JUMPI DUP1 PUSH4 0xA4D96744 EQ PUSH2 0x14F JUMPI DUP1 PUSH4 0xAE775E95 EQ PUSH2 0x16B JUMPI DUP1 PUSH4 0xB157C735 EQ PUSH2 0x187 JUMPI DUP1 PUSH4 0xDC2EF9C5 EQ PUSH2 0x1B7 JUMPI PUSH2 0x91 JUMP JUMPDEST DUP1 PUSH4 0x5A1B4A9 EQ PUSH2 0x95 JUMPI DUP1 PUSH4 0x63378216 EQ PUSH2 0xC9 JUMPI DUP1 PUSH4 0x6EB10797 EQ PUSH2 0xE5 JUMPI DUP1 PUSH4 0x7C9CD2BC EQ PUSH2 0x103 JUMPI JUMPDEST PUSH0 DUP1 REVERT JUMPDEST PUSH2 0xAF PUSH1 0x4 DUP1 CALLDATASIZE SUB DUP2 ADD SWAP1 PUSH2 0xAA SWAP2 SWAP1 PUSH2 0xE79 JUMP JUMPDEST PUSH2 0x1D3 JUMP JUMPDEST PUSH1 0x40 MLOAD PUSH2 0xC0 SWAP6 SWAP5 SWAP4 SWAP3 SWAP2 SWAP1 PUSH2 0xF5F JUMP JUMPDEST PUSH1 0x40 MLOAD DUP1 SWAP2 SUB SWAP1 RETURN JUMPDEST PUSH2 0xE3 PUSH1 0x4 DUP1 CALLDATASIZE SUB DUP2 ADD SWAP1 PUSH2 0xDE SWAP2 SWAP1 PUSH2 0xE79 JUMP JUMPDEST PUSH2 0x2C3 JUMP JUMPDEST STOP JUMPDEST PUSH2 0xED PUSH2 0x46F JUMP JUMPDEST PUSH1 0x40 MLOAD PUSH2 0xFA SWAP2 SWAP1 PUSH2 0xFD3 JUMP JUMPDEST PUSH1 0x40 MLOAD DUP1 SWAP2 SUB SWAP1 RETURN JUMPDEST PUSH2 0x11D PUSH1 0x4 DUP1 CALLDATASIZE SUB DUP2 ADD SWAP1 PUSH2 0x118 SWAP2 SWAP1 PUSH2 0x1118 JUMP JUMPDEST PUSH2 0x482 JUMP JUMPDEST STOP JUMPDEST PUSH2 0x139 PUSH1 0x4 DUP1 CALLDATASIZE SUB DUP2 ADD SWAP1 PUSH2 0x134 SWAP2 SWAP1 PUSH2 0x115F JUMP JUMPDEST PUSH2 0x685 JUMP JUMPDEST PUSH1 0x40 MLOAD PUSH2 0x146 SWAP2 SWAP1 PUSH2 0x131E JUMP JUMPDEST PUSH1 0x40 MLOAD DUP1 SWAP2 SUB SWAP1 RETURN JUMPDEST PUSH2 0x169 PUSH1 0x4 DUP1 CALLDATASIZE SUB DUP2 ADD SWAP1 PUSH2 0x164 SWAP2 SWAP1 PUSH2 0x1368 JUMP JUMPDEST PUSH2 0x81F JUMP JUMPDEST STOP JUMPDEST PUSH2 0x185 PUSH1 0x4 DUP1 CALLDATASIZE SUB DUP2 ADD SWAP1 PUSH2 0x180 SWAP2 SWAP1 PUSH2 0xE79 JUMP JUMPDEST PUSH2 0x8CD JUMP JUMPDEST STOP JUMPDEST PUSH2 0x1A1 PUSH1 0x4 DUP1 CALLDATASIZE SUB DUP2 ADD SWAP1 PUSH2 0x19C SWAP2 SWAP1 PUSH2 0x1368 JUMP JUMPDEST PUSH2 0xB18 JUMP JUMPDEST PUSH1 0x40 MLOAD PUSH2 0x1AE SWAP2 SWAP1 PUSH2 0x1419 JUMP JUMPDEST PUSH1 0x40 MLOAD DUP1 SWAP2 SUB SWAP1 RETURN JUMPDEST PUSH2 0x1D1 PUSH1 0x4 DUP1 CALLDATASIZE SUB DUP2 ADD SWAP1 PUSH2 0x1CC SWAP2 SWAP1 PUSH2 0x1439 JUMP JUMPDEST PUSH2 0xC93 JUMP JUMPDEST STOP JUMPDEST PUSH0 PUSH1 0x20 MSTORE DUP2 PUSH0 MSTORE PUSH1 0x40 PUSH0 KECCAK256 DUP2 DUP2 SLOAD DUP2 LT PUSH2 0x1EB JUMPI PUSH0 DUP1 REVERT JUMPDEST SWAP1 PUSH0 MSTORE PUSH1 0x20 PUSH0 KECCAK256 SWAP1 PUSH1 0x5 MUL ADD PUSH0 SWAP2 POP SWAP2 POP POP DUP1 PUSH0 ADD SLOAD SWAP1 DUP1 PUSH1 0x1 ADD PUSH0 SWAP1 SLOAD SWAP1 PUSH2 0x100 EXP SWAP1 DIV PUSH20 0xFFFFFFFFFFFFFFFFFFFFFFFFFFFFFFFFFFFFFFFF AND SWAP1 DUP1 PUSH1 0x2 ADD DUP1 SLOAD PUSH2 0x236 SWAP1 PUSH2 0x1491 JUMP JUMPDEST DUP1 PUSH1 0x1F ADD PUSH1 0x20 DUP1 SWAP2 DIV MUL PUSH1 0x20 ADD PUSH1 0x40 MLOAD SWAP1 DUP2 ADD PUSH1 0x40 MSTORE DUP1 SWAP3 SWAP2 SWAP1 DUP2 DUP2 MSTORE PUSH1 0x20 ADD DUP3 DUP1 SLOAD PUSH2 0x262 SWAP1 PUSH2 0x1491 JUMP JUMPDEST DUP1 ISZERO PUSH2 0x2AD JUMPI DUP1 PUSH1 0x1F LT PUSH2 0x284 JUMPI PUSH2 0x100 DUP1 DUP4 SLOAD DIV MUL DUP4 MSTORE SWAP2 PUSH1 0x20 ADD SWAP2 PUSH2 0x2AD JUMP JUMPDEST DUP3 ADD SWAP2 SWAP1 PUSH0 MSTORE PUSH1 0x20 PUSH0 KECCAK256 SWAP1 JUMPDEST DUP2 SLOAD DUP2 MSTORE SWAP1 PUSH1 0x1 ADD SWAP1 PUSH1 0x20 ADD DUP1 DUP4 GT PUSH2 0x290 JUMPI DUP3 SWAP1 SUB PUSH1 0x1F AND DUP3 ADD SWAP2 JUMPDEST POP POP POP POP POP SWAP1 DUP1 PUSH1 0x3 ADD SLOAD SWAP1 DUP1 PUSH1 0x4 ADD SLOAD SWAP1 POP DUP6 JUMP JUMPDEST DUP1 PUSH0 DUP1 DUP5 PUSH20 0xFFFFFFFFFFFFFFFFFFFFFFFFFFFFFFFFFFFFFFFF AND PUSH20 0xFFFFFFFFFFFFFFFFFFFFFFFFFFFFFFFFFFFFFFFF AND DUP2 MSTORE PUSH1 0x20 ADD SWAP1 DUP2 MSTORE PUSH1 0x20 ADD PUSH0 KECCAK256 DUP3 DUP2 SLOAD DUP2 LT PUSH2 0x312 JUMPI PUSH2 0x311 PUSH2 0x14C1 JUMP JUMPDEST JUMPDEST SWAP1 PUSH0 MSTORE PUSH1 0x20 PUSH0 KECCAK256 SWAP1 PUSH1 0x5 MUL ADD PUSH0 ADD SLOAD EQ PUSH2 0x361 JUMPI PUSH1 0x40 MLOAD PUSH32 0x8C379A000000000000000000000000000000000000000000000000000000000 DUP2 MSTORE PUSH1 0x4 ADD PUSH2 0x358 SWAP1 PUSH2 0x1538 JUMP JUMPDEST PUSH1 0x40 MLOAD DUP1 SWAP2 SUB SWAP1 REVERT JUMPDEST PUSH0 DUP1 DUP4 PUSH20 0xFFFFFFFFFFFFFFFFFFFFFFFFFFFFFFFFFFFFFFFF AND PUSH20 0xFFFFFFFFFFFFFFFFFFFFFFFFFFFFFFFFFFFFFFFF AND DUP2 MSTORE PUSH1 0x20 ADD SWAP1 DUP2 MSTORE PUSH1 0x20 ADD PUSH0 KECCAK256 DUP2 DUP2 SLOAD DUP2 LT PUSH2 0x3AF JUMPI PUSH2 0x3AE PUSH2 0x14C1 JUMP JUMPDEST JUMPDEST SWAP1 PUSH0 MSTORE PUSH1 0x20 PUSH0 KECCAK256 SWAP1 PUSH1 0x5 MUL ADD PUSH1 0x4 ADD PUSH0 DUP2 SLOAD DUP1 SWAP3 SWAP2 SWAP1 PUSH2 0x3CE SWAP1 PUSH2 0x1583 JUMP JUMPDEST SWAP2 SWAP1 POP SSTORE POP PUSH32 0x90A80B7CD7339F7831803030ED92180AF565FECF85A310E09A0966EB013F377C DUP2 DUP4 PUSH0 DUP1 DUP7 PUSH20 0xFFFFFFFFFFFFFFFFFFFFFFFFFFFFFFFFFFFFFFFF AND PUSH20 0xFFFFFFFFFFFFFFFFFFFFFFFFFFFFFFFFFFFFFFFF AND DUP2 MSTORE PUSH1 0x20 ADD SWAP1 DUP2 MSTORE PUSH1 0x20 ADD PUSH0 KECCAK256 DUP5 DUP2 SLOAD DUP2 LT PUSH2 0x444 JUMPI PUSH2 0x443 PUSH2 0x14C1 JUMP JUMPDEST JUMPDEST SWAP1 PUSH0 MSTORE PUSH1 0x20 PUSH0 KECCAK256 SWAP1 PUSH1 0x5 MUL ADD PUSH1 0x4 ADD SLOAD PUSH1 0x40 MLOAD PUSH2 0x463 SWAP4 SWAP3 SWAP2 SWAP1 PUSH2 0x15CA JUMP JUMPDEST PUSH1 0x40 MLOAD DUP1 SWAP2 SUB SWAP1 LOG1 POP POP JUMP JUMPDEST PUSH1 0x1 PUSH0 SWAP1 SLOAD SWAP1 PUSH2 0x100 EXP SWAP1 DIV PUSH2 0xFFFF AND DUP2 JUMP JUMPDEST PUSH1 0x1 PUSH0 SWAP1 SLOAD SWAP1 PUSH2 0x100 EXP SWAP1 DIV PUSH2 0xFFFF AND PUSH2 0xFFFF AND DUP2 MLOAD GT ISZERO PUSH2 0x4D9 JUMPI PUSH1 0x40 MLOAD PUSH32 0x8C379A000000000000000000000000000000000000000000000000000000000 DUP2 MSTORE PUSH1 0x4 ADD PUSH2 0x4D0 SWAP1 PUSH2 0x1649 JUMP JUMPDEST PUSH1 0x40 MLOAD DUP1 SWAP2 SUB SWAP1 REVERT JUMPDEST PUSH0 PUSH1 0x40 MLOAD DUP1 PUSH1 0xA0 ADD PUSH1 0x40 MSTORE DUP1 PUSH0 DUP1 CALLER PUSH20 0xFFFFFFFFFFFFFFFFFFFFFFFFFFFFFFFFFFFFFFFF AND PUSH20 0xFFFFFFFFFFFFFFFFFFFFFFFFFFFFFFFFFFFFFFFF AND DUP2 MSTORE PUSH1 0x20 ADD SWAP1 DUP2 MSTORE PUSH1 0x20 ADD PUSH0 KECCAK256 DUP1 SLOAD SWAP1 POP DUP2 MSTORE PUSH1 0x20 ADD CALLER PUSH20 0xFFFFFFFFFFFFFFFFFFFFFFFFFFFFFFFFFFFFFFFF AND DUP2 MSTORE PUSH1 0x20 ADD DUP4 DUP2 MSTORE PUSH1 0x20 ADD TIMESTAMP DUP2 MSTORE PUSH1 0x20 ADD PUSH0 DUP2 MSTORE POP SWAP1 POP PUSH0 DUP1 CALLER PUSH20 0xFFFFFFFFFFFFFFFFFFFFFFFFFFFFFFFFFFFFFFFF AND PUSH20 0xFFFFFFFFFFFFFFFFFFFFFFFFFFFFFFFFFFFFFFFF AND DUP2 MSTORE PUSH1 0x20 ADD SWAP1 DUP2 MSTORE PUSH1 0x20 ADD PUSH0 KECCAK256 DUP2 SWAP1 DUP1 PUSH1 0x1 DUP2 SLOAD ADD DUP1 DUP3 SSTORE DUP1 SWAP2 POP POP PUSH1 0x1 SWAP1 SUB SWAP1 PUSH0 MSTORE PUSH1 0x20 PUSH0 KECCAK256 SWAP1 PUSH1 0x5 MUL ADD PUSH0 SWAP1 SWAP2 SWAP1 SWAP2 SWAP1 SWAP2 POP PUSH0 DUP3 ADD MLOAD DUP2 PUSH0 ADD SSTORE PUSH1 0x20 DUP3 ADD MLOAD DUP2 PUSH1 0x1 ADD PUSH0 PUSH2 0x100 EXP DUP2 SLOAD DUP2 PUSH20 0xFFFFFFFFFFFFFFFFFFFFFFFFFFFFFFFFFFFFFFFF MUL NOT AND SWAP1 DUP4 PUSH20 0xFFFFFFFFFFFFFFFFFFFFFFFFFFFFFFFFFFFFFFFF AND MUL OR SWAP1 SSTORE POP PUSH1 0x40 DUP3 ADD MLOAD DUP2 PUSH1 0x2 ADD SWAP1 DUP2 PUSH2 0x61E SWAP2 SWAP1 PUSH2 0x1804 JUMP JUMPDEST POP PUSH1 0x60 DUP3 ADD MLOAD DUP2 PUSH1 0x3 ADD SSTORE PUSH1 0x80 DUP3 ADD MLOAD DUP2 PUSH1 0x4 ADD SSTORE POP POP PUSH32 0x591AA46DF5FDD1453CD21DA8F5B81CA1DD3F6B4DD289C1761A4C45B679E9B56B DUP2 PUSH0 ADD MLOAD DUP3 PUSH1 0x40 ADD MLOAD DUP4 PUSH1 0x20 ADD MLOAD DUP5 PUSH1 0x60 ADD MLOAD PUSH1 0x40 MLOAD PUSH2 0x679 SWAP5 SWAP4 SWAP3 SWAP2 SWAP1 PUSH2 0x18D3 JUMP JUMPDEST PUSH1 0x40 MLOAD DUP1 SWAP2 SUB SWAP1 LOG1 POP POP JUMP JUMPDEST PUSH1 0x60 PUSH0 DUP1 DUP4 PUSH20 0xFFFFFFFFFFFFFFFFFFFFFFFFFFFFFFFFFFFFFFFF AND PUSH20 0xFFFFFFFFFFFFFFFFFFFFFFFFFFFFFFFFFFFFFFFF AND DUP2 MSTORE PUSH1 0x20 ADD SWAP1 DUP2 MSTORE PUSH1 0x20 ADD PUSH0 KECCAK256 DUP1 SLOAD DUP1 PUSH1 0x20 MUL PUSH1 0x20 ADD PUSH1 0x40 MLOAD SWAP1 DUP2 ADD PUSH1 0x40 MSTORE DUP1 SWAP3 SWAP2 SWAP1 DUP2 DUP2 MSTORE PUSH1 0x20 ADD PUSH0 SWAP1 JUMPDEST DUP3 DUP3 LT ISZERO PUSH2 0x814 JUMPI DUP4 DUP3 SWAP1 PUSH0 MSTORE PUSH1 0x20 PUSH0 KECCAK256 SWAP1 PUSH1 0x5 MUL ADD PUSH1 0x40 MLOAD DUP1 PUSH1 0xA0 ADD PUSH1 0x40 MSTORE SWAP1 DUP2 PUSH0 DUP3 ADD SLOAD DUP2 MSTORE PUSH1 0x20 ADD PUSH1 0x1 DUP3 ADD PUSH0 SWAP1 SLOAD SWAP1 PUSH2 0x100 EXP SWAP1 DIV PUSH20 0xFFFFFFFFFFFFFFFFFFFFFFFFFFFFFFFFFFFFFFFF AND PUSH20 0xFFFFFFFFFFFFFFFFFFFFFFFFFFFFFFFFFFFFFFFF AND PUSH20 0xFFFFFFFFFFFFFFFFFFFFFFFFFFFFFFFFFFFFFFFF AND DUP2 MSTORE PUSH1 0x20 ADD PUSH1 0x2 DUP3 ADD DUP1 SLOAD PUSH2 0x771 SWAP1 PUSH2 0x1491 JUMP JUMPDEST DUP1 PUSH1 0x1F ADD PUSH1 0x20 DUP1 SWAP2 DIV MUL PUSH1 0x20 ADD PUSH1 0x40 MLOAD SWAP1 DUP2 ADD PUSH1 0x40 MSTORE DUP1 SWAP3 SWAP2 SWAP1 DUP2 DUP2 MSTORE PUSH1 0x20 ADD DUP3 DUP1 SLOAD PUSH2 0x79D SWAP1 PUSH2 0x1491 JUMP JUMPDEST DUP1 ISZERO PUSH2 0x7E8 JUMPI DUP1 PUSH1 0x1F LT PUSH2 0x7BF JUMPI PUSH2 0x100 DUP1 DUP4 SLOAD DIV MUL DUP4 MSTORE SWAP2 PUSH1 0x20 ADD SWAP2 PUSH2 0x7E8 JUMP JUMPDEST DUP3 ADD SWAP2 SWAP1 PUSH0 MSTORE PUSH1 0x20 PUSH0 KECCAK256 SWAP1 JUMPDEST DUP2 SLOAD DUP2 MSTORE SWAP1 PUSH1 0x1 ADD SWAP1 PUSH1 0x20 ADD DUP1 DUP4 GT PUSH2 0x7CB JUMPI DUP3 SWAP1 SUB PUSH1 0x1F AND DUP3 ADD SWAP2 JUMPDEST POP POP POP POP POP DUP2 MSTORE PUSH1 0x20 ADD PUSH1 0x3 DUP3 ADD SLOAD DUP2 MSTORE PUSH1 0x20 ADD PUSH1 0x4 DUP3 ADD SLOAD DUP2 MSTORE POP POP DUP2 MSTORE PUSH1 0x20 ADD SWAP1 PUSH1 0x1 ADD SWAP1 PUSH2 0x6E2 JUMP JUMPDEST POP POP POP POP SWAP1 POP SWAP2 SWAP1 POP JUMP JUMPDEST PUSH0 DUP1 DUP4 PUSH20 0xFFFFFFFFFFFFFFFFFFFFFFFFFFFFFFFFFFFFFFFF AND PUSH20 0xFFFFFFFFFFFFFFFFFFFFFFFFFFFFFFFFFFFFFFFF AND DUP2 MSTORE PUSH1 0x20 ADD SWAP1 DUP2 MSTORE PUSH1 0x20 ADD PUSH0 KECCAK256 DUP2 PUSH2 0xFFFF AND DUP2 SLOAD DUP2 LT PUSH2 0x871 JUMPI PUSH2 0x870 PUSH2 0x14C1 JUMP JUMPDEST JUMPDEST SWAP1 PUSH0 MSTORE PUSH1 0x20 PUSH0 KECCAK256 SWAP1 PUSH1 0x5 MUL ADD PUSH0 DUP1 DUP3 ADD PUSH0 SWAP1 SSTORE PUSH1 0x1 DUP3 ADD PUSH0 PUSH2 0x100 EXP DUP2 SLOAD SWAP1 PUSH20 0xFFFFFFFFFFFFFFFFFFFFFFFFFFFFFFFFFFFFFFFF MUL NOT AND SWAP1 SSTORE PUSH1 0x2 DUP3 ADD PUSH0 PUSH2 0x8B9 SWAP2 SWAP1 PUSH2 0xD42 JUMP JUMPDEST PUSH1 0x3 DUP3 ADD PUSH0 SWAP1 SSTORE PUSH1 0x4 DUP3 ADD PUSH0 SWAP1 SSTORE POP POP POP POP JUMP JUMPDEST DUP1 PUSH0 DUP1 DUP5 PUSH20 0xFFFFFFFFFFFFFFFFFFFFFFFFFFFFFFFFFFFFFFFF AND PUSH20 0xFFFFFFFFFFFFFFFFFFFFFFFFFFFFFFFFFFFFFFFF AND DUP2 MSTORE PUSH1 0x20 ADD SWAP1 DUP2 MSTORE PUSH1 0x20 ADD PUSH0 KECCAK256 DUP3 DUP2 SLOAD DUP2 LT PUSH2 0x91C JUMPI PUSH2 0x91B PUSH2 0x14C1 JUMP JUMPDEST JUMPDEST SWAP1 PUSH0 MSTORE PUSH1 0x20 PUSH0 KECCAK256 SWAP1 PUSH1 0x5 MUL ADD PUSH0 ADD SLOAD EQ PUSH2 0x96B JUMPI PUSH1 0x40 MLOAD PUSH32 0x8C379A000000000000000000000000000000000000000000000000000000000 DUP2 MSTORE PUSH1 0x4 ADD PUSH2 0x962 SWAP1 PUSH2 0x1538 JUMP JUMPDEST PUSH1 0x40 MLOAD DUP1 SWAP2 SUB SWAP1 REVERT JUMPDEST PUSH0 DUP1 PUSH0 DUP5 PUSH20 0xFFFFFFFFFFFFFFFFFFFFFFFFFFFFFFFFFFFFFFFF AND PUSH20 0xFFFFFFFFFFFFFFFFFFFFFFFFFFFFFFFFFFFFFFFF AND DUP2 MSTORE PUSH1 0x20 ADD SWAP1 DUP2 MSTORE PUSH1 0x20 ADD PUSH0 KECCAK256 DUP3 DUP2 SLOAD DUP2 LT PUSH2 0x9BA JUMPI PUSH2 0x9B9 PUSH2 0x14C1 JUMP JUMPDEST JUMPDEST SWAP1 PUSH0 MSTORE PUSH1 0x20 PUSH0 KECCAK256 SWAP1 PUSH1 0x5 MUL ADD PUSH1 0x4 ADD SLOAD GT PUSH2 0xA0A JUMPI PUSH1 0x40 MLOAD PUSH32 0x8C379A000000000000000000000000000000000000000000000000000000000 DUP2 MSTORE PUSH1 0x4 ADD PUSH2 0xA01 SWAP1 PUSH2 0x1967 JUMP JUMPDEST PUSH1 0x40 MLOAD DUP1 SWAP2 SUB SWAP1 REVERT JUMPDEST PUSH0 DUP1 DUP4 PUSH20 0xFFFFFFFFFFFFFFFFFFFFFFFFFFFFFFFFFFFFFFFF AND PUSH20 0xFFFFFFFFFFFFFFFFFFFFFFFFFFFFFFFFFFFFFFFF AND DUP2 MSTORE PUSH1 0x20 ADD SWAP1 DUP2 MSTORE PUSH1 0x20 ADD PUSH0 KECCAK256 DUP2 DUP2 SLOAD DUP2 LT PUSH2 0xA58 JUMPI PUSH2 0xA57 PUSH2 0x14C1 JUMP JUMPDEST JUMPDEST SWAP1 PUSH0 MSTORE PUSH1 0x20 PUSH0 KECCAK256 SWAP1 PUSH1 0x5 MUL ADD PUSH1 0x4 ADD PUSH0 DUP2 SLOAD DUP1 SWAP3 SWAP2 SWAP1 PUSH2 0xA77 SWAP1 PUSH2 0x1985 JUMP JUMPDEST SWAP2 SWAP1 POP SSTORE POP PUSH32 0xEED56DDEDA69FE36292BA71D25B72392FA35FB5EC6CBDAF12A490E469DB31D2B DUP2 DUP4 PUSH0 DUP1 DUP7 PUSH20 0xFFFFFFFFFFFFFFFFFFFFFFFFFFFFFFFFFFFFFFFF AND PUSH20 0xFFFFFFFFFFFFFFFFFFFFFFFFFFFFFFFFFFFFFFFF AND DUP2 MSTORE PUSH1 0x20 ADD SWAP1 DUP2 MSTORE PUSH1 0x20 ADD PUSH0 KECCAK256 DUP5 DUP2 SLOAD DUP2 LT PUSH2 0xAED JUMPI PUSH2 0xAEC PUSH2 0x14C1 JUMP JUMPDEST JUMPDEST SWAP1 PUSH0 MSTORE PUSH1 0x20 PUSH0 KECCAK256 SWAP1 PUSH1 0x5 MUL ADD PUSH1 0x4 ADD SLOAD PUSH1 0x40 MLOAD PUSH2 0xB0C SWAP4 SWAP3 SWAP2 SWAP1 PUSH2 0x15CA JUMP JUMPDEST PUSH1 0x40 MLOAD DUP1 SWAP2 SUB SWAP1 LOG1 POP POP JUMP JUMPDEST PUSH2 0xB20 PUSH2 0xD7F JUMP JUMPDEST PUSH0 DUP1 DUP5 PUSH20 0xFFFFFFFFFFFFFFFFFFFFFFFFFFFFFFFFFFFFFFFF AND PUSH20 0xFFFFFFFFFFFFFFFFFFFFFFFFFFFFFFFFFFFFFFFF AND DUP2 MSTORE PUSH1 0x20 ADD SWAP1 DUP2 MSTORE PUSH1 0x20 ADD PUSH0 KECCAK256 DUP3 PUSH2 0xFFFF AND DUP2 SLOAD DUP2 LT PUSH2 0xB72 JUMPI PUSH2 0xB71 PUSH2 0x14C1 JUMP JUMPDEST JUMPDEST SWAP1 PUSH0 MSTORE PUSH1 0x20 PUSH0 KECCAK256 SWAP1 PUSH1 0x5 MUL ADD PUSH1 0x40 MLOAD DUP1 PUSH1 0xA0 ADD PUSH1 0x40 MSTORE SWAP1 DUP2 PUSH0 DUP3 ADD SLOAD DUP2 MSTORE PUSH1 0x20 ADD PUSH1 0x1 DUP3 ADD PUSH0 SWAP1 SLOAD SWAP1 PUSH2 0x100 EXP SWAP1 DIV PUSH20 0xFFFFFFFFFFFFFFFFFFFFFFFFFFFFFFFFFFFFFFFF AND PUSH20 0xFFFFFFFFFFFFFFFFFFFFFFFFFFFFFFFFFFFFFFFF AND PUSH20 0xFFFFFFFFFFFFFFFFFFFFFFFFFFFFFFFFFFFFFFFF AND DUP2 MSTORE PUSH1 0x20 ADD PUSH1 0x2 DUP3 ADD DUP1 SLOAD PUSH2 0xBF7 SWAP1 PUSH2 0x1491 JUMP JUMPDEST DUP1 PUSH1 0x1F ADD PUSH1 0x20 DUP1 SWAP2 DIV MUL PUSH1 0x20 ADD PUSH1 0x40 MLOAD SWAP1 DUP2 ADD PUSH1 0x40 MSTORE DUP1 SWAP3 SWAP2 SWAP1 DUP2 DUP2 MSTORE PUSH1 0x20 ADD DUP3 DUP1 SLOAD PUSH2 0xC23 SWAP1 PUSH2 0x1491 JUMP JUMPDEST DUP1 ISZERO PUSH2 0xC6E JUMPI DUP1 PUSH1 0x1F LT PUSH2 0xC45 JUMPI PUSH2 0x100 DUP1 DUP4 SLOAD DIV MUL DUP4 MSTORE SWAP2 PUSH1 0x20 ADD SWAP2 PUSH2 0xC6E JUMP JUMPDEST DUP3 ADD SWAP2 SWAP1 PUSH0 MSTORE PUSH1 0x20 PUSH0 KECCAK256 SWAP1 JUMPDEST DUP2 SLOAD DUP2 MSTORE SWAP1 PUSH1 0x1 ADD SWAP1 PUSH1 0x20 ADD DUP1 DUP4 GT PUSH2 0xC51 JUMPI DUP3 SWAP1 SUB PUSH1 0x1F AND DUP3 ADD SWAP2 JUMPDEST POP POP POP POP POP DUP2 MSTORE PUSH1 0x20 ADD PUSH1 0x3 DUP3 ADD SLOAD DUP2 MSTORE PUSH1 0x20 ADD PUSH1 0x4 DUP3 ADD SLOAD DUP2 MSTORE POP POP SWAP1 POP SWAP3 SWAP2 POP POP JUMP JUMPDEST CALLER PUSH20 0xFFFFFFFFFFFFFFFFFFFFFFFFFFFFFFFFFFFFFFFF AND PUSH1 0x1 PUSH1 0x2 SWAP1 SLOAD SWAP1 PUSH2 0x100 EXP SWAP1 DIV PUSH20 0xFFFFFFFFFFFFFFFFFFFFFFFFFFFFFFFFFFFFFFFF AND PUSH20 0xFFFFFFFFFFFFFFFFFFFFFFFFFFFFFFFFFFFFFFFF AND EQ PUSH2 0xD23 JUMPI PUSH1 0x40 MLOAD PUSH32 0x8C379A000000000000000000000000000000000000000000000000000000000 DUP2 MSTORE PUSH1 0x4 ADD PUSH2 0xD1A SWAP1 PUSH2 0x19F6 JUMP JUMPDEST PUSH1 0x40 MLOAD DUP1 SWAP2 SUB SWAP1 REVERT JUMPDEST DUP1 PUSH1 0x1 PUSH0 PUSH2 0x100 EXP DUP2 SLOAD DUP2 PUSH2 0xFFFF MUL NOT AND SWAP1 DUP4 PUSH2 0xFFFF AND MUL OR SWAP1 SSTORE POP POP JUMP JUMPDEST POP DUP1 SLOAD PUSH2 0xD4E SWAP1 PUSH2 0x1491 JUMP JUMPDEST PUSH0 DUP3 SSTORE DUP1 PUSH1 0x1F LT PUSH2 0xD5F JUMPI POP PUSH2 0xD7C JUMP JUMPDEST PUSH1 0x1F ADD PUSH1 0x20 SWAP1 DIV SWAP1 PUSH0 MSTORE PUSH1 0x20 PUSH0 KECCAK256 SWAP1 DUP2 ADD SWAP1 PUSH2 0xD7B SWAP2 SWAP1 PUSH2 0xDC0 JUMP JUMPDEST JUMPDEST POP JUMP JUMPDEST PUSH1 0x40 MLOAD DUP1 PUSH1 0xA0 ADD PUSH1 0x40 MSTORE DUP1 PUSH0 DUP2 MSTORE PUSH1 0x20 ADD PUSH0 PUSH20 0xFFFFFFFFFFFFFFFFFFFFFFFFFFFFFFFFFFFFFFFF AND DUP2 MSTORE PUSH1 0x20 ADD PUSH1 0x60 DUP2 MSTORE PUSH1 0x20 ADD PUSH0 DUP2 MSTORE PUSH1 0x20 ADD PUSH0 DUP2 MSTORE POP SWAP1 JUMP JUMPDEST JUMPDEST DUP1 DUP3 GT ISZERO PUSH2 0xDD7 JUMPI PUSH0 DUP2 PUSH0 SWAP1 SSTORE POP PUSH1 0x1 ADD PUSH2 0xDC1 JUMP JUMPDEST POP SWAP1 JUMP JUMPDEST PUSH0 PUSH1 0x40 MLOAD SWAP1 POP SWAP1 JUMP JUMPDEST PUSH0 DUP1 REVERT JUMPDEST PUSH0 DUP1 REVERT JUMPDEST PUSH0 PUSH20 0xFFFFFFFFFFFFFFFFFFFFFFFFFFFFFFFFFFFFFFFF DUP3 AND SWAP1 POP SWAP2 SWAP1 POP JUMP JUMPDEST PUSH0 PUSH2 0xE15 DUP3 PUSH2 0xDEC JUMP JUMPDEST SWAP1 POP SWAP2 SWAP1 POP JUMP JUMPDEST PUSH2 0xE25 DUP2 PUSH2 0xE0B JUMP JUMPDEST DUP2 EQ PUSH2 0xE2F JUMPI PUSH0 DUP1 REVERT JUMPDEST POP JUMP JUMPDEST PUSH0 DUP2 CALLDATALOAD SWAP1 POP PUSH2 0xE40 DUP2 PUSH2 0xE1C JUMP JUMPDEST SWAP3 SWAP2 POP POP JUMP JUMPDEST PUSH0 DUP2 SWAP1 POP SWAP2 SWAP1 POP JUMP JUMPDEST PUSH2 0xE58 DUP2 PUSH2 0xE46 JUMP JUMPDEST DUP2 EQ PUSH2 0xE62 JUMPI PUSH0 DUP1 REVERT JUMPDEST POP JUMP JUMPDEST PUSH0 DUP2 CALLDATALOAD SWAP1 POP PUSH2 0xE73 DUP2 PUSH2 0xE4F JUMP JUMPDEST SWAP3 SWAP2 POP POP JUMP JUMPDEST PUSH0 DUP1 PUSH1 0x40 DUP4 DUP6 SUB SLT ISZERO PUSH2 0xE8F JUMPI PUSH2 0xE8E PUSH2 0xDE4 JUMP JUMPDEST JUMPDEST PUSH0 PUSH2 0xE9C DUP6 DUP3 DUP7 ADD PUSH2 0xE32 JUMP JUMPDEST SWAP3 POP POP PUSH1 0x20 PUSH2 0xEAD DUP6 DUP3 DUP7 ADD PUSH2 0xE65 JUMP JUMPDEST SWAP2 POP POP SWAP3 POP SWAP3 SWAP1 POP JUMP JUMPDEST PUSH2 0xEC0 DUP2 PUSH2 0xE46 JUMP JUMPDEST DUP3 MSTORE POP POP JUMP JUMPDEST PUSH2 0xECF DUP2 PUSH2 0xE0B JUMP JUMPDEST DUP3 MSTORE POP POP JUMP JUMPDEST PUSH0 DUP2 MLOAD SWAP1 POP SWAP2 SWAP1 POP JUMP JUMPDEST PUSH0 DUP3 DUP3 MSTORE PUSH1 0x20 DUP3 ADD SWAP1 POP SWAP3 SWAP2 POP POP JUMP JUMPDEST PUSH0 JUMPDEST DUP4 DUP2 LT ISZERO PUSH2 0xF0C JUMPI DUP1 DUP3 ADD MLOAD DUP2 DUP5 ADD MSTORE PUSH1 0x20 DUP2 ADD SWAP1 POP PUSH2 0xEF1 JUMP JUMPDEST PUSH0 DUP5 DUP5 ADD MSTORE POP POP POP POP JUMP JUMPDEST PUSH0 PUSH1 0x1F NOT PUSH1 0x1F DUP4 ADD AND SWAP1 POP SWAP2 SWAP1 POP JUMP JUMPDEST PUSH0 PUSH2 0xF31 DUP3 PUSH2 0xED5 JUMP JUMPDEST PUSH2 0xF3B DUP2 DUP6 PUSH2 0xEDF JUMP JUMPDEST SWAP4 POP PUSH2 0xF4B DUP2 DUP6 PUSH1 0x20 DUP7 ADD PUSH2 0xEEF JUMP JUMPDEST PUSH2 0xF54 DUP2 PUSH2 0xF17 JUMP JUMPDEST DUP5 ADD SWAP2 POP POP SWAP3 SWAP2 POP POP JUMP JUMPDEST PUSH0 PUSH1 0xA0 DUP3 ADD SWAP1 POP PUSH2 0xF72 PUSH0 DUP4 ADD DUP9 PUSH2 0xEB7 JUMP JUMPDEST PUSH2 0xF7F PUSH1 0x20 DUP4 ADD DUP8 PUSH2 0xEC6 JUMP JUMPDEST DUP2 DUP2 SUB PUSH1 0x40 DUP4 ADD MSTORE PUSH2 0xF91 DUP2 DUP7 PUSH2 0xF27 JUMP JUMPDEST SWAP1 POP PUSH2 0xFA0 PUSH1 0x60 DUP4 ADD DUP6 PUSH2 0xEB7 JUMP JUMPDEST PUSH2 0xFAD PUSH1 0x80 DUP4 ADD DUP5 PUSH2 0xEB7 JUMP JUMPDEST SWAP7 SWAP6 POP POP POP POP POP POP JUMP JUMPDEST PUSH0 PUSH2 0xFFFF DUP3 AND SWAP1 POP SWAP2 SWAP1 POP JUMP JUMPDEST PUSH2 0xFCD DUP2 PUSH2 0xFB7 JUMP JUMPDEST DUP3 MSTORE POP POP JUMP JUMPDEST PUSH0 PUSH1 0x20 DUP3 ADD SWAP1 POP PUSH2 0xFE6 PUSH0 DUP4 ADD DUP5 PUSH2 0xFC4 JUMP JUMPDEST SWAP3 SWAP2 POP POP JUMP JUMPDEST PUSH0 DUP1 REVERT JUMPDEST PUSH0 DUP1 REVERT JUMPDEST PUSH32 0x4E487B7100000000000000000000000000000000000000000000000000000000 PUSH0 MSTORE PUSH1 0x41 PUSH1 0x4 MSTORE PUSH1 0x24 PUSH0 REVERT JUMPDEST PUSH2 0x102A DUP3 PUSH2 0xF17 JUMP JUMPDEST DUP2 ADD DUP2 DUP2 LT PUSH8 0xFFFFFFFFFFFFFFFF DUP3 GT OR ISZERO PUSH2 0x1049 JUMPI PUSH2 0x1048 PUSH2 0xFF4 JUMP JUMPDEST JUMPDEST DUP1 PUSH1 0x40 MSTORE POP POP POP JUMP JUMPDEST PUSH0 PUSH2 0x105B PUSH2 0xDDB JUMP JUMPDEST SWAP1 POP PUSH2 0x1067 DUP3 DUP3 PUSH2 0x1021 JUMP JUMPDEST SWAP2 SWAP1 POP JUMP JUMPDEST PUSH0 PUSH8 0xFFFFFFFFFFFFFFFF DUP3 GT ISZERO PUSH2 0x1086 JUMPI PUSH2 0x1085 PUSH2 0xFF4 JUMP JUMPDEST JUMPDEST PUSH2 0x108F DUP3 PUSH2 0xF17 JUMP JUMPDEST SWAP1 POP PUSH1 0x20 DUP2 ADD SWAP1 POP SWAP2 SWAP1 POP JUMP JUMPDEST DUP3 DUP2 DUP4 CALLDATACOPY PUSH0 DUP4 DUP4 ADD MSTORE POP POP POP JUMP JUMPDEST PUSH0 PUSH2 0x10BC PUSH2 0x10B7 DUP5 PUSH2 0x106C JUMP JUMPDEST PUSH2 0x1052 JUMP JUMPDEST SWAP1 POP DUP3 DUP2 MSTORE PUSH1 0x20 DUP2 ADD DUP5 DUP5 DUP5 ADD GT ISZERO PUSH2 0x10D8 JUMPI PUSH2 0x10D7 PUSH2 0xFF0 JUMP JUMPDEST JUMPDEST PUSH2 0x10E3 DUP5 DUP3 DUP6 PUSH2 0x109C JUMP JUMPDEST POP SWAP4 SWAP3 POP POP POP JUMP JUMPDEST PUSH0 DUP3 PUSH1 0x1F DUP4 ADD SLT PUSH2 0x10FF JUMPI PUSH2 0x10FE PUSH2 0xFEC JUMP JUMPDEST JUMPDEST DUP2 CALLDATALOAD PUSH2 0x110F DUP5 DUP3 PUSH1 0x20 DUP7 ADD PUSH2 0x10AA JUMP JUMPDEST SWAP2 POP POP SWAP3 SWAP2 POP POP JUMP JUMPDEST PUSH0 PUSH1 0x20 DUP3 DUP5 SUB SLT ISZERO PUSH2 0x112D JUMPI PUSH2 0x112C PUSH2 0xDE4 JUMP JUMPDEST JUMPDEST PUSH0 DUP3 ADD CALLDATALOAD PUSH8 0xFFFFFFFFFFFFFFFF DUP2 GT ISZERO PUSH2 0x114A JUMPI PUSH2 0x1149 PUSH2 0xDE8 JUMP JUMPDEST JUMPDEST PUSH2 0x1156 DUP5 DUP3 DUP6 ADD PUSH2 0x10EB JUMP JUMPDEST SWAP2 POP POP SWAP3 SWAP2 POP POP JUMP JUMPDEST PUSH0 PUSH1 0x20 DUP3 DUP5 SUB SLT ISZERO PUSH2 0x1174 JUMPI PUSH2 0x1173 PUSH2 0xDE4 JUMP JUMPDEST JUMPDEST PUSH0 PUSH2 0x1181 DUP5 DUP3 DUP6 ADD PUSH2 0xE32 JUMP JUMPDEST SWAP2 POP POP SWAP3 SWAP2 POP POP JUMP JUMPDEST PUSH0 DUP2 MLOAD SWAP1 POP SWAP2 SWAP1 POP JUMP JUMPDEST PUSH0 DUP3 DUP3 MSTORE PUSH1 0x20 DUP3 ADD SWAP1 POP SWAP3 SWAP2 POP POP JUMP JUMPDEST PUSH0 DUP2 SWAP1 POP PUSH1 0x20 DUP3 ADD SWAP1 POP SWAP2 SWAP1 POP JUMP JUMPDEST PUSH2 0x11BC DUP2 PUSH2 0xE46 JUMP JUMPDEST DUP3 MSTORE POP POP JUMP JUMPDEST PUSH2 0x11CB DUP2 PUSH2 0xE0B JUMP JUMPDEST DUP3 MSTORE POP POP JUMP JUMPDEST PUSH0 DUP3 DUP3 MSTORE PUSH1 0x20 DUP3 ADD SWAP1 POP SWAP3 SWAP2 POP POP JUMP JUMPDEST PUSH0 PUSH2 0x11EB DUP3 PUSH2 0xED5 JUMP JUMPDEST PUSH2 0x11F5 DUP2 DUP6 PUSH2 0x11D1 JUMP JUMPDEST SWAP4 POP PUSH2 0x1205 DUP2 DUP6 PUSH1 0x20 DUP7 ADD PUSH2 0xEEF JUMP JUMPDEST PUSH2 0x120E DUP2 PUSH2 0xF17 JUMP JUMPDEST DUP5 ADD SWAP2 POP POP SWAP3 SWAP2 POP POP JUMP JUMPDEST PUSH0 PUSH1 0xA0 DUP4 ADD PUSH0 DUP4 ADD MLOAD PUSH2 0x122E PUSH0 DUP7 ADD DUP3 PUSH2 0x11B3 JUMP JUMPDEST POP PUSH1 0x20 DUP4 ADD MLOAD PUSH2 0x1241 PUSH1 0x20 DUP7 ADD DUP3 PUSH2 0x11C2 JUMP JUMPDEST POP PUSH1 0x40 DUP4 ADD MLOAD DUP5 DUP3 SUB PUSH1 0x40 DUP7 ADD MSTORE PUSH2 0x1259 DUP3 DUP3 PUSH2 0x11E1 JUMP JUMPDEST SWAP2 POP POP PUSH1 0x60 DUP4 ADD MLOAD PUSH2 0x126E PUSH1 0x60 DUP7 ADD DUP3 PUSH2 0x11B3 JUMP JUMPDEST POP PUSH1 0x80 DUP4 ADD MLOAD PUSH2 0x1281 PUSH1 0x80 DUP7 ADD DUP3 PUSH2 0x11B3 JUMP JUMPDEST POP DUP1 SWAP2 POP POP SWAP3 SWAP2 POP POP JUMP JUMPDEST PUSH0 PUSH2 0x1297 DUP4 DUP4 PUSH2 0x1219 JUMP JUMPDEST SWAP1 POP SWAP3 SWAP2 POP POP JUMP JUMPDEST PUSH0 PUSH1 0x20 DUP3 ADD SWAP1 POP SWAP2 SWAP1 POP JUMP JUMPDEST PUSH0 PUSH2 0x12B5 DUP3 PUSH2 0x118A JUMP JUMPDEST PUSH2 0x12BF DUP2 DUP6 PUSH2 0x1194 JUMP JUMPDEST SWAP4 POP DUP4 PUSH1 0x20 DUP3 MUL DUP6 ADD PUSH2 0x12D1 DUP6 PUSH2 0x11A4 JUMP JUMPDEST DUP1 PUSH0 JUMPDEST DUP6 DUP2 LT ISZERO PUSH2 0x130C JUMPI DUP5 DUP5 SUB DUP10 MSTORE DUP2 MLOAD PUSH2 0x12ED DUP6 DUP3 PUSH2 0x128C JUMP JUMPDEST SWAP5 POP PUSH2 0x12F8 DUP4 PUSH2 0x129F JUMP JUMPDEST SWAP3 POP PUSH1 0x20 DUP11 ADD SWAP10 POP POP PUSH1 0x1 DUP2 ADD SWAP1 POP PUSH2 0x12D4 JUMP JUMPDEST POP DUP3 SWAP8 POP DUP8 SWAP6 POP POP POP POP POP POP SWAP3 SWAP2 POP POP JUMP JUMPDEST PUSH0 PUSH1 0x20 DUP3 ADD SWAP1 POP DUP2 DUP2 SUB PUSH0 DUP4 ADD MSTORE PUSH2 0x1336 DUP2 DUP5 PUSH2 0x12AB JUMP JUMPDEST SWAP1 POP SWAP3 SWAP2 POP POP JUMP JUMPDEST PUSH2 0x1347 DUP2 PUSH2 0xFB7 JUMP JUMPDEST DUP2 EQ PUSH2 0x1351 JUMPI PUSH0 DUP1 REVERT JUMPDEST POP JUMP JUMPDEST PUSH0 DUP2 CALLDATALOAD SWAP1 POP PUSH2 0x1362 DUP2 PUSH2 0x133E JUMP JUMPDEST SWAP3 SWAP2 POP POP JUMP JUMPDEST PUSH0 DUP1 PUSH1 0x40 DUP4 DUP6 SUB SLT ISZERO PUSH2 0x137E JUMPI PUSH2 0x137D PUSH2 0xDE4 JUMP JUMPDEST JUMPDEST PUSH0 PUSH2 0x138B DUP6 DUP3 DUP7 ADD PUSH2 0xE32 JUMP JUMPDEST SWAP3 POP POP PUSH1 0x20 PUSH2 0x139C DUP6 DUP3 DUP7 ADD PUSH2 0x1354 JUMP JUMPDEST SWAP2 POP POP SWAP3 POP SWAP3 SWAP1 POP JUMP JUMPDEST PUSH0 PUSH1 0xA0 DUP4 ADD PUSH0 DUP4 ADD MLOAD PUSH2 0x13BB PUSH0 DUP7 ADD DUP3 PUSH2 0x11B3 JUMP JUMPDEST POP PUSH1 0x20 DUP4 ADD MLOAD PUSH2 0x13CE PUSH1 0x20 DUP7 ADD DUP3 PUSH2 0x11C2 JUMP JUMPDEST POP PUSH1 0x40 DUP4 ADD MLOAD DUP5 DUP3 SUB PUSH1 0x40 DUP7 ADD MSTORE PUSH2 0x13E6 DUP3 DUP3 PUSH2 0x11E1 JUMP JUMPDEST SWAP2 POP POP PUSH1 0x60 DUP4 ADD MLOAD PUSH2 0x13FB PUSH1 0x60 DUP7 ADD DUP3 PUSH2 0x11B3 JUMP JUMPDEST POP PUSH1 0x80 DUP4 ADD MLOAD PUSH2 0x140E PUSH1 0x80 DUP7 ADD DUP3 PUSH2 0x11B3 JUMP JUMPDEST POP DUP1 SWAP2 POP POP SWAP3 SWAP2 POP POP JUMP JUMPDEST PUSH0 PUSH1 0x20 DUP3 ADD SWAP1 POP DUP2 DUP2 SUB PUSH0 DUP4 ADD MSTORE PUSH2 0x1431 DUP2 DUP5 PUSH2 0x13A6 JUMP JUMPDEST SWAP1 POP SWAP3 SWAP2 POP POP JUMP JUMPDEST PUSH0 PUSH1 0x20 DUP3 DUP5 SUB SLT ISZERO PUSH2 0x144E JUMPI PUSH2 0x144D PUSH2 0xDE4 JUMP JUMPDEST JUMPDEST PUSH0 PUSH2 0x145B DUP5 DUP3 DUP6 ADD PUSH2 0x1354 JUMP JUMPDEST SWAP2 POP POP SWAP3 SWAP2 POP POP JUMP JUMPDEST PUSH32 0x4E487B7100000000000000000000000000000000000000000000000000000000 PUSH0 MSTORE PUSH1 0x22 PUSH1 0x4 MSTORE PUSH1 0x24 PUSH0 REVERT JUMPDEST PUSH0 PUSH1 0x2 DUP3 DIV SWAP1 POP PUSH1 0x1 DUP3 AND DUP1 PUSH2 0x14A8 JUMPI PUSH1 0x7F DUP3 AND SWAP2 POP JUMPDEST PUSH1 0x20 DUP3 LT DUP2 SUB PUSH2 0x14BB JUMPI PUSH2 0x14BA PUSH2 0x1464 JUMP JUMPDEST JUMPDEST POP SWAP2 SWAP1 POP JUMP JUMPDEST PUSH32 0x4E487B7100000000000000000000000000000000000000000000000000000000 PUSH0 MSTORE PUSH1 0x32 PUSH1 0x4 MSTORE PUSH1 0x24 PUSH0 REVERT JUMPDEST PUSH32 0x547765657420646F65736E277420657869737400000000000000000000000000 PUSH0 DUP3 ADD MSTORE POP JUMP JUMPDEST PUSH0 PUSH2 0x1522 PUSH1 0x13 DUP4 PUSH2 0xEDF JUMP JUMPDEST SWAP2 POP PUSH2 0x152D DUP3 PUSH2 0x14EE JUMP JUMPDEST PUSH1 0x20 DUP3 ADD SWAP1 POP SWAP2 SWAP1 POP JUMP JUMPDEST PUSH0 PUSH1 0x20 DUP3 ADD SWAP1 POP DUP2 DUP2 SUB PUSH0 DUP4 ADD MSTORE PUSH2 0x154F DUP2 PUSH2 0x1516 JUMP JUMPDEST SWAP1 POP SWAP2 SWAP1 POP JUMP JUMPDEST PUSH32 0x4E487B7100000000000000000000000000000000000000000000000000000000 PUSH0 MSTORE PUSH1 0x11 PUSH1 0x4 MSTORE PUSH1 0x24 PUSH0 REVERT JUMPDEST PUSH0 PUSH2 0x158D DUP3 PUSH2 0xE46 JUMP JUMPDEST SWAP2 POP PUSH32 0xFFFFFFFFFFFFFFFFFFFFFFFFFFFFFFFFFFFFFFFFFFFFFFFFFFFFFFFFFFFFFFFF DUP3 SUB PUSH2 0x15BF JUMPI PUSH2 0x15BE PUSH2 0x1556 JUMP JUMPDEST JUMPDEST PUSH1 0x1 DUP3 ADD SWAP1 POP SWAP2 SWAP1 POP JUMP JUMPDEST PUSH0 PUSH1 0x60 DUP3 ADD SWAP1 POP PUSH2 0x15DD PUSH0 DUP4 ADD DUP7 PUSH2 0xEB7 JUMP JUMPDEST PUSH2 0x15EA PUSH1 0x20 DUP4 ADD DUP6 PUSH2 0xEC6 JUMP JUMPDEST PUSH2 0x15F7 PUSH1 0x40 DUP4 ADD DUP5 PUSH2 0xEB7 JUMP JUMPDEST SWAP5 SWAP4 POP POP POP POP JUMP JUMPDEST PUSH32 0x596F757220547765657420697320746F6F206C6F6E6700000000000000000000 PUSH0 DUP3 ADD MSTORE POP JUMP JUMPDEST PUSH0 PUSH2 0x1633 PUSH1 0x16 DUP4 PUSH2 0xEDF JUMP JUMPDEST SWAP2 POP PUSH2 0x163E DUP3 PUSH2 0x15FF JUMP JUMPDEST PUSH1 0x20 DUP3 ADD SWAP1 POP SWAP2 SWAP1 POP JUMP JUMPDEST PUSH0 PUSH1 0x20 DUP3 ADD SWAP1 POP DUP2 DUP2 SUB PUSH0 DUP4 ADD MSTORE PUSH2 0x1660 DUP2 PUSH2 0x1627 JUMP JUMPDEST SWAP1 POP SWAP2 SWAP1 POP JUMP JUMPDEST PUSH0 DUP2 SWAP1 POP DUP2 PUSH0 MSTORE PUSH1 0x20 PUSH0 KECCAK256 SWAP1 POP SWAP2 SWAP1 POP JUMP JUMPDEST PUSH0 PUSH1 0x20 PUSH1 0x1F DUP4 ADD DIV SWAP1 POP SWAP2 SWAP1 POP JUMP JUMPDEST PUSH0 DUP3 DUP3 SHL SWAP1 POP SWAP3 SWAP2 POP POP JUMP JUMPDEST PUSH0 PUSH1 0x8 DUP4 MUL PUSH2 0x16C3 PUSH32 0xFFFFFFFFFFFFFFFFFFFFFFFFFFFFFFFFFFFFFFFFFFFFFFFFFFFFFFFFFFFFFFFF DUP3 PUSH2 0x1688 JUMP JUMPDEST PUSH2 0x16CD DUP7 DUP4 PUSH2 0x1688 JUMP JUMPDEST SWAP6 POP DUP1 NOT DUP5 AND SWAP4 POP DUP1 DUP7 AND DUP5 OR SWAP3 POP POP POP SWAP4 SWAP3 POP POP POP JUMP JUMPDEST PUSH0 DUP2 SWAP1 POP SWAP2 SWAP1 POP JUMP JUMPDEST PUSH0 PUSH2 0x1708 PUSH2 0x1703 PUSH2 0x16FE DUP5 PUSH2 0xE46 JUMP JUMPDEST PUSH2 0x16E5 JUMP JUMPDEST PUSH2 0xE46 JUMP JUMPDEST SWAP1 POP SWAP2 SWAP1 POP JUMP JUMPDEST PUSH0 DUP2 SWAP1 POP SWAP2 SWAP1 POP JUMP JUMPDEST PUSH2 0x1721 DUP4 PUSH2 0x16EE JUMP JUMPDEST PUSH2 0x1735 PUSH2 0x172D DUP3 PUSH2 0x170F JUMP JUMPDEST DUP5 DUP5 SLOAD PUSH2 0x1694 JUMP JUMPDEST DUP3 SSTORE POP POP POP POP JUMP JUMPDEST PUSH0 SWAP1 JUMP JUMPDEST PUSH2 0x1749 PUSH2 0x173D JUMP JUMPDEST PUSH2 0x1754 DUP2 DUP5 DUP5 PUSH2 0x1718 JUMP JUMPDEST POP POP POP JUMP JUMPDEST JUMPDEST DUP2 DUP2 LT ISZERO PUSH2 0x1777 JUMPI PUSH2 0x176C PUSH0 DUP3 PUSH2 0x1741 JUMP JUMPDEST PUSH1 0x1 DUP2 ADD SWAP1 POP PUSH2 0x175A JUMP JUMPDEST POP POP JUMP JUMPDEST PUSH1 0x1F DUP3 GT ISZERO PUSH2 0x17BC JUMPI PUSH2 0x178D DUP2 PUSH2 0x1667 JUMP JUMPDEST PUSH2 0x1796 DUP5 PUSH2 0x1679 JUMP JUMPDEST DUP2 ADD PUSH1 0x20 DUP6 LT ISZERO PUSH2 0x17A5 JUMPI DUP2 SWAP1 POP JUMPDEST PUSH2 0x17B9 PUSH2 0x17B1 DUP6 PUSH2 0x1679 JUMP JUMPDEST DUP4 ADD DUP3 PUSH2 0x1759 JUMP JUMPDEST POP POP JUMPDEST POP POP POP JUMP JUMPDEST PUSH0 DUP3 DUP3 SHR SWAP1 POP SWAP3 SWAP2 POP POP JUMP JUMPDEST PUSH0 PUSH2 0x17DC PUSH0 NOT DUP5 PUSH1 0x8 MUL PUSH2 0x17C1 JUMP JUMPDEST NOT DUP1 DUP4 AND SWAP2 POP POP SWAP3 SWAP2 POP POP JUMP JUMPDEST PUSH0 PUSH2 0x17F4 DUP4 DUP4 PUSH2 0x17CD JUMP JUMPDEST SWAP2 POP DUP3 PUSH1 0x2 MUL DUP3 OR SWAP1 POP SWAP3 SWAP2 POP POP JUMP JUMPDEST PUSH2 0x180D DUP3 PUSH2 0xED5 JUMP JUMPDEST PUSH8 0xFFFFFFFFFFFFFFFF DUP2 GT ISZERO PUSH2 0x1826 JUMPI PUSH2 0x1825 PUSH2 0xFF4 JUMP JUMPDEST JUMPDEST PUSH2 0x1830 DUP3 SLOAD PUSH2 0x1491 JUMP JUMPDEST PUSH2 0x183B DUP3 DUP3 DUP6 PUSH2 0x177B JUMP JUMPDEST PUSH0 PUSH1 0x20 SWAP1 POP PUSH1 0x1F DUP4 GT PUSH1 0x1 DUP2 EQ PUSH2 0x186C JUMPI PUSH0 DUP5 ISZERO PUSH2 0x185A JUMPI DUP3 DUP8 ADD MLOAD SWAP1 POP JUMPDEST PUSH2 0x1864 DUP6 DUP3 PUSH2 0x17E9 JUMP JUMPDEST DUP7 SSTORE POP PUSH2 0x18CB JUMP JUMPDEST PUSH1 0x1F NOT DUP5 AND PUSH2 0x187A DUP7 PUSH2 0x1667 JUMP JUMPDEST PUSH0 JUMPDEST DUP3 DUP2 LT ISZERO PUSH2 0x18A1 JUMPI DUP5 DUP10 ADD MLOAD DUP3 SSTORE PUSH1 0x1 DUP3 ADD SWAP2 POP PUSH1 0x20 DUP6 ADD SWAP5 POP PUSH1 0x20 DUP2 ADD SWAP1 POP PUSH2 0x187C JUMP JUMPDEST DUP7 DUP4 LT ISZERO PUSH2 0x18BE JUMPI DUP5 DUP10 ADD MLOAD PUSH2 0x18BA PUSH1 0x1F DUP10 AND DUP3 PUSH2 0x17CD JUMP JUMPDEST DUP4 SSTORE POP JUMPDEST PUSH1 0x1 PUSH1 0x2 DUP9 MUL ADD DUP9 SSTORE POP POP POP JUMPDEST POP POP POP POP POP POP JUMP JUMPDEST PUSH0 PUSH1 0x80 DUP3 ADD SWAP1 POP PUSH2 0x18E6 PUSH0 DUP4 ADD DUP8 PUSH2 0xEB7 JUMP JUMPDEST DUP2 DUP2 SUB PUSH1 0x20 DUP4 ADD MSTORE PUSH2 0x18F8 DUP2 DUP7 PUSH2 0xF27 JUMP JUMPDEST SWAP1 POP PUSH2 0x1907 PUSH1 0x40 DUP4 ADD DUP6 PUSH2 0xEC6 JUMP JUMPDEST PUSH2 0x1914 PUSH1 0x60 DUP4 ADD DUP5 PUSH2 0xEB7 JUMP JUMPDEST SWAP6 SWAP5 POP POP POP POP POP JUMP JUMPDEST PUSH32 0x5468657265206973206E6F206C696B6500000000000000000000000000000000 PUSH0 DUP3 ADD MSTORE POP JUMP JUMPDEST PUSH0 PUSH2 0x1951 PUSH1 0x10 DUP4 PUSH2 0xEDF JUMP JUMPDEST SWAP2 POP PUSH2 0x195C DUP3 PUSH2 0x191D JUMP JUMPDEST PUSH1 0x20 DUP3 ADD SWAP1 POP SWAP2 SWAP1 POP JUMP JUMPDEST PUSH0 PUSH1 0x20 DUP3 ADD SWAP1 POP DUP2 DUP2 SUB PUSH0 DUP4 ADD MSTORE PUSH2 0x197E DUP2 PUSH2 0x1945 JUMP JUMPDEST SWAP1 POP SWAP2 SWAP1 POP JUMP JUMPDEST PUSH0 PUSH2 0x198F DUP3 PUSH2 0xE46 JUMP JUMPDEST SWAP2 POP PUSH0 DUP3 SUB PUSH2 0x19A1 JUMPI PUSH2 0x19A0 PUSH2 0x1556 JUMP JUMPDEST JUMPDEST PUSH1 0x1 DUP3 SUB SWAP1 POP SWAP2 SWAP1 POP JUMP JUMPDEST PUSH32 0x596F7520617265206E6F7420746865206F776E65720000000000000000000000 PUSH0 DUP3 ADD MSTORE POP JUMP JUMPDEST PUSH0 PUSH2 0x19E0 PUSH1 0x15 DUP4 PUSH2 0xEDF JUMP JUMPDEST SWAP2 POP PUSH2 0x19EB DUP3 PUSH2 0x19AC JUMP JUMPDEST PUSH1 0x20 DUP3 ADD SWAP1 POP SWAP2 SWAP1 POP JUMP JUMPDEST PUSH0 PUSH1 0x20 DUP3 ADD SWAP1 POP DUP2 DUP2 SUB PUSH0 DUP4 ADD MSTORE PUSH2 0x1A0D DUP2 PUSH2 0x19D4 JUMP JUMPDEST SWAP1 POP SWAP2 SWAP1 POP JUMP INVALID LOG2 PUSH5 0x6970667358 0x22 SLT KECCAK256 0xF9 0xE5 PUSH13 0xE621096A5418CE3DABEA2DB44F 0xA5 0x23 MOD 0xFC MLOAD 0xF8 EXP SWAP14 0x23 0xE4 0xE5 DUP9 0xDE PUSH10 0x3C6464736F6C63430008 AND STOP CALLER "
				},
				"gasEstimates": {
					"creation": {
						"codeDepositCost": "1346000",
						"executionCost": "49983",
						"totalCost": "1395983"
					},
					"external": {
						"MAX_TWEET_LENGTH()": "2511",
						"changeMaxTweet(uint16)": "26981",
						"createTweet(string)": "infinite",
						"deleteTweet(address,uint16)": "infinite",
						"dislikeTweet(address,uint256)": "infinite",
						"getALLTweets(address)": "infinite",
						"getTweetAtIndex(address,uint16)": "infinite",
						"likeTweet(address,uint256)": "infinite",
						"tweets(address,uint256)": "infinite"
					}
				},
				"methodIdentifiers": {
					"MAX_TWEET_LENGTH()": "6eb10797",
					"changeMaxTweet(uint16)": "dc2ef9c5",
					"createTweet(string)": "7c9cd2bc",
					"deleteTweet(address,uint16)": "a4d96744",
					"dislikeTweet(address,uint256)": "ae775e95",
					"getALLTweets(address)": "808b0cf1",
					"getTweetAtIndex(address,uint16)": "b157c735",
					"likeTweet(address,uint256)": "63378216",
					"tweets(address,uint256)": "05a1b4a9"
				}
			},
			"storageLayout": {
				"storage": [
					{
						"astId": 18,
						"contract": "Contracts/twitter.sol:Twitter",
						"label": "tweets",
						"offset": 0,
						"slot": "0",
						"type": "t_mapping(t_address,t_array(t_struct(Tweet)12_storage)dyn_storage)"
					},
					{
						"astId": 21,
						"contract": "Contracts/twitter.sol:Twitter",
						"label": "MAX_TWEET_LENGTH",
						"offset": 0,
						"slot": "1",
						"type": "t_uint16"
					},
					{
						"astId": 23,
						"contract": "Contracts/twitter.sol:Twitter",
						"label": "owner",
						"offset": 2,
						"slot": "1",
						"type": "t_address"
					}
				],
				"types": {
					"t_address": {
						"encoding": "inplace",
						"label": "address",
						"numberOfBytes": "20"
					},
					"t_array(t_struct(Tweet)12_storage)dyn_storage": {
						"base": "t_struct(Tweet)12_storage",
						"encoding": "dynamic_array",
						"label": "struct Twitter.Tweet[]",
						"numberOfBytes": "32"
					},
					"t_mapping(t_address,t_array(t_struct(Tweet)12_storage)dyn_storage)": {
						"encoding": "mapping",
						"key": "t_address",
						"label": "mapping(address => struct Twitter.Tweet[])",
						"numberOfBytes": "32",
						"value": "t_array(t_struct(Tweet)12_storage)dyn_storage"
					},
					"t_string_storage": {
						"encoding": "bytes",
						"label": "string",
						"numberOfBytes": "32"
					},
					"t_struct(Tweet)12_storage": {
						"encoding": "inplace",
						"label": "struct Twitter.Tweet",
						"members": [
							{
								"astId": 3,
								"contract": "Contracts/twitter.sol:Twitter",
								"label": "id",
								"offset": 0,
								"slot": "0",
								"type": "t_uint256"
							},
							{
								"astId": 5,
								"contract": "Contracts/twitter.sol:Twitter",
								"label": "author",
								"offset": 0,
								"slot": "1",
								"type": "t_address"
							},
							{
								"astId": 7,
								"contract": "Contracts/twitter.sol:Twitter",
								"label": "content",
								"offset": 0,
								"slot": "2",
								"type": "t_string_storage"
							},
							{
								"astId": 9,
								"contract": "Contracts/twitter.sol:Twitter",
								"label": "timestamp",
								"offset": 0,
								"slot": "3",
								"type": "t_uint256"
							},
							{
								"astId": 11,
								"contract": "Contracts/twitter.sol:Twitter",
								"label": "likes",
								"offset": 0,
								"slot": "4",
								"type": "t_uint256"
							}
						],
						"numberOfBytes": "160"
					},
					"t_uint16": {
						"encoding": "inplace",
						"label": "uint16",
						"numberOfBytes": "2"
					},
					"t_uint256": {
						"encoding": "inplace",
						"label": "uint256",
						"numberOfBytes": "32"
					}
				}
			},
			"userdoc": {
				"kind": "user",
				"methods": {},
				"version": 1
			}
		}
	}
}